{
	"contracts/19-dynamic-size-array.sol": {
		"DynamicArrayMaster": {
			"abi": [
				{
					"inputs": [
						{
							"internalType": "uint256",
							"name": "value",
							"type": "uint256"
						}
					],
					"name": "add",
					"outputs": [],
					"stateMutability": "nonpayable",
					"type": "function"
				},
				{
					"inputs": [],
					"name": "clearArray",
					"outputs": [],
					"stateMutability": "nonpayable",
					"type": "function"
				},
				{
					"inputs": [
						{
							"internalType": "uint256",
							"name": "",
							"type": "uint256"
						}
					],
					"name": "dynamicArray",
					"outputs": [
						{
							"internalType": "uint256",
							"name": "",
							"type": "uint256"
						}
					],
					"stateMutability": "view",
					"type": "function"
				},
				{
					"inputs": [
						{
							"internalType": "uint256",
							"name": "index",
							"type": "uint256"
						}
					],
					"name": "get",
					"outputs": [
						{
							"internalType": "uint256",
							"name": "",
							"type": "uint256"
						}
					],
					"stateMutability": "view",
					"type": "function"
				},
				{
					"inputs": [],
					"name": "getAll",
					"outputs": [
						{
							"internalType": "uint256[]",
							"name": "",
							"type": "uint256[]"
						}
					],
					"stateMutability": "view",
					"type": "function"
				},
				{
					"inputs": [],
					"name": "length",
					"outputs": [
						{
							"internalType": "uint256",
							"name": "",
							"type": "uint256"
						}
					],
					"stateMutability": "view",
					"type": "function"
				},
				{
					"inputs": [],
					"name": "removeLast",
					"outputs": [],
					"stateMutability": "nonpayable",
					"type": "function"
				},
				{
					"inputs": [
						{
							"internalType": "uint256",
							"name": "index",
							"type": "uint256"
						}
					],
					"name": "reset",
					"outputs": [],
					"stateMutability": "nonpayable",
					"type": "function"
				},
				{
					"inputs": [],
					"name": "resetAll",
					"outputs": [],
					"stateMutability": "nonpayable",
					"type": "function"
				},
				{
					"inputs": [
						{
							"internalType": "uint256",
							"name": "index",
							"type": "uint256"
						},
						{
							"internalType": "uint256",
							"name": "value",
							"type": "uint256"
						}
					],
					"name": "set",
					"outputs": [],
					"stateMutability": "nonpayable",
					"type": "function"
				}
			],
			"devdoc": {
				"kind": "dev",
				"methods": {},
				"version": 1
			},
			"evm": {
				"assembly": "    /* \"contracts/19-dynamic-size-array.sol\":57:1868  contract DynamicArrayMaster {... */\n  mstore(0x40, 0x80)\n  callvalue\n  dup1\n  iszero\n  tag_1\n  jumpi\n  revert(0x00, 0x00)\ntag_1:\n  pop\n  dataSize(sub_0)\n  dup1\n  dataOffset(sub_0)\n  0x00\n  codecopy\n  0x00\n  return\nstop\n\nsub_0: assembly {\n        /* \"contracts/19-dynamic-size-array.sol\":57:1868  contract DynamicArrayMaster {... */\n      mstore(0x40, 0x80)\n      callvalue\n      dup1\n      iszero\n      tag_1\n      jumpi\n      revert(0x00, 0x00)\n    tag_1:\n      pop\n      jumpi(tag_2, lt(calldatasize, 0x04))\n      shr(0xe0, calldataload(0x00))\n      dup1\n      0x9507d39a\n      gt\n      tag_13\n      jumpi\n      dup1\n      0x9507d39a\n      eq\n      tag_8\n      jumpi\n      dup1\n      0x9a9bdca7\n      eq\n      tag_9\n      jumpi\n      dup1\n      0xd092e186\n      eq\n      tag_10\n      jumpi\n      dup1\n      0xe103aef5\n      eq\n      tag_11\n      jumpi\n      dup1\n      0xe80b7ab6\n      eq\n      tag_12\n      jumpi\n      jump(tag_2)\n    tag_13:\n      dup1\n      0x1003e2d2\n      eq\n      tag_3\n      jumpi\n      dup1\n      0x1ab06ee5\n      eq\n      tag_4\n      jumpi\n      dup1\n      0x1f7b6d32\n      eq\n      tag_5\n      jumpi\n      dup1\n      0x310bd74b\n      eq\n      tag_6\n      jumpi\n      dup1\n      0x53ed5143\n      eq\n      tag_7\n      jumpi\n    tag_2:\n      revert(0x00, 0x00)\n        /* \"contracts/19-dynamic-size-array.sol\":161:237  function add(uint256 value) public {... */\n    tag_3:\n      tag_14\n      0x04\n      dup1\n      calldatasize\n      sub\n      dup2\n      add\n      swap1\n      tag_15\n      swap2\n      swap1\n      tag_16\n      jump\t// in\n    tag_15:\n      tag_17\n      jump\t// in\n    tag_14:\n      stop\n        /* \"contracts/19-dynamic-size-array.sol\":289:451  function set(uint256 index, uint256 value) public {... */\n    tag_4:\n      tag_18\n      0x04\n      dup1\n      calldatasize\n      sub\n      dup2\n      add\n      swap1\n      tag_19\n      swap2\n      swap1\n      tag_20\n      jump\t// in\n    tag_19:\n      tag_21\n      jump\t// in\n    tag_18:\n      stop\n        /* \"contracts/19-dynamic-size-array.sol\":1013:1104  function length() public view returns (uint256) {... */\n    tag_5:\n      tag_22\n      tag_23\n      jump\t// in\n    tag_22:\n      mload(0x40)\n      tag_24\n      swap2\n      swap1\n      tag_25\n      jump\t// in\n    tag_24:\n      mload(0x40)\n      dup1\n      swap2\n      sub\n      swap1\n      return\n        /* \"contracts/19-dynamic-size-array.sol\":1179:1328  function reset(uint256 index) public {... */\n    tag_6:\n      tag_26\n      0x04\n      dup1\n      calldatasize\n      sub\n      dup2\n      add\n      swap1\n      tag_27\n      swap2\n      swap1\n      tag_16\n      jump\t// in\n    tag_27:\n      tag_28\n      jump\t// in\n    tag_26:\n      stop\n        /* \"contracts/19-dynamic-size-array.sol\":889:979  function getAll() public view returns (uint[] memory) {... */\n    tag_7:\n      tag_29\n      tag_30\n      jump\t// in\n    tag_29:\n      mload(0x40)\n      tag_31\n      swap2\n      swap1\n      tag_32\n      jump\t// in\n    tag_31:\n      mload(0x40)\n      dup1\n      swap2\n      sub\n      swap1\n      return\n        /* \"contracts/19-dynamic-size-array.sol\":686:855  function get(uint256 index) public view returns (uint256) {... */\n    tag_8:\n      tag_33\n      0x04\n      dup1\n      calldatasize\n      sub\n      dup2\n      add\n      swap1\n      tag_34\n      swap2\n      swap1\n      tag_16\n      jump\t// in\n    tag_34:\n      tag_35\n      jump\t// in\n    tag_33:\n      mload(0x40)\n      tag_36\n      swap2\n      swap1\n      tag_25\n      jump\t// in\n    tag_36:\n      mload(0x40)\n      dup1\n      swap2\n      sub\n      swap1\n      return\n        /* \"contracts/19-dynamic-size-array.sol\":91:120  uint256[] public dynamicArray */\n    tag_9:\n      tag_37\n      0x04\n      dup1\n      calldatasize\n      sub\n      dup2\n      add\n      swap1\n      tag_38\n      swap2\n      swap1\n      tag_16\n      jump\t// in\n    tag_38:\n      tag_39\n      jump\t// in\n    tag_37:\n      mload(0x40)\n      tag_40\n      swap2\n      swap1\n      tag_25\n      jump\t// in\n    tag_40:\n      mload(0x40)\n      dup1\n      swap2\n      sub\n      swap1\n      return\n        /* \"contracts/19-dynamic-size-array.sol\":1604:1728  function removeLast() public {... */\n    tag_10:\n      tag_41\n      tag_42\n      jump\t// in\n    tag_41:\n      stop\n        /* \"contracts/19-dynamic-size-array.sol\":1389:1529  function resetAll() public {... */\n    tag_11:\n      tag_43\n      tag_44\n      jump\t// in\n    tag_43:\n      stop\n        /* \"contracts/19-dynamic-size-array.sol\":1801:1866  function clearArray() public {... */\n    tag_12:\n      tag_45\n      tag_46\n      jump\t// in\n    tag_45:\n      stop\n        /* \"contracts/19-dynamic-size-array.sol\":161:237  function add(uint256 value) public {... */\n    tag_17:\n        /* \"contracts/19-dynamic-size-array.sol\":206:218  dynamicArray */\n      0x00\n        /* \"contracts/19-dynamic-size-array.sol\":224:229  value */\n      dup2\n        /* \"contracts/19-dynamic-size-array.sol\":206:230  dynamicArray.push(value) */\n      swap1\n      dup1\n      0x01\n      dup2\n      sload\n      add\n      dup1\n      dup3\n      sstore\n      dup1\n      swap2\n      pop\n      pop\n      0x01\n      swap1\n      sub\n      swap1\n      0x00\n      mstore\n      keccak256(0x00, 0x20)\n      add\n      0x00\n      swap1\n      swap2\n      swap1\n      swap2\n      swap1\n      swap2\n      pop\n      sstore\n        /* \"contracts/19-dynamic-size-array.sol\":161:237  function add(uint256 value) public {... */\n      pop\n      jump\t// out\n        /* \"contracts/19-dynamic-size-array.sol\":289:451  function set(uint256 index, uint256 value) public {... */\n    tag_21:\n        /* \"contracts/19-dynamic-size-array.sol\":365:377  dynamicArray */\n      0x00\n        /* \"contracts/19-dynamic-size-array.sol\":365:384  dynamicArray.length */\n      dup1\n      sload\n      swap1\n      pop\n        /* \"contracts/19-dynamic-size-array.sol\":357:362  index */\n      dup3\n        /* \"contracts/19-dynamic-size-array.sol\":357:384  index < dynamicArray.length */\n      lt\n        /* \"contracts/19-dynamic-size-array.sol\":349:407  require(index < dynamicArray.length, \"Index out of bound\") */\n      tag_50\n      jumpi\n      mload(0x40)\n      0x08c379a000000000000000000000000000000000000000000000000000000000\n      dup2\n      mstore\n      0x04\n      add\n      tag_51\n      swap1\n      tag_52\n      jump\t// in\n    tag_51:\n      mload(0x40)\n      dup1\n      swap2\n      sub\n      swap1\n      revert\n    tag_50:\n        /* \"contracts/19-dynamic-size-array.sol\":439:444  value */\n      dup1\n        /* \"contracts/19-dynamic-size-array.sol\":417:429  dynamicArray */\n      0x00\n        /* \"contracts/19-dynamic-size-array.sol\":430:435  index */\n      dup4\n        /* \"contracts/19-dynamic-size-array.sol\":417:436  dynamicArray[index] */\n      dup2\n      sload\n      dup2\n      lt\n      tag_53\n      jumpi\n      tag_54\n      tag_55\n      jump\t// in\n    tag_54:\n    tag_53:\n      swap1\n      0x00\n      mstore\n      keccak256(0x00, 0x20)\n      add\n        /* \"contracts/19-dynamic-size-array.sol\":417:444  dynamicArray[index] = value */\n      dup2\n      swap1\n      sstore\n      pop\n        /* \"contracts/19-dynamic-size-array.sol\":289:451  function set(uint256 index, uint256 value) public {... */\n      pop\n      pop\n      jump\t// out\n        /* \"contracts/19-dynamic-size-array.sol\":1013:1104  function length() public view returns (uint256) {... */\n    tag_23:\n        /* \"contracts/19-dynamic-size-array.sol\":1052:1059  uint256 */\n      0x00\n        /* \"contracts/19-dynamic-size-array.sol\":1078:1090  dynamicArray */\n      0x00\n        /* \"contracts/19-dynamic-size-array.sol\":1078:1097  dynamicArray.length */\n      dup1\n      sload\n      swap1\n      pop\n        /* \"contracts/19-dynamic-size-array.sol\":1071:1097  return dynamicArray.length */\n      swap1\n      pop\n        /* \"contracts/19-dynamic-size-array.sol\":1013:1104  function length() public view returns (uint256) {... */\n      swap1\n      jump\t// out\n        /* \"contracts/19-dynamic-size-array.sol\":1179:1328  function reset(uint256 index) public {... */\n    tag_28:\n        /* \"contracts/19-dynamic-size-array.sol\":1242:1254  dynamicArray */\n      0x00\n        /* \"contracts/19-dynamic-size-array.sol\":1242:1261  dynamicArray.length */\n      dup1\n      sload\n      swap1\n      pop\n        /* \"contracts/19-dynamic-size-array.sol\":1234:1239  index */\n      dup2\n        /* \"contracts/19-dynamic-size-array.sol\":1234:1261  index < dynamicArray.length */\n      lt\n        /* \"contracts/19-dynamic-size-array.sol\":1226:1285  require(index < dynamicArray.length, \"index out of bounds\") */\n      tag_59\n      jumpi\n      mload(0x40)\n      0x08c379a000000000000000000000000000000000000000000000000000000000\n      dup2\n      mstore\n      0x04\n      add\n      tag_60\n      swap1\n      tag_61\n      jump\t// in\n    tag_60:\n      mload(0x40)\n      dup1\n      swap2\n      sub\n      swap1\n      revert\n    tag_59:\n        /* \"contracts/19-dynamic-size-array.sol\":1302:1314  dynamicArray */\n      0x00\n        /* \"contracts/19-dynamic-size-array.sol\":1315:1320  index */\n      dup2\n        /* \"contracts/19-dynamic-size-array.sol\":1302:1321  dynamicArray[index] */\n      dup2\n      sload\n      dup2\n      lt\n      tag_62\n      jumpi\n      tag_63\n      tag_55\n      jump\t// in\n    tag_63:\n    tag_62:\n      swap1\n      0x00\n      mstore\n      keccak256(0x00, 0x20)\n      add\n        /* \"contracts/19-dynamic-size-array.sol\":1295:1321  delete dynamicArray[index] */\n      0x00\n      swap1\n      sstore\n        /* \"contracts/19-dynamic-size-array.sol\":1179:1328  function reset(uint256 index) public {... */\n      pop\n      jump\t// out\n        /* \"contracts/19-dynamic-size-array.sol\":889:979  function getAll() public view returns (uint[] memory) {... */\n    tag_30:\n        /* \"contracts/19-dynamic-size-array.sol\":928:941  uint[] memory */\n      0x60\n        /* \"contracts/19-dynamic-size-array.sol\":960:972  dynamicArray */\n      0x00\n        /* \"contracts/19-dynamic-size-array.sol\":953:972  return dynamicArray */\n      dup1\n      sload\n      dup1\n      0x20\n      mul\n      0x20\n      add\n      mload(0x40)\n      swap1\n      dup2\n      add\n      0x40\n      mstore\n      dup1\n      swap3\n      swap2\n      swap1\n      dup2\n      dup2\n      mstore\n      0x20\n      add\n      dup3\n      dup1\n      sload\n      dup1\n      iszero\n      tag_66\n      jumpi\n      0x20\n      mul\n      dup3\n      add\n      swap2\n      swap1\n      0x00\n      mstore\n      keccak256(0x00, 0x20)\n      swap1\n    tag_67:\n      dup2\n      sload\n      dup2\n      mstore\n      0x20\n      add\n      swap1\n      0x01\n      add\n      swap1\n      dup1\n      dup4\n      gt\n      tag_67\n      jumpi\n    tag_66:\n      pop\n      pop\n      pop\n      pop\n      pop\n      swap1\n      pop\n        /* \"contracts/19-dynamic-size-array.sol\":889:979  function getAll() public view returns (uint[] memory) {... */\n      swap1\n      jump\t// out\n        /* \"contracts/19-dynamic-size-array.sol\":686:855  function get(uint256 index) public view returns (uint256) {... */\n    tag_35:\n        /* \"contracts/19-dynamic-size-array.sol\":735:742  uint256 */\n      0x00\n        /* \"contracts/19-dynamic-size-array.sol\":770:782  dynamicArray */\n      0x00\n        /* \"contracts/19-dynamic-size-array.sol\":770:789  dynamicArray.length */\n      dup1\n      sload\n      swap1\n      pop\n        /* \"contracts/19-dynamic-size-array.sol\":762:767  index */\n      dup3\n        /* \"contracts/19-dynamic-size-array.sol\":762:789  index < dynamicArray.length */\n      lt\n        /* \"contracts/19-dynamic-size-array.sol\":754:812  require(index < dynamicArray.length, \"Index out of bound\") */\n      tag_69\n      jumpi\n      mload(0x40)\n      0x08c379a000000000000000000000000000000000000000000000000000000000\n      dup2\n      mstore\n      0x04\n      add\n      tag_70\n      swap1\n      tag_52\n      jump\t// in\n    tag_70:\n      mload(0x40)\n      dup1\n      swap2\n      sub\n      swap1\n      revert\n    tag_69:\n        /* \"contracts/19-dynamic-size-array.sol\":829:841  dynamicArray */\n      0x00\n        /* \"contracts/19-dynamic-size-array.sol\":842:847  index */\n      dup3\n        /* \"contracts/19-dynamic-size-array.sol\":829:848  dynamicArray[index] */\n      dup2\n      sload\n      dup2\n      lt\n      tag_71\n      jumpi\n      tag_72\n      tag_55\n      jump\t// in\n    tag_72:\n    tag_71:\n      swap1\n      0x00\n      mstore\n      keccak256(0x00, 0x20)\n      add\n      sload\n        /* \"contracts/19-dynamic-size-array.sol\":822:848  return dynamicArray[index] */\n      swap1\n      pop\n        /* \"contracts/19-dynamic-size-array.sol\":686:855  function get(uint256 index) public view returns (uint256) {... */\n      swap2\n      swap1\n      pop\n      jump\t// out\n        /* \"contracts/19-dynamic-size-array.sol\":91:120  uint256[] public dynamicArray */\n    tag_39:\n      0x00\n      dup2\n      dup2\n      sload\n      dup2\n      lt\n      tag_74\n      jumpi\n      0x00\n      dup1\n      revert\n    tag_74:\n      swap1\n      0x00\n      mstore\n      keccak256(0x00, 0x20)\n      add\n      0x00\n      swap2\n      pop\n      swap1\n      pop\n      sload\n      dup2\n      jump\t// out\n        /* \"contracts/19-dynamic-size-array.sol\":1604:1728  function removeLast() public {... */\n    tag_42:\n        /* \"contracts/19-dynamic-size-array.sol\":1673:1674  0 */\n      0x00\n        /* \"contracts/19-dynamic-size-array.sol\":1651:1663  dynamicArray */\n      0x00\n        /* \"contracts/19-dynamic-size-array.sol\":1651:1670  dynamicArray.length */\n      dup1\n      sload\n      swap1\n      pop\n        /* \"contracts/19-dynamic-size-array.sol\":1651:1674  dynamicArray.length > 0 */\n      gt\n        /* \"contracts/19-dynamic-size-array.sol\":1643:1693  require(dynamicArray.length > 0, \"Array is empty\") */\n      tag_77\n      jumpi\n      mload(0x40)\n      0x08c379a000000000000000000000000000000000000000000000000000000000\n      dup2\n      mstore\n      0x04\n      add\n      tag_78\n      swap1\n      tag_79\n      jump\t// in\n    tag_78:\n      mload(0x40)\n      dup1\n      swap2\n      sub\n      swap1\n      revert\n    tag_77:\n        /* \"contracts/19-dynamic-size-array.sol\":1703:1715  dynamicArray */\n      0x00\n        /* \"contracts/19-dynamic-size-array.sol\":1703:1721  dynamicArray.pop() */\n      dup1\n      sload\n      dup1\n      tag_80\n      jumpi\n      tag_81\n      tag_82\n      jump\t// in\n    tag_81:\n    tag_80:\n      0x01\n      swap1\n      sub\n      dup2\n      dup2\n      swap1\n      0x00\n      mstore\n      keccak256(0x00, 0x20)\n      add\n      0x00\n      swap1\n      sstore\n      swap1\n      sstore\n        /* \"contracts/19-dynamic-size-array.sol\":1604:1728  function removeLast() public {... */\n      jump\t// out\n        /* \"contracts/19-dynamic-size-array.sol\":1389:1529  function resetAll() public {... */\n    tag_44:\n        /* \"contracts/19-dynamic-size-array.sol\":1431:1440  uint256 i */\n      0x00\n        /* \"contracts/19-dynamic-size-array.sol\":1443:1444  0 */\n      0x00\n        /* \"contracts/19-dynamic-size-array.sol\":1431:1444  uint256 i = 0 */\n      swap1\n      pop\n        /* \"contracts/19-dynamic-size-array.sol\":1426:1523  for (uint256 i = 0; i < dynamicArray.length; i++) {... */\n    tag_85:\n        /* \"contracts/19-dynamic-size-array.sol\":1450:1462  dynamicArray */\n      0x00\n        /* \"contracts/19-dynamic-size-array.sol\":1450:1469  dynamicArray.length */\n      dup1\n      sload\n      swap1\n      pop\n        /* \"contracts/19-dynamic-size-array.sol\":1446:1447  i */\n      dup2\n        /* \"contracts/19-dynamic-size-array.sol\":1446:1469  i < dynamicArray.length */\n      lt\n        /* \"contracts/19-dynamic-size-array.sol\":1426:1523  for (uint256 i = 0; i < dynamicArray.length; i++) {... */\n      iszero\n      tag_86\n      jumpi\n        /* \"contracts/19-dynamic-size-array.sol\":1497:1509  dynamicArray */\n      0x00\n        /* \"contracts/19-dynamic-size-array.sol\":1510:1511  i */\n      dup2\n        /* \"contracts/19-dynamic-size-array.sol\":1497:1512  dynamicArray[i] */\n      dup2\n      sload\n      dup2\n      lt\n      tag_88\n      jumpi\n      tag_89\n      tag_55\n      jump\t// in\n    tag_89:\n    tag_88:\n      swap1\n      0x00\n      mstore\n      keccak256(0x00, 0x20)\n      add\n        /* \"contracts/19-dynamic-size-array.sol\":1490:1512  delete dynamicArray[i] */\n      0x00\n      swap1\n      sstore\n        /* \"contracts/19-dynamic-size-array.sol\":1471:1474  i++ */\n      dup1\n      dup1\n      0x01\n      add\n      swap2\n      pop\n      pop\n        /* \"contracts/19-dynamic-size-array.sol\":1426:1523  for (uint256 i = 0; i < dynamicArray.length; i++) {... */\n      jump(tag_85)\n    tag_86:\n      pop\n        /* \"contracts/19-dynamic-size-array.sol\":1389:1529  function resetAll() public {... */\n      jump\t// out\n        /* \"contracts/19-dynamic-size-array.sol\":1801:1866  function clearArray() public {... */\n    tag_46:\n        /* \"contracts/19-dynamic-size-array.sol\":1847:1859  dynamicArray */\n      0x00\n      0x00\n        /* \"contracts/19-dynamic-size-array.sol\":1840:1859  delete dynamicArray */\n      tag_92\n      swap2\n      swap1\n      tag_93\n      jump\t// in\n    tag_92:\n        /* \"contracts/19-dynamic-size-array.sol\":1801:1866  function clearArray() public {... */\n      jump\t// out\n    tag_93:\n      pop\n      dup1\n      sload\n      0x00\n      dup3\n      sstore\n      swap1\n      0x00\n      mstore\n      keccak256(0x00, 0x20)\n      swap1\n      dup2\n      add\n      swap1\n      tag_95\n      swap2\n      swap1\n      tag_96\n      jump\t// in\n    tag_95:\n      pop\n      jump\t// out\n    tag_96:\n    tag_97:\n      dup1\n      dup3\n      gt\n      iszero\n      tag_98\n      jumpi\n      0x00\n      dup2\n      0x00\n      swap1\n      sstore\n      pop\n      0x01\n      add\n      jump(tag_97)\n    tag_98:\n      pop\n      swap1\n      jump\t// out\n        /* \"#utility.yul\":88:205   */\n    tag_100:\n        /* \"#utility.yul\":197:198   */\n      0x00\n        /* \"#utility.yul\":194:195   */\n      0x00\n        /* \"#utility.yul\":187:199   */\n      revert\n        /* \"#utility.yul\":334:411   */\n    tag_102:\n        /* \"#utility.yul\":371:378   */\n      0x00\n        /* \"#utility.yul\":400:405   */\n      dup2\n        /* \"#utility.yul\":389:405   */\n      swap1\n      pop\n        /* \"#utility.yul\":334:411   */\n      swap2\n      swap1\n      pop\n      jump\t// out\n        /* \"#utility.yul\":417:539   */\n    tag_103:\n        /* \"#utility.yul\":490:514   */\n      tag_126\n        /* \"#utility.yul\":508:513   */\n      dup2\n        /* \"#utility.yul\":490:514   */\n      tag_102\n      jump\t// in\n    tag_126:\n        /* \"#utility.yul\":483:488   */\n      dup2\n        /* \"#utility.yul\":480:515   */\n      eq\n        /* \"#utility.yul\":470:533   */\n      tag_127\n      jumpi\n        /* \"#utility.yul\":529:530   */\n      0x00\n        /* \"#utility.yul\":526:527   */\n      0x00\n        /* \"#utility.yul\":519:531   */\n      revert\n        /* \"#utility.yul\":470:533   */\n    tag_127:\n        /* \"#utility.yul\":417:539   */\n      pop\n      jump\t// out\n        /* \"#utility.yul\":545:684   */\n    tag_104:\n        /* \"#utility.yul\":591:596   */\n      0x00\n        /* \"#utility.yul\":629:635   */\n      dup2\n        /* \"#utility.yul\":616:636   */\n      calldataload\n        /* \"#utility.yul\":607:636   */\n      swap1\n      pop\n        /* \"#utility.yul\":645:678   */\n      tag_129\n        /* \"#utility.yul\":672:677   */\n      dup2\n        /* \"#utility.yul\":645:678   */\n      tag_103\n      jump\t// in\n    tag_129:\n        /* \"#utility.yul\":545:684   */\n      swap3\n      swap2\n      pop\n      pop\n      jump\t// out\n        /* \"#utility.yul\":690:1019   */\n    tag_16:\n        /* \"#utility.yul\":749:755   */\n      0x00\n        /* \"#utility.yul\":798:800   */\n      0x20\n        /* \"#utility.yul\":786:795   */\n      dup3\n        /* \"#utility.yul\":777:784   */\n      dup5\n        /* \"#utility.yul\":773:796   */\n      sub\n        /* \"#utility.yul\":769:801   */\n      slt\n        /* \"#utility.yul\":766:885   */\n      iszero\n      tag_131\n      jumpi\n        /* \"#utility.yul\":804:883   */\n      tag_132\n      tag_100\n      jump\t// in\n    tag_132:\n        /* \"#utility.yul\":766:885   */\n    tag_131:\n        /* \"#utility.yul\":924:925   */\n      0x00\n        /* \"#utility.yul\":949:1002   */\n      tag_133\n        /* \"#utility.yul\":994:1001   */\n      dup5\n        /* \"#utility.yul\":985:991   */\n      dup3\n        /* \"#utility.yul\":974:983   */\n      dup6\n        /* \"#utility.yul\":970:992   */\n      add\n        /* \"#utility.yul\":949:1002   */\n      tag_104\n      jump\t// in\n    tag_133:\n        /* \"#utility.yul\":939:1002   */\n      swap2\n      pop\n        /* \"#utility.yul\":895:1012   */\n      pop\n        /* \"#utility.yul\":690:1019   */\n      swap3\n      swap2\n      pop\n      pop\n      jump\t// out\n        /* \"#utility.yul\":1025:1499   */\n    tag_20:\n        /* \"#utility.yul\":1093:1099   */\n      0x00\n        /* \"#utility.yul\":1101:1107   */\n      0x00\n        /* \"#utility.yul\":1150:1152   */\n      0x40\n        /* \"#utility.yul\":1138:1147   */\n      dup4\n        /* \"#utility.yul\":1129:1136   */\n      dup6\n        /* \"#utility.yul\":1125:1148   */\n      sub\n        /* \"#utility.yul\":1121:1153   */\n      slt\n        /* \"#utility.yul\":1118:1237   */\n      iszero\n      tag_135\n      jumpi\n        /* \"#utility.yul\":1156:1235   */\n      tag_136\n      tag_100\n      jump\t// in\n    tag_136:\n        /* \"#utility.yul\":1118:1237   */\n    tag_135:\n        /* \"#utility.yul\":1276:1277   */\n      0x00\n        /* \"#utility.yul\":1301:1354   */\n      tag_137\n        /* \"#utility.yul\":1346:1353   */\n      dup6\n        /* \"#utility.yul\":1337:1343   */\n      dup3\n        /* \"#utility.yul\":1326:1335   */\n      dup7\n        /* \"#utility.yul\":1322:1344   */\n      add\n        /* \"#utility.yul\":1301:1354   */\n      tag_104\n      jump\t// in\n    tag_137:\n        /* \"#utility.yul\":1291:1354   */\n      swap3\n      pop\n        /* \"#utility.yul\":1247:1364   */\n      pop\n        /* \"#utility.yul\":1403:1405   */\n      0x20\n        /* \"#utility.yul\":1429:1482   */\n      tag_138\n        /* \"#utility.yul\":1474:1481   */\n      dup6\n        /* \"#utility.yul\":1465:1471   */\n      dup3\n        /* \"#utility.yul\":1454:1463   */\n      dup7\n        /* \"#utility.yul\":1450:1472   */\n      add\n        /* \"#utility.yul\":1429:1482   */\n      tag_104\n      jump\t// in\n    tag_138:\n        /* \"#utility.yul\":1419:1482   */\n      swap2\n      pop\n        /* \"#utility.yul\":1374:1492   */\n      pop\n        /* \"#utility.yul\":1025:1499   */\n      swap3\n      pop\n      swap3\n      swap1\n      pop\n      jump\t// out\n        /* \"#utility.yul\":1505:1623   */\n    tag_105:\n        /* \"#utility.yul\":1592:1616   */\n      tag_140\n        /* \"#utility.yul\":1610:1615   */\n      dup2\n        /* \"#utility.yul\":1592:1616   */\n      tag_102\n      jump\t// in\n    tag_140:\n        /* \"#utility.yul\":1587:1590   */\n      dup3\n        /* \"#utility.yul\":1580:1617   */\n      mstore\n        /* \"#utility.yul\":1505:1623   */\n      pop\n      pop\n      jump\t// out\n        /* \"#utility.yul\":1629:1851   */\n    tag_25:\n        /* \"#utility.yul\":1722:1726   */\n      0x00\n        /* \"#utility.yul\":1760:1762   */\n      0x20\n        /* \"#utility.yul\":1749:1758   */\n      dup3\n        /* \"#utility.yul\":1745:1763   */\n      add\n        /* \"#utility.yul\":1737:1763   */\n      swap1\n      pop\n        /* \"#utility.yul\":1773:1844   */\n      tag_142\n        /* \"#utility.yul\":1841:1842   */\n      0x00\n        /* \"#utility.yul\":1830:1839   */\n      dup4\n        /* \"#utility.yul\":1826:1843   */\n      add\n        /* \"#utility.yul\":1817:1823   */\n      dup5\n        /* \"#utility.yul\":1773:1844   */\n      tag_105\n      jump\t// in\n    tag_142:\n        /* \"#utility.yul\":1629:1851   */\n      swap3\n      swap2\n      pop\n      pop\n      jump\t// out\n        /* \"#utility.yul\":1857:1971   */\n    tag_106:\n        /* \"#utility.yul\":1924:1930   */\n      0x00\n        /* \"#utility.yul\":1958:1963   */\n      dup2\n        /* \"#utility.yul\":1952:1964   */\n      mload\n        /* \"#utility.yul\":1942:1964   */\n      swap1\n      pop\n        /* \"#utility.yul\":1857:1971   */\n      swap2\n      swap1\n      pop\n      jump\t// out\n        /* \"#utility.yul\":1977:2161   */\n    tag_107:\n        /* \"#utility.yul\":2076:2087   */\n      0x00\n        /* \"#utility.yul\":2110:2116   */\n      dup3\n        /* \"#utility.yul\":2105:2108   */\n      dup3\n        /* \"#utility.yul\":2098:2117   */\n      mstore\n        /* \"#utility.yul\":2150:2154   */\n      0x20\n        /* \"#utility.yul\":2145:2148   */\n      dup3\n        /* \"#utility.yul\":2141:2155   */\n      add\n        /* \"#utility.yul\":2126:2155   */\n      swap1\n      pop\n        /* \"#utility.yul\":1977:2161   */\n      swap3\n      swap2\n      pop\n      pop\n      jump\t// out\n        /* \"#utility.yul\":2167:2299   */\n    tag_108:\n        /* \"#utility.yul\":2234:2238   */\n      0x00\n        /* \"#utility.yul\":2257:2260   */\n      dup2\n        /* \"#utility.yul\":2249:2260   */\n      swap1\n      pop\n        /* \"#utility.yul\":2287:2291   */\n      0x20\n        /* \"#utility.yul\":2282:2285   */\n      dup3\n        /* \"#utility.yul\":2278:2292   */\n      add\n        /* \"#utility.yul\":2270:2292   */\n      swap1\n      pop\n        /* \"#utility.yul\":2167:2299   */\n      swap2\n      swap1\n      pop\n      jump\t// out\n        /* \"#utility.yul\":2305:2413   */\n    tag_109:\n        /* \"#utility.yul\":2382:2406   */\n      tag_147\n        /* \"#utility.yul\":2400:2405   */\n      dup2\n        /* \"#utility.yul\":2382:2406   */\n      tag_102\n      jump\t// in\n    tag_147:\n        /* \"#utility.yul\":2377:2380   */\n      dup3\n        /* \"#utility.yul\":2370:2407   */\n      mstore\n        /* \"#utility.yul\":2305:2413   */\n      pop\n      pop\n      jump\t// out\n        /* \"#utility.yul\":2419:2598   */\n    tag_110:\n        /* \"#utility.yul\":2488:2498   */\n      0x00\n        /* \"#utility.yul\":2509:2555   */\n      tag_149\n        /* \"#utility.yul\":2551:2554   */\n      dup4\n        /* \"#utility.yul\":2543:2549   */\n      dup4\n        /* \"#utility.yul\":2509:2555   */\n      tag_109\n      jump\t// in\n    tag_149:\n        /* \"#utility.yul\":2587:2591   */\n      0x20\n        /* \"#utility.yul\":2582:2585   */\n      dup4\n        /* \"#utility.yul\":2578:2592   */\n      add\n        /* \"#utility.yul\":2564:2592   */\n      swap1\n      pop\n        /* \"#utility.yul\":2419:2598   */\n      swap3\n      swap2\n      pop\n      pop\n      jump\t// out\n        /* \"#utility.yul\":2604:2717   */\n    tag_111:\n        /* \"#utility.yul\":2674:2678   */\n      0x00\n        /* \"#utility.yul\":2706:2710   */\n      0x20\n        /* \"#utility.yul\":2701:2704   */\n      dup3\n        /* \"#utility.yul\":2697:2711   */\n      add\n        /* \"#utility.yul\":2689:2711   */\n      swap1\n      pop\n        /* \"#utility.yul\":2604:2717   */\n      swap2\n      swap1\n      pop\n      jump\t// out\n        /* \"#utility.yul\":2753:3485   */\n    tag_112:\n        /* \"#utility.yul\":2872:2875   */\n      0x00\n        /* \"#utility.yul\":2901:2955   */\n      tag_152\n        /* \"#utility.yul\":2949:2954   */\n      dup3\n        /* \"#utility.yul\":2901:2955   */\n      tag_106\n      jump\t// in\n    tag_152:\n        /* \"#utility.yul\":2971:3057   */\n      tag_153\n        /* \"#utility.yul\":3050:3056   */\n      dup2\n        /* \"#utility.yul\":3045:3048   */\n      dup6\n        /* \"#utility.yul\":2971:3057   */\n      tag_107\n      jump\t// in\n    tag_153:\n        /* \"#utility.yul\":2964:3057   */\n      swap4\n      pop\n        /* \"#utility.yul\":3081:3137   */\n      tag_154\n        /* \"#utility.yul\":3131:3136   */\n      dup4\n        /* \"#utility.yul\":3081:3137   */\n      tag_108\n      jump\t// in\n    tag_154:\n        /* \"#utility.yul\":3160:3167   */\n      dup1\n        /* \"#utility.yul\":3191:3192   */\n      0x00\n        /* \"#utility.yul\":3176:3460   */\n    tag_155:\n        /* \"#utility.yul\":3201:3207   */\n      dup4\n        /* \"#utility.yul\":3198:3199   */\n      dup2\n        /* \"#utility.yul\":3195:3208   */\n      lt\n        /* \"#utility.yul\":3176:3460   */\n      iszero\n      tag_157\n      jumpi\n        /* \"#utility.yul\":3277:3283   */\n      dup2\n        /* \"#utility.yul\":3271:3284   */\n      mload\n        /* \"#utility.yul\":3304:3367   */\n      tag_158\n        /* \"#utility.yul\":3363:3366   */\n      dup9\n        /* \"#utility.yul\":3348:3361   */\n      dup3\n        /* \"#utility.yul\":3304:3367   */\n      tag_110\n      jump\t// in\n    tag_158:\n        /* \"#utility.yul\":3297:3367   */\n      swap8\n      pop\n        /* \"#utility.yul\":3390:3450   */\n      tag_159\n        /* \"#utility.yul\":3443:3449   */\n      dup4\n        /* \"#utility.yul\":3390:3450   */\n      tag_111\n      jump\t// in\n    tag_159:\n        /* \"#utility.yul\":3380:3450   */\n      swap3\n      pop\n        /* \"#utility.yul\":3236:3460   */\n      pop\n        /* \"#utility.yul\":3223:3224   */\n      0x01\n        /* \"#utility.yul\":3220:3221   */\n      dup2\n        /* \"#utility.yul\":3216:3225   */\n      add\n        /* \"#utility.yul\":3211:3225   */\n      swap1\n      pop\n        /* \"#utility.yul\":3176:3460   */\n      jump(tag_155)\n    tag_157:\n        /* \"#utility.yul\":3180:3194   */\n      pop\n        /* \"#utility.yul\":3476:3479   */\n      dup6\n        /* \"#utility.yul\":3469:3479   */\n      swap4\n      pop\n        /* \"#utility.yul\":2877:3485   */\n      pop\n      pop\n      pop\n        /* \"#utility.yul\":2753:3485   */\n      swap3\n      swap2\n      pop\n      pop\n      jump\t// out\n        /* \"#utility.yul\":3491:3864   */\n    tag_32:\n        /* \"#utility.yul\":3634:3638   */\n      0x00\n        /* \"#utility.yul\":3672:3674   */\n      0x20\n        /* \"#utility.yul\":3661:3670   */\n      dup3\n        /* \"#utility.yul\":3657:3675   */\n      add\n        /* \"#utility.yul\":3649:3675   */\n      swap1\n      pop\n        /* \"#utility.yul\":3721:3730   */\n      dup2\n        /* \"#utility.yul\":3715:3719   */\n      dup2\n        /* \"#utility.yul\":3711:3731   */\n      sub\n        /* \"#utility.yul\":3707:3708   */\n      0x00\n        /* \"#utility.yul\":3696:3705   */\n      dup4\n        /* \"#utility.yul\":3692:3709   */\n      add\n        /* \"#utility.yul\":3685:3732   */\n      mstore\n        /* \"#utility.yul\":3749:3857   */\n      tag_161\n        /* \"#utility.yul\":3852:3856   */\n      dup2\n        /* \"#utility.yul\":3843:3849   */\n      dup5\n        /* \"#utility.yul\":3749:3857   */\n      tag_112\n      jump\t// in\n    tag_161:\n        /* \"#utility.yul\":3741:3857   */\n      swap1\n      pop\n        /* \"#utility.yul\":3491:3864   */\n      swap3\n      swap2\n      pop\n      pop\n      jump\t// out\n        /* \"#utility.yul\":3870:4039   */\n    tag_113:\n        /* \"#utility.yul\":3954:3965   */\n      0x00\n        /* \"#utility.yul\":3988:3994   */\n      dup3\n        /* \"#utility.yul\":3983:3986   */\n      dup3\n        /* \"#utility.yul\":3976:3995   */\n      mstore\n        /* \"#utility.yul\":4028:4032   */\n      0x20\n        /* \"#utility.yul\":4023:4026   */\n      dup3\n        /* \"#utility.yul\":4019:4033   */\n      add\n        /* \"#utility.yul\":4004:4033   */\n      swap1\n      pop\n        /* \"#utility.yul\":3870:4039   */\n      swap3\n      swap2\n      pop\n      pop\n      jump\t// out\n        /* \"#utility.yul\":4045:4213   */\n    tag_114:\n        /* \"#utility.yul\":4185:4205   */\n      0x496e646578206f7574206f6620626f756e640000000000000000000000000000\n        /* \"#utility.yul\":4181:4182   */\n      0x00\n        /* \"#utility.yul\":4173:4179   */\n      dup3\n        /* \"#utility.yul\":4169:4183   */\n      add\n        /* \"#utility.yul\":4162:4206   */\n      mstore\n        /* \"#utility.yul\":4045:4213   */\n      pop\n      jump\t// out\n        /* \"#utility.yul\":4219:4585   */\n    tag_115:\n        /* \"#utility.yul\":4361:4364   */\n      0x00\n        /* \"#utility.yul\":4382:4449   */\n      tag_165\n        /* \"#utility.yul\":4446:4448   */\n      0x12\n        /* \"#utility.yul\":4441:4444   */\n      dup4\n        /* \"#utility.yul\":4382:4449   */\n      tag_113\n      jump\t// in\n    tag_165:\n        /* \"#utility.yul\":4375:4449   */\n      swap2\n      pop\n        /* \"#utility.yul\":4458:4551   */\n      tag_166\n        /* \"#utility.yul\":4547:4550   */\n      dup3\n        /* \"#utility.yul\":4458:4551   */\n      tag_114\n      jump\t// in\n    tag_166:\n        /* \"#utility.yul\":4576:4578   */\n      0x20\n        /* \"#utility.yul\":4571:4574   */\n      dup3\n        /* \"#utility.yul\":4567:4579   */\n      add\n        /* \"#utility.yul\":4560:4579   */\n      swap1\n      pop\n        /* \"#utility.yul\":4219:4585   */\n      swap2\n      swap1\n      pop\n      jump\t// out\n        /* \"#utility.yul\":4591:5010   */\n    tag_52:\n        /* \"#utility.yul\":4757:4761   */\n      0x00\n        /* \"#utility.yul\":4795:4797   */\n      0x20\n        /* \"#utility.yul\":4784:4793   */\n      dup3\n        /* \"#utility.yul\":4780:4798   */\n      add\n        /* \"#utility.yul\":4772:4798   */\n      swap1\n      pop\n        /* \"#utility.yul\":4844:4853   */\n      dup2\n        /* \"#utility.yul\":4838:4842   */\n      dup2\n        /* \"#utility.yul\":4834:4854   */\n      sub\n        /* \"#utility.yul\":4830:4831   */\n      0x00\n        /* \"#utility.yul\":4819:4828   */\n      dup4\n        /* \"#utility.yul\":4815:4832   */\n      add\n        /* \"#utility.yul\":4808:4855   */\n      mstore\n        /* \"#utility.yul\":4872:5003   */\n      tag_168\n        /* \"#utility.yul\":4998:5002   */\n      dup2\n        /* \"#utility.yul\":4872:5003   */\n      tag_115\n      jump\t// in\n    tag_168:\n        /* \"#utility.yul\":4864:5003   */\n      swap1\n      pop\n        /* \"#utility.yul\":4591:5010   */\n      swap2\n      swap1\n      pop\n      jump\t// out\n        /* \"#utility.yul\":5016:5196   */\n    tag_55:\n        /* \"#utility.yul\":5064:5141   */\n      0x4e487b7100000000000000000000000000000000000000000000000000000000\n        /* \"#utility.yul\":5061:5062   */\n      0x00\n        /* \"#utility.yul\":5054:5142   */\n      mstore\n        /* \"#utility.yul\":5161:5165   */\n      0x32\n        /* \"#utility.yul\":5158:5159   */\n      0x04\n        /* \"#utility.yul\":5151:5166   */\n      mstore\n        /* \"#utility.yul\":5185:5189   */\n      0x24\n        /* \"#utility.yul\":5182:5183   */\n      0x00\n        /* \"#utility.yul\":5175:5190   */\n      revert\n        /* \"#utility.yul\":5202:5371   */\n    tag_116:\n        /* \"#utility.yul\":5342:5363   */\n      0x696e646578206f7574206f6620626f756e647300000000000000000000000000\n        /* \"#utility.yul\":5338:5339   */\n      0x00\n        /* \"#utility.yul\":5330:5336   */\n      dup3\n        /* \"#utility.yul\":5326:5340   */\n      add\n        /* \"#utility.yul\":5319:5364   */\n      mstore\n        /* \"#utility.yul\":5202:5371   */\n      pop\n      jump\t// out\n        /* \"#utility.yul\":5377:5743   */\n    tag_117:\n        /* \"#utility.yul\":5519:5522   */\n      0x00\n        /* \"#utility.yul\":5540:5607   */\n      tag_172\n        /* \"#utility.yul\":5604:5606   */\n      0x13\n        /* \"#utility.yul\":5599:5602   */\n      dup4\n        /* \"#utility.yul\":5540:5607   */\n      tag_113\n      jump\t// in\n    tag_172:\n        /* \"#utility.yul\":5533:5607   */\n      swap2\n      pop\n        /* \"#utility.yul\":5616:5709   */\n      tag_173\n        /* \"#utility.yul\":5705:5708   */\n      dup3\n        /* \"#utility.yul\":5616:5709   */\n      tag_116\n      jump\t// in\n    tag_173:\n        /* \"#utility.yul\":5734:5736   */\n      0x20\n        /* \"#utility.yul\":5729:5732   */\n      dup3\n        /* \"#utility.yul\":5725:5737   */\n      add\n        /* \"#utility.yul\":5718:5737   */\n      swap1\n      pop\n        /* \"#utility.yul\":5377:5743   */\n      swap2\n      swap1\n      pop\n      jump\t// out\n        /* \"#utility.yul\":5749:6168   */\n    tag_61:\n        /* \"#utility.yul\":5915:5919   */\n      0x00\n        /* \"#utility.yul\":5953:5955   */\n      0x20\n        /* \"#utility.yul\":5942:5951   */\n      dup3\n        /* \"#utility.yul\":5938:5956   */\n      add\n        /* \"#utility.yul\":5930:5956   */\n      swap1\n      pop\n        /* \"#utility.yul\":6002:6011   */\n      dup2\n        /* \"#utility.yul\":5996:6000   */\n      dup2\n        /* \"#utility.yul\":5992:6012   */\n      sub\n        /* \"#utility.yul\":5988:5989   */\n      0x00\n        /* \"#utility.yul\":5977:5986   */\n      dup4\n        /* \"#utility.yul\":5973:5990   */\n      add\n        /* \"#utility.yul\":5966:6013   */\n      mstore\n        /* \"#utility.yul\":6030:6161   */\n      tag_175\n        /* \"#utility.yul\":6156:6160   */\n      dup2\n        /* \"#utility.yul\":6030:6161   */\n      tag_117\n      jump\t// in\n    tag_175:\n        /* \"#utility.yul\":6022:6161   */\n      swap1\n      pop\n        /* \"#utility.yul\":5749:6168   */\n      swap2\n      swap1\n      pop\n      jump\t// out\n        /* \"#utility.yul\":6174:6338   */\n    tag_118:\n        /* \"#utility.yul\":6314:6330   */\n      0x417272617920697320656d707479000000000000000000000000000000000000\n        /* \"#utility.yul\":6310:6311   */\n      0x00\n        /* \"#utility.yul\":6302:6308   */\n      dup3\n        /* \"#utility.yul\":6298:6312   */\n      add\n        /* \"#utility.yul\":6291:6331   */\n      mstore\n        /* \"#utility.yul\":6174:6338   */\n      pop\n      jump\t// out\n        /* \"#utility.yul\":6344:6710   */\n    tag_119:\n        /* \"#utility.yul\":6486:6489   */\n      0x00\n        /* \"#utility.yul\":6507:6574   */\n      tag_178\n        /* \"#utility.yul\":6571:6573   */\n      0x0e\n        /* \"#utility.yul\":6566:6569   */\n      dup4\n        /* \"#utility.yul\":6507:6574   */\n      tag_113\n      jump\t// in\n    tag_178:\n        /* \"#utility.yul\":6500:6574   */\n      swap2\n      pop\n        /* \"#utility.yul\":6583:6676   */\n      tag_179\n        /* \"#utility.yul\":6672:6675   */\n      dup3\n        /* \"#utility.yul\":6583:6676   */\n      tag_118\n      jump\t// in\n    tag_179:\n        /* \"#utility.yul\":6701:6703   */\n      0x20\n        /* \"#utility.yul\":6696:6699   */\n      dup3\n        /* \"#utility.yul\":6692:6704   */\n      add\n        /* \"#utility.yul\":6685:6704   */\n      swap1\n      pop\n        /* \"#utility.yul\":6344:6710   */\n      swap2\n      swap1\n      pop\n      jump\t// out\n        /* \"#utility.yul\":6716:7135   */\n    tag_79:\n        /* \"#utility.yul\":6882:6886   */\n      0x00\n        /* \"#utility.yul\":6920:6922   */\n      0x20\n        /* \"#utility.yul\":6909:6918   */\n      dup3\n        /* \"#utility.yul\":6905:6923   */\n      add\n        /* \"#utility.yul\":6897:6923   */\n      swap1\n      pop\n        /* \"#utility.yul\":6969:6978   */\n      dup2\n        /* \"#utility.yul\":6963:6967   */\n      dup2\n        /* \"#utility.yul\":6959:6979   */\n      sub\n        /* \"#utility.yul\":6955:6956   */\n      0x00\n        /* \"#utility.yul\":6944:6953   */\n      dup4\n        /* \"#utility.yul\":6940:6957   */\n      add\n        /* \"#utility.yul\":6933:6980   */\n      mstore\n        /* \"#utility.yul\":6997:7128   */\n      tag_181\n        /* \"#utility.yul\":7123:7127   */\n      dup2\n        /* \"#utility.yul\":6997:7128   */\n      tag_119\n      jump\t// in\n    tag_181:\n        /* \"#utility.yul\":6989:7128   */\n      swap1\n      pop\n        /* \"#utility.yul\":6716:7135   */\n      swap2\n      swap1\n      pop\n      jump\t// out\n        /* \"#utility.yul\":7141:7321   */\n    tag_82:\n        /* \"#utility.yul\":7189:7266   */\n      0x4e487b7100000000000000000000000000000000000000000000000000000000\n        /* \"#utility.yul\":7186:7187   */\n      0x00\n        /* \"#utility.yul\":7179:7267   */\n      mstore\n        /* \"#utility.yul\":7286:7290   */\n      0x31\n        /* \"#utility.yul\":7283:7284   */\n      0x04\n        /* \"#utility.yul\":7276:7291   */\n      mstore\n        /* \"#utility.yul\":7310:7314   */\n      0x24\n        /* \"#utility.yul\":7307:7308   */\n      0x00\n        /* \"#utility.yul\":7300:7315   */\n      revert\n\n    auxdata: 0xa26469706673582212209eefb83e0679a7e3f75d4836af9a53c2064986a4676d856572a85437b4a8e7ec64736f6c634300081e0033\n}\n",
				"bytecode": {
					"linkReferences": {},
					"object": "6080604052348015600e575f5ffd5b506107f98061001c5f395ff3fe608060405234801561000f575f5ffd5b506004361061009c575f3560e01c80639507d39a116100645780639507d39a146101305780639a9bdca714610160578063d092e18614610190578063e103aef51461019a578063e80b7ab6146101a45761009c565b80631003e2d2146100a05780631ab06ee5146100bc5780631f7b6d32146100d8578063310bd74b146100f657806353ed514314610112575b5f5ffd5b6100ba60048036038101906100b591906104b9565b6101ae565b005b6100d660048036038101906100d191906104e4565b6101d6565b005b6100e0610240565b6040516100ed9190610531565b60405180910390f35b610110600480360381019061010b91906104b9565b61024b565b005b61011a6102b2565b6040516101279190610601565b60405180910390f35b61014a600480360381019061014591906104b9565b610307565b6040516101579190610531565b60405180910390f35b61017a600480360381019061017591906104b9565b610371565b6040516101879190610531565b60405180910390f35b610198610390565b005b6101a26103fc565b005b6101ac61043b565b005b5f81908060018154018082558091505060019003905f5260205f20015f909190919091505550565b5f80549050821061021c576040517f08c379a00000000000000000000000000000000000000000000000000000000081526004016102139061067b565b60405180910390fd5b805f83815481106102305761022f610699565b5b905f5260205f2001819055505050565b5f5f80549050905090565b5f805490508110610291576040517f08c379a000000000000000000000000000000000000000000000000000000000815260040161028890610710565b60405180910390fd5b5f81815481106102a4576102a3610699565b5b905f5260205f20015f905550565b60605f8054806020026020016040519081016040528092919081815260200182805480156102fd57602002820191905f5260205f20905b8154815260200190600101908083116102e9575b5050505050905090565b5f5f80549050821061034e576040517f08c379a00000000000000000000000000000000000000000000000000000000081526004016103459061067b565b60405180910390fd5b5f828154811061036157610360610699565b5b905f5260205f2001549050919050565b5f818154811061037f575f80fd5b905f5260205f20015f915090505481565b5f5f80549050116103d6576040517f08c379a00000000000000000000000000000000000000000000000000000000081526004016103cd90610778565b60405180910390fd5b5f8054806103e7576103e6610796565b5b600190038181905f5260205f20015f90559055565b5f5f90505b5f80549050811015610438575f81815481106104205761041f610699565b5b905f5260205f20015f90558080600101915050610401565b50565b5f5f6104479190610449565b565b5080545f8255905f5260205f20908101906104649190610467565b50565b5b8082111561047e575f815f905550600101610468565b5090565b5f5ffd5b5f819050919050565b61049881610486565b81146104a2575f5ffd5b50565b5f813590506104b38161048f565b92915050565b5f602082840312156104ce576104cd610482565b5b5f6104db848285016104a5565b91505092915050565b5f5f604083850312156104fa576104f9610482565b5b5f610507858286016104a5565b9250506020610518858286016104a5565b9150509250929050565b61052b81610486565b82525050565b5f6020820190506105445f830184610522565b92915050565b5f81519050919050565b5f82825260208201905092915050565b5f819050602082019050919050565b61057c81610486565b82525050565b5f61058d8383610573565b60208301905092915050565b5f602082019050919050565b5f6105af8261054a565b6105b98185610554565b93506105c483610564565b805f5b838110156105f45781516105db8882610582565b97506105e683610599565b9250506001810190506105c7565b5085935050505092915050565b5f6020820190508181035f83015261061981846105a5565b905092915050565b5f82825260208201905092915050565b7f496e646578206f7574206f6620626f756e6400000000000000000000000000005f82015250565b5f610665601283610621565b915061067082610631565b602082019050919050565b5f6020820190508181035f83015261069281610659565b9050919050565b7f4e487b71000000000000000000000000000000000000000000000000000000005f52603260045260245ffd5b7f696e646578206f7574206f6620626f756e6473000000000000000000000000005f82015250565b5f6106fa601383610621565b9150610705826106c6565b602082019050919050565b5f6020820190508181035f830152610727816106ee565b9050919050565b7f417272617920697320656d7074790000000000000000000000000000000000005f82015250565b5f610762600e83610621565b915061076d8261072e565b602082019050919050565b5f6020820190508181035f83015261078f81610756565b9050919050565b7f4e487b71000000000000000000000000000000000000000000000000000000005f52603160045260245ffdfea26469706673582212209eefb83e0679a7e3f75d4836af9a53c2064986a4676d856572a85437b4a8e7ec64736f6c634300081e0033",
					"opcodes": "PUSH1 0x80 PUSH1 0x40 MSTORE CALLVALUE DUP1 ISZERO PUSH1 0xE JUMPI PUSH0 PUSH0 REVERT JUMPDEST POP PUSH2 0x7F9 DUP1 PUSH2 0x1C PUSH0 CODECOPY PUSH0 RETURN INVALID PUSH1 0x80 PUSH1 0x40 MSTORE CALLVALUE DUP1 ISZERO PUSH2 0xF JUMPI PUSH0 PUSH0 REVERT JUMPDEST POP PUSH1 0x4 CALLDATASIZE LT PUSH2 0x9C JUMPI PUSH0 CALLDATALOAD PUSH1 0xE0 SHR DUP1 PUSH4 0x9507D39A GT PUSH2 0x64 JUMPI DUP1 PUSH4 0x9507D39A EQ PUSH2 0x130 JUMPI DUP1 PUSH4 0x9A9BDCA7 EQ PUSH2 0x160 JUMPI DUP1 PUSH4 0xD092E186 EQ PUSH2 0x190 JUMPI DUP1 PUSH4 0xE103AEF5 EQ PUSH2 0x19A JUMPI DUP1 PUSH4 0xE80B7AB6 EQ PUSH2 0x1A4 JUMPI PUSH2 0x9C JUMP JUMPDEST DUP1 PUSH4 0x1003E2D2 EQ PUSH2 0xA0 JUMPI DUP1 PUSH4 0x1AB06EE5 EQ PUSH2 0xBC JUMPI DUP1 PUSH4 0x1F7B6D32 EQ PUSH2 0xD8 JUMPI DUP1 PUSH4 0x310BD74B EQ PUSH2 0xF6 JUMPI DUP1 PUSH4 0x53ED5143 EQ PUSH2 0x112 JUMPI JUMPDEST PUSH0 PUSH0 REVERT JUMPDEST PUSH2 0xBA PUSH1 0x4 DUP1 CALLDATASIZE SUB DUP2 ADD SWAP1 PUSH2 0xB5 SWAP2 SWAP1 PUSH2 0x4B9 JUMP JUMPDEST PUSH2 0x1AE JUMP JUMPDEST STOP JUMPDEST PUSH2 0xD6 PUSH1 0x4 DUP1 CALLDATASIZE SUB DUP2 ADD SWAP1 PUSH2 0xD1 SWAP2 SWAP1 PUSH2 0x4E4 JUMP JUMPDEST PUSH2 0x1D6 JUMP JUMPDEST STOP JUMPDEST PUSH2 0xE0 PUSH2 0x240 JUMP JUMPDEST PUSH1 0x40 MLOAD PUSH2 0xED SWAP2 SWAP1 PUSH2 0x531 JUMP JUMPDEST PUSH1 0x40 MLOAD DUP1 SWAP2 SUB SWAP1 RETURN JUMPDEST PUSH2 0x110 PUSH1 0x4 DUP1 CALLDATASIZE SUB DUP2 ADD SWAP1 PUSH2 0x10B SWAP2 SWAP1 PUSH2 0x4B9 JUMP JUMPDEST PUSH2 0x24B JUMP JUMPDEST STOP JUMPDEST PUSH2 0x11A PUSH2 0x2B2 JUMP JUMPDEST PUSH1 0x40 MLOAD PUSH2 0x127 SWAP2 SWAP1 PUSH2 0x601 JUMP JUMPDEST PUSH1 0x40 MLOAD DUP1 SWAP2 SUB SWAP1 RETURN JUMPDEST PUSH2 0x14A PUSH1 0x4 DUP1 CALLDATASIZE SUB DUP2 ADD SWAP1 PUSH2 0x145 SWAP2 SWAP1 PUSH2 0x4B9 JUMP JUMPDEST PUSH2 0x307 JUMP JUMPDEST PUSH1 0x40 MLOAD PUSH2 0x157 SWAP2 SWAP1 PUSH2 0x531 JUMP JUMPDEST PUSH1 0x40 MLOAD DUP1 SWAP2 SUB SWAP1 RETURN JUMPDEST PUSH2 0x17A PUSH1 0x4 DUP1 CALLDATASIZE SUB DUP2 ADD SWAP1 PUSH2 0x175 SWAP2 SWAP1 PUSH2 0x4B9 JUMP JUMPDEST PUSH2 0x371 JUMP JUMPDEST PUSH1 0x40 MLOAD PUSH2 0x187 SWAP2 SWAP1 PUSH2 0x531 JUMP JUMPDEST PUSH1 0x40 MLOAD DUP1 SWAP2 SUB SWAP1 RETURN JUMPDEST PUSH2 0x198 PUSH2 0x390 JUMP JUMPDEST STOP JUMPDEST PUSH2 0x1A2 PUSH2 0x3FC JUMP JUMPDEST STOP JUMPDEST PUSH2 0x1AC PUSH2 0x43B JUMP JUMPDEST STOP JUMPDEST PUSH0 DUP2 SWAP1 DUP1 PUSH1 0x1 DUP2 SLOAD ADD DUP1 DUP3 SSTORE DUP1 SWAP2 POP POP PUSH1 0x1 SWAP1 SUB SWAP1 PUSH0 MSTORE PUSH1 0x20 PUSH0 KECCAK256 ADD PUSH0 SWAP1 SWAP2 SWAP1 SWAP2 SWAP1 SWAP2 POP SSTORE POP JUMP JUMPDEST PUSH0 DUP1 SLOAD SWAP1 POP DUP3 LT PUSH2 0x21C JUMPI PUSH1 0x40 MLOAD PUSH32 0x8C379A000000000000000000000000000000000000000000000000000000000 DUP2 MSTORE PUSH1 0x4 ADD PUSH2 0x213 SWAP1 PUSH2 0x67B JUMP JUMPDEST PUSH1 0x40 MLOAD DUP1 SWAP2 SUB SWAP1 REVERT JUMPDEST DUP1 PUSH0 DUP4 DUP2 SLOAD DUP2 LT PUSH2 0x230 JUMPI PUSH2 0x22F PUSH2 0x699 JUMP JUMPDEST JUMPDEST SWAP1 PUSH0 MSTORE PUSH1 0x20 PUSH0 KECCAK256 ADD DUP2 SWAP1 SSTORE POP POP POP JUMP JUMPDEST PUSH0 PUSH0 DUP1 SLOAD SWAP1 POP SWAP1 POP SWAP1 JUMP JUMPDEST PUSH0 DUP1 SLOAD SWAP1 POP DUP2 LT PUSH2 0x291 JUMPI PUSH1 0x40 MLOAD PUSH32 0x8C379A000000000000000000000000000000000000000000000000000000000 DUP2 MSTORE PUSH1 0x4 ADD PUSH2 0x288 SWAP1 PUSH2 0x710 JUMP JUMPDEST PUSH1 0x40 MLOAD DUP1 SWAP2 SUB SWAP1 REVERT JUMPDEST PUSH0 DUP2 DUP2 SLOAD DUP2 LT PUSH2 0x2A4 JUMPI PUSH2 0x2A3 PUSH2 0x699 JUMP JUMPDEST JUMPDEST SWAP1 PUSH0 MSTORE PUSH1 0x20 PUSH0 KECCAK256 ADD PUSH0 SWAP1 SSTORE POP JUMP JUMPDEST PUSH1 0x60 PUSH0 DUP1 SLOAD DUP1 PUSH1 0x20 MUL PUSH1 0x20 ADD PUSH1 0x40 MLOAD SWAP1 DUP2 ADD PUSH1 0x40 MSTORE DUP1 SWAP3 SWAP2 SWAP1 DUP2 DUP2 MSTORE PUSH1 0x20 ADD DUP3 DUP1 SLOAD DUP1 ISZERO PUSH2 0x2FD JUMPI PUSH1 0x20 MUL DUP3 ADD SWAP2 SWAP1 PUSH0 MSTORE PUSH1 0x20 PUSH0 KECCAK256 SWAP1 JUMPDEST DUP2 SLOAD DUP2 MSTORE PUSH1 0x20 ADD SWAP1 PUSH1 0x1 ADD SWAP1 DUP1 DUP4 GT PUSH2 0x2E9 JUMPI JUMPDEST POP POP POP POP POP SWAP1 POP SWAP1 JUMP JUMPDEST PUSH0 PUSH0 DUP1 SLOAD SWAP1 POP DUP3 LT PUSH2 0x34E JUMPI PUSH1 0x40 MLOAD PUSH32 0x8C379A000000000000000000000000000000000000000000000000000000000 DUP2 MSTORE PUSH1 0x4 ADD PUSH2 0x345 SWAP1 PUSH2 0x67B JUMP JUMPDEST PUSH1 0x40 MLOAD DUP1 SWAP2 SUB SWAP1 REVERT JUMPDEST PUSH0 DUP3 DUP2 SLOAD DUP2 LT PUSH2 0x361 JUMPI PUSH2 0x360 PUSH2 0x699 JUMP JUMPDEST JUMPDEST SWAP1 PUSH0 MSTORE PUSH1 0x20 PUSH0 KECCAK256 ADD SLOAD SWAP1 POP SWAP2 SWAP1 POP JUMP JUMPDEST PUSH0 DUP2 DUP2 SLOAD DUP2 LT PUSH2 0x37F JUMPI PUSH0 DUP1 REVERT JUMPDEST SWAP1 PUSH0 MSTORE PUSH1 0x20 PUSH0 KECCAK256 ADD PUSH0 SWAP2 POP SWAP1 POP SLOAD DUP2 JUMP JUMPDEST PUSH0 PUSH0 DUP1 SLOAD SWAP1 POP GT PUSH2 0x3D6 JUMPI PUSH1 0x40 MLOAD PUSH32 0x8C379A000000000000000000000000000000000000000000000000000000000 DUP2 MSTORE PUSH1 0x4 ADD PUSH2 0x3CD SWAP1 PUSH2 0x778 JUMP JUMPDEST PUSH1 0x40 MLOAD DUP1 SWAP2 SUB SWAP1 REVERT JUMPDEST PUSH0 DUP1 SLOAD DUP1 PUSH2 0x3E7 JUMPI PUSH2 0x3E6 PUSH2 0x796 JUMP JUMPDEST JUMPDEST PUSH1 0x1 SWAP1 SUB DUP2 DUP2 SWAP1 PUSH0 MSTORE PUSH1 0x20 PUSH0 KECCAK256 ADD PUSH0 SWAP1 SSTORE SWAP1 SSTORE JUMP JUMPDEST PUSH0 PUSH0 SWAP1 POP JUMPDEST PUSH0 DUP1 SLOAD SWAP1 POP DUP2 LT ISZERO PUSH2 0x438 JUMPI PUSH0 DUP2 DUP2 SLOAD DUP2 LT PUSH2 0x420 JUMPI PUSH2 0x41F PUSH2 0x699 JUMP JUMPDEST JUMPDEST SWAP1 PUSH0 MSTORE PUSH1 0x20 PUSH0 KECCAK256 ADD PUSH0 SWAP1 SSTORE DUP1 DUP1 PUSH1 0x1 ADD SWAP2 POP POP PUSH2 0x401 JUMP JUMPDEST POP JUMP JUMPDEST PUSH0 PUSH0 PUSH2 0x447 SWAP2 SWAP1 PUSH2 0x449 JUMP JUMPDEST JUMP JUMPDEST POP DUP1 SLOAD PUSH0 DUP3 SSTORE SWAP1 PUSH0 MSTORE PUSH1 0x20 PUSH0 KECCAK256 SWAP1 DUP2 ADD SWAP1 PUSH2 0x464 SWAP2 SWAP1 PUSH2 0x467 JUMP JUMPDEST POP JUMP JUMPDEST JUMPDEST DUP1 DUP3 GT ISZERO PUSH2 0x47E JUMPI PUSH0 DUP2 PUSH0 SWAP1 SSTORE POP PUSH1 0x1 ADD PUSH2 0x468 JUMP JUMPDEST POP SWAP1 JUMP JUMPDEST PUSH0 PUSH0 REVERT JUMPDEST PUSH0 DUP2 SWAP1 POP SWAP2 SWAP1 POP JUMP JUMPDEST PUSH2 0x498 DUP2 PUSH2 0x486 JUMP JUMPDEST DUP2 EQ PUSH2 0x4A2 JUMPI PUSH0 PUSH0 REVERT JUMPDEST POP JUMP JUMPDEST PUSH0 DUP2 CALLDATALOAD SWAP1 POP PUSH2 0x4B3 DUP2 PUSH2 0x48F JUMP JUMPDEST SWAP3 SWAP2 POP POP JUMP JUMPDEST PUSH0 PUSH1 0x20 DUP3 DUP5 SUB SLT ISZERO PUSH2 0x4CE JUMPI PUSH2 0x4CD PUSH2 0x482 JUMP JUMPDEST JUMPDEST PUSH0 PUSH2 0x4DB DUP5 DUP3 DUP6 ADD PUSH2 0x4A5 JUMP JUMPDEST SWAP2 POP POP SWAP3 SWAP2 POP POP JUMP JUMPDEST PUSH0 PUSH0 PUSH1 0x40 DUP4 DUP6 SUB SLT ISZERO PUSH2 0x4FA JUMPI PUSH2 0x4F9 PUSH2 0x482 JUMP JUMPDEST JUMPDEST PUSH0 PUSH2 0x507 DUP6 DUP3 DUP7 ADD PUSH2 0x4A5 JUMP JUMPDEST SWAP3 POP POP PUSH1 0x20 PUSH2 0x518 DUP6 DUP3 DUP7 ADD PUSH2 0x4A5 JUMP JUMPDEST SWAP2 POP POP SWAP3 POP SWAP3 SWAP1 POP JUMP JUMPDEST PUSH2 0x52B DUP2 PUSH2 0x486 JUMP JUMPDEST DUP3 MSTORE POP POP JUMP JUMPDEST PUSH0 PUSH1 0x20 DUP3 ADD SWAP1 POP PUSH2 0x544 PUSH0 DUP4 ADD DUP5 PUSH2 0x522 JUMP JUMPDEST SWAP3 SWAP2 POP POP JUMP JUMPDEST PUSH0 DUP2 MLOAD SWAP1 POP SWAP2 SWAP1 POP JUMP JUMPDEST PUSH0 DUP3 DUP3 MSTORE PUSH1 0x20 DUP3 ADD SWAP1 POP SWAP3 SWAP2 POP POP JUMP JUMPDEST PUSH0 DUP2 SWAP1 POP PUSH1 0x20 DUP3 ADD SWAP1 POP SWAP2 SWAP1 POP JUMP JUMPDEST PUSH2 0x57C DUP2 PUSH2 0x486 JUMP JUMPDEST DUP3 MSTORE POP POP JUMP JUMPDEST PUSH0 PUSH2 0x58D DUP4 DUP4 PUSH2 0x573 JUMP JUMPDEST PUSH1 0x20 DUP4 ADD SWAP1 POP SWAP3 SWAP2 POP POP JUMP JUMPDEST PUSH0 PUSH1 0x20 DUP3 ADD SWAP1 POP SWAP2 SWAP1 POP JUMP JUMPDEST PUSH0 PUSH2 0x5AF DUP3 PUSH2 0x54A JUMP JUMPDEST PUSH2 0x5B9 DUP2 DUP6 PUSH2 0x554 JUMP JUMPDEST SWAP4 POP PUSH2 0x5C4 DUP4 PUSH2 0x564 JUMP JUMPDEST DUP1 PUSH0 JUMPDEST DUP4 DUP2 LT ISZERO PUSH2 0x5F4 JUMPI DUP2 MLOAD PUSH2 0x5DB DUP9 DUP3 PUSH2 0x582 JUMP JUMPDEST SWAP8 POP PUSH2 0x5E6 DUP4 PUSH2 0x599 JUMP JUMPDEST SWAP3 POP POP PUSH1 0x1 DUP2 ADD SWAP1 POP PUSH2 0x5C7 JUMP JUMPDEST POP DUP6 SWAP4 POP POP POP POP SWAP3 SWAP2 POP POP JUMP JUMPDEST PUSH0 PUSH1 0x20 DUP3 ADD SWAP1 POP DUP2 DUP2 SUB PUSH0 DUP4 ADD MSTORE PUSH2 0x619 DUP2 DUP5 PUSH2 0x5A5 JUMP JUMPDEST SWAP1 POP SWAP3 SWAP2 POP POP JUMP JUMPDEST PUSH0 DUP3 DUP3 MSTORE PUSH1 0x20 DUP3 ADD SWAP1 POP SWAP3 SWAP2 POP POP JUMP JUMPDEST PUSH32 0x496E646578206F7574206F6620626F756E640000000000000000000000000000 PUSH0 DUP3 ADD MSTORE POP JUMP JUMPDEST PUSH0 PUSH2 0x665 PUSH1 0x12 DUP4 PUSH2 0x621 JUMP JUMPDEST SWAP2 POP PUSH2 0x670 DUP3 PUSH2 0x631 JUMP JUMPDEST PUSH1 0x20 DUP3 ADD SWAP1 POP SWAP2 SWAP1 POP JUMP JUMPDEST PUSH0 PUSH1 0x20 DUP3 ADD SWAP1 POP DUP2 DUP2 SUB PUSH0 DUP4 ADD MSTORE PUSH2 0x692 DUP2 PUSH2 0x659 JUMP JUMPDEST SWAP1 POP SWAP2 SWAP1 POP JUMP JUMPDEST PUSH32 0x4E487B7100000000000000000000000000000000000000000000000000000000 PUSH0 MSTORE PUSH1 0x32 PUSH1 0x4 MSTORE PUSH1 0x24 PUSH0 REVERT JUMPDEST PUSH32 0x696E646578206F7574206F6620626F756E647300000000000000000000000000 PUSH0 DUP3 ADD MSTORE POP JUMP JUMPDEST PUSH0 PUSH2 0x6FA PUSH1 0x13 DUP4 PUSH2 0x621 JUMP JUMPDEST SWAP2 POP PUSH2 0x705 DUP3 PUSH2 0x6C6 JUMP JUMPDEST PUSH1 0x20 DUP3 ADD SWAP1 POP SWAP2 SWAP1 POP JUMP JUMPDEST PUSH0 PUSH1 0x20 DUP3 ADD SWAP1 POP DUP2 DUP2 SUB PUSH0 DUP4 ADD MSTORE PUSH2 0x727 DUP2 PUSH2 0x6EE JUMP JUMPDEST SWAP1 POP SWAP2 SWAP1 POP JUMP JUMPDEST PUSH32 0x417272617920697320656D707479000000000000000000000000000000000000 PUSH0 DUP3 ADD MSTORE POP JUMP JUMPDEST PUSH0 PUSH2 0x762 PUSH1 0xE DUP4 PUSH2 0x621 JUMP JUMPDEST SWAP2 POP PUSH2 0x76D DUP3 PUSH2 0x72E JUMP JUMPDEST PUSH1 0x20 DUP3 ADD SWAP1 POP SWAP2 SWAP1 POP JUMP JUMPDEST PUSH0 PUSH1 0x20 DUP3 ADD SWAP1 POP DUP2 DUP2 SUB PUSH0 DUP4 ADD MSTORE PUSH2 0x78F DUP2 PUSH2 0x756 JUMP JUMPDEST SWAP1 POP SWAP2 SWAP1 POP JUMP JUMPDEST PUSH32 0x4E487B7100000000000000000000000000000000000000000000000000000000 PUSH0 MSTORE PUSH1 0x31 PUSH1 0x4 MSTORE PUSH1 0x24 PUSH0 REVERT INVALID LOG2 PUSH5 0x6970667358 0x22 SLT KECCAK256 SWAP15 0xEF 0xB8 RETURNDATACOPY MOD PUSH26 0xA7E3F75D4836AF9A53C2064986A4676D856572A85437B4A8E7EC PUSH5 0x736F6C6343 STOP ADDMOD 0x1E STOP CALLER "
				},
				"gasEstimates": {
					"creation": {
						"codeDepositCost": "408200",
						"executionCost": "441",
						"totalCost": "408641"
					},
					"external": {
						"add(uint256)": "46821",
						"clearArray()": "infinite",
						"dynamicArray(uint256)": "infinite",
						"get(uint256)": "infinite",
						"getAll()": "infinite",
						"length()": "2484",
						"removeLast()": "31613",
						"reset(uint256)": "9783",
						"resetAll()": "infinite",
						"set(uint256,uint256)": "infinite"
					}
				},
				"methodIdentifiers": {
					"add(uint256)": "1003e2d2",
					"clearArray()": "e80b7ab6",
					"dynamicArray(uint256)": "9a9bdca7",
					"get(uint256)": "9507d39a",
					"getAll()": "53ed5143",
					"length()": "1f7b6d32",
					"removeLast()": "d092e186",
					"reset(uint256)": "310bd74b",
					"resetAll()": "e103aef5",
					"set(uint256,uint256)": "1ab06ee5"
				}
			},
			"storageLayout": {
				"storage": [
					{
						"astId": 4,
						"contract": "contracts/19-dynamic-size-array.sol:DynamicArrayMaster",
						"label": "dynamicArray",
						"offset": 0,
						"slot": "0",
						"type": "t_array(t_uint256)dyn_storage"
					}
				],
				"types": {
					"t_array(t_uint256)dyn_storage": {
						"base": "t_uint256",
						"encoding": "dynamic_array",
						"label": "uint256[]",
						"numberOfBytes": "32"
					},
					"t_uint256": {
						"encoding": "inplace",
						"label": "uint256",
						"numberOfBytes": "32"
					}
				}
			},
			"userdoc": {
				"kind": "user",
				"methods": {},
				"version": 1
			}
		}
	}
}