{
	"contracts/23-enums-advanced-version.sol": {
		"EnumDemo": {
			"abi": [
				{
					"inputs": [],
					"name": "cancel",
					"outputs": [],
					"stateMutability": "nonpayable",
					"type": "function"
				},
				{
					"inputs": [],
					"name": "getMyStatusString",
					"outputs": [
						{
							"internalType": "string",
							"name": "",
							"type": "string"
						}
					],
					"stateMutability": "view",
					"type": "function"
				},
				{
					"inputs": [],
					"name": "getStatus",
					"outputs": [
						{
							"internalType": "enum EnumDemo.Status",
							"name": "",
							"type": "uint8"
						}
					],
					"stateMutability": "view",
					"type": "function"
				},
				{
					"inputs": [],
					"name": "getStatusNumber",
					"outputs": [
						{
							"internalType": "uint8",
							"name": "",
							"type": "uint8"
						}
					],
					"stateMutability": "view",
					"type": "function"
				},
				{
					"inputs": [],
					"name": "getStatusString",
					"outputs": [
						{
							"internalType": "string",
							"name": "",
							"type": "string"
						}
					],
					"stateMutability": "view",
					"type": "function"
				},
				{
					"inputs": [
						{
							"internalType": "address",
							"name": "",
							"type": "address"
						}
					],
					"name": "orderStatus",
					"outputs": [
						{
							"internalType": "enum EnumDemo.Status",
							"name": "",
							"type": "uint8"
						}
					],
					"stateMutability": "view",
					"type": "function"
				},
				{
					"inputs": [],
					"name": "reject",
					"outputs": [],
					"stateMutability": "nonpayable",
					"type": "function"
				},
				{
					"inputs": [],
					"name": "safeCancel",
					"outputs": [],
					"stateMutability": "nonpayable",
					"type": "function"
				},
				{
					"inputs": [
						{
							"internalType": "uint8",
							"name": "value",
							"type": "uint8"
						}
					],
					"name": "setByNumber",
					"outputs": [],
					"stateMutability": "nonpayable",
					"type": "function"
				},
				{
					"inputs": [
						{
							"internalType": "enum EnumDemo.Status",
							"name": "_status",
							"type": "uint8"
						}
					],
					"name": "setMyStatus",
					"outputs": [],
					"stateMutability": "nonpayable",
					"type": "function"
				},
				{
					"inputs": [
						{
							"internalType": "enum EnumDemo.Status",
							"name": "_status",
							"type": "uint8"
						}
					],
					"name": "setStatus",
					"outputs": [],
					"stateMutability": "nonpayable",
					"type": "function"
				},
				{
					"inputs": [],
					"name": "status",
					"outputs": [
						{
							"internalType": "enum EnumDemo.Status",
							"name": "",
							"type": "uint8"
						}
					],
					"stateMutability": "view",
					"type": "function"
				}
			],
			"devdoc": {
				"kind": "dev",
				"methods": {},
				"version": 1
			},
			"evm": {
				"assembly": "    /* \"contracts/23-enums-advanced-version.sol\":64:2526  contract EnumDemo {... */\n  mstore(0x40, 0x80)\n  callvalue\n  dup1\n  iszero\n  tag_1\n  jumpi\n  revert(0x00, 0x00)\ntag_1:\n  pop\n  dataSize(sub_0)\n  dup1\n  dataOffset(sub_0)\n  0x00\n  codecopy\n  0x00\n  return\nstop\n\nsub_0: assembly {\n        /* \"contracts/23-enums-advanced-version.sol\":64:2526  contract EnumDemo {... */\n      mstore(0x40, 0x80)\n      callvalue\n      dup1\n      iszero\n      tag_1\n      jumpi\n      revert(0x00, 0x00)\n    tag_1:\n      pop\n      jumpi(tag_2, lt(calldatasize, 0x04))\n      shr(0xe0, calldataload(0x00))\n      dup1\n      0x704fa31a\n      gt\n      tag_15\n      jumpi\n      dup1\n      0x704fa31a\n      eq\n      tag_9\n      jumpi\n      dup1\n      0x73718162\n      eq\n      tag_10\n      jumpi\n      dup1\n      0x7b07126e\n      eq\n      tag_11\n      jumpi\n      dup1\n      0x7fa1ffe4\n      eq\n      tag_12\n      jumpi\n      dup1\n      0x8e139f91\n      eq\n      tag_13\n      jumpi\n      dup1\n      0xea8a1af0\n      eq\n      tag_14\n      jumpi\n      jump(tag_2)\n    tag_15:\n      dup1\n      0x200d2ed2\n      eq\n      tag_3\n      jumpi\n      dup1\n      0x2c43c418\n      eq\n      tag_4\n      jumpi\n      dup1\n      0x2dbac66e\n      eq\n      tag_5\n      jumpi\n      dup1\n      0x2e49d78b\n      eq\n      tag_6\n      jumpi\n      dup1\n      0x4dc415de\n      eq\n      tag_7\n      jumpi\n      dup1\n      0x4e69d560\n      eq\n      tag_8\n      jumpi\n    tag_2:\n      revert(0x00, 0x00)\n        /* \"contracts/23-enums-advanced-version.sol\":249:269  Status public status */\n    tag_3:\n      tag_16\n      tag_17\n      jump\t// in\n    tag_16:\n      mload(0x40)\n      tag_18\n      swap2\n      swap1\n      tag_19\n      jump\t// in\n    tag_18:\n      mload(0x40)\n      dup1\n      swap2\n      sub\n      swap1\n      return\n        /* \"contracts/23-enums-advanced-version.sol\":1726:1771  mapping(address => Status) public orderStatus */\n    tag_4:\n      tag_20\n      0x04\n      dup1\n      calldatasize\n      sub\n      dup2\n      add\n      swap1\n      tag_21\n      swap2\n      swap1\n      tag_22\n      jump\t// in\n    tag_21:\n      tag_23\n      jump\t// in\n    tag_20:\n      mload(0x40)\n      tag_24\n      swap2\n      swap1\n      tag_19\n      jump\t// in\n    tag_24:\n      mload(0x40)\n      dup1\n      swap2\n      sub\n      swap1\n      return\n        /* \"contracts/23-enums-advanced-version.sol\":1532:1679  function safeCancel() public {... */\n    tag_5:\n      tag_25\n      tag_26\n      jump\t// in\n    tag_25:\n      stop\n        /* \"contracts/23-enums-advanced-version.sol\":458:535  function setStatus(Status _status) public {... */\n    tag_6:\n      tag_27\n      0x04\n      dup1\n      calldatasize\n      sub\n      dup2\n      add\n      swap1\n      tag_28\n      swap2\n      swap1\n      tag_29\n      jump\t// in\n    tag_28:\n      tag_30\n      jump\t// in\n    tag_27:\n      stop\n        /* \"contracts/23-enums-advanced-version.sol\":578:646  function reject() public {... */\n    tag_7:\n      tag_31\n      tag_32\n      jump\t// in\n    tag_31:\n      stop\n        /* \"contracts/23-enums-advanced-version.sol\":309:391  function getStatus() public view returns (Status) {... */\n    tag_8:\n      tag_33\n      tag_34\n      jump\t// in\n    tag_33:\n      mload(0x40)\n      tag_35\n      swap2\n      swap1\n      tag_19\n      jump\t// in\n    tag_35:\n      mload(0x40)\n      dup1\n      swap2\n      sub\n      swap1\n      return\n        /* \"contracts/23-enums-advanced-version.sol\":960:1054  function getStatusNumber() public view returns (uint8) {... */\n    tag_9:\n      tag_36\n      tag_37\n      jump\t// in\n    tag_36:\n      mload(0x40)\n      tag_38\n      swap2\n      swap1\n      tag_39\n      jump\t// in\n    tag_38:\n      mload(0x40)\n      dup1\n      swap2\n      sub\n      swap1\n      return\n        /* \"contracts/23-enums-advanced-version.sol\":1884:2297  function getMyStatusString() public view returns (string memory) {... */\n    tag_10:\n      tag_40\n      tag_41\n      jump\t// in\n    tag_40:\n      mload(0x40)\n      tag_42\n      swap2\n      swap1\n      tag_43\n      jump\t// in\n    tag_42:\n      mload(0x40)\n      dup1\n      swap2\n      sub\n      swap1\n      return\n        /* \"contracts/23-enums-advanced-version.sol\":1091:1476  function getStatusString() public view returns (string memory) {... */\n    tag_11:\n      tag_44\n      tag_45\n      jump\t// in\n    tag_44:\n      mload(0x40)\n      tag_46\n      swap2\n      swap1\n      tag_43\n      jump\t// in\n    tag_46:\n      mload(0x40)\n      dup1\n      swap2\n      sub\n      swap1\n      return\n        /* \"contracts/23-enums-advanced-version.sol\":1780:1876  function setMyStatus(Status _status) public {... */\n    tag_12:\n      tag_47\n      0x04\n      dup1\n      calldatasize\n      sub\n      dup2\n      add\n      swap1\n      tag_48\n      swap2\n      swap1\n      tag_29\n      jump\t// in\n    tag_48:\n      tag_49\n      jump\t// in\n    tag_47:\n      stop\n        /* \"contracts/23-enums-advanced-version.sol\":794:922  function setByNumber(uint8 value) public {... */\n    tag_13:\n      tag_50\n      0x04\n      dup1\n      calldatasize\n      sub\n      dup2\n      add\n      swap1\n      tag_51\n      swap2\n      swap1\n      tag_52\n      jump\t// in\n    tag_51:\n      tag_53\n      jump\t// in\n    tag_50:\n      stop\n        /* \"contracts/23-enums-advanced-version.sol\":654:720  function cancel() public {... */\n    tag_14:\n      tag_54\n      tag_55\n      jump\t// in\n    tag_54:\n      stop\n        /* \"contracts/23-enums-advanced-version.sol\":249:269  Status public status */\n    tag_17:\n      0x00\n      0x00\n      swap1\n      sload\n      swap1\n      0x0100\n      exp\n      swap1\n      div\n      0xff\n      and\n      dup2\n      jump\t// out\n        /* \"contracts/23-enums-advanced-version.sol\":1726:1771  mapping(address => Status) public orderStatus */\n    tag_23:\n      mstore(0x20, 0x01)\n      dup1\n      0x00\n      mstore\n      keccak256(0x00, 0x40)\n      0x00\n      swap2\n      pop\n      sload\n      swap1\n      0x0100\n      exp\n      swap1\n      div\n      0xff\n      and\n      dup2\n      jump\t// out\n        /* \"contracts/23-enums-advanced-version.sol\":1532:1679  function safeCancel() public {... */\n    tag_26:\n        /* \"contracts/23-enums-advanced-version.sol\":1590:1604  Status.Shipped */\n      0x01\n        /* \"contracts/23-enums-advanced-version.sol\":1580:1604  status != Status.Shipped */\n      0x04\n      dup2\n      gt\n      iszero\n      tag_57\n      jumpi\n      tag_58\n      tag_59\n      jump\t// in\n    tag_58:\n    tag_57:\n        /* \"contracts/23-enums-advanced-version.sol\":1580:1586  status */\n      0x00\n      0x00\n      swap1\n      sload\n      swap1\n      0x0100\n      exp\n      swap1\n      div\n      0xff\n      and\n        /* \"contracts/23-enums-advanced-version.sol\":1580:1604  status != Status.Shipped */\n      0x04\n      dup2\n      gt\n      iszero\n      tag_60\n      jumpi\n      tag_61\n      tag_59\n      jump\t// in\n    tag_61:\n    tag_60:\n      sub\n        /* \"contracts/23-enums-advanced-version.sol\":1572:1638  require(status != Status.Shipped, \" Cannot cancel after shipping\") */\n      tag_62\n      jumpi\n      mload(0x40)\n      0x08c379a000000000000000000000000000000000000000000000000000000000\n      dup2\n      mstore\n      0x04\n      add\n      tag_63\n      swap1\n      tag_64\n      jump\t// in\n    tag_63:\n      mload(0x40)\n      dup1\n      swap2\n      sub\n      swap1\n      revert\n    tag_62:\n        /* \"contracts/23-enums-advanced-version.sol\":1658:1671  Status.Cancel */\n      0x04\n        /* \"contracts/23-enums-advanced-version.sol\":1649:1655  status */\n      0x00\n      0x00\n        /* \"contracts/23-enums-advanced-version.sol\":1649:1671  status = Status.Cancel */\n      0x0100\n      exp\n      dup2\n      sload\n      dup2\n      0xff\n      mul\n      not\n      and\n      swap1\n      dup4\n      0x04\n      dup2\n      gt\n      iszero\n      tag_65\n      jumpi\n      tag_66\n      tag_59\n      jump\t// in\n    tag_66:\n    tag_65:\n      mul\n      or\n      swap1\n      sstore\n      pop\n        /* \"contracts/23-enums-advanced-version.sol\":1532:1679  function safeCancel() public {... */\n      jump\t// out\n        /* \"contracts/23-enums-advanced-version.sol\":458:535  function setStatus(Status _status) public {... */\n    tag_30:\n        /* \"contracts/23-enums-advanced-version.sol\":520:527  _status */\n      dup1\n        /* \"contracts/23-enums-advanced-version.sol\":511:517  status */\n      0x00\n      0x00\n        /* \"contracts/23-enums-advanced-version.sol\":511:527  status = _status */\n      0x0100\n      exp\n      dup2\n      sload\n      dup2\n      0xff\n      mul\n      not\n      and\n      swap1\n      dup4\n      0x04\n      dup2\n      gt\n      iszero\n      tag_68\n      jumpi\n      tag_69\n      tag_59\n      jump\t// in\n    tag_69:\n    tag_68:\n      mul\n      or\n      swap1\n      sstore\n      pop\n        /* \"contracts/23-enums-advanced-version.sol\":458:535  function setStatus(Status _status) public {... */\n      pop\n      jump\t// out\n        /* \"contracts/23-enums-advanced-version.sol\":578:646  function reject() public {... */\n    tag_32:\n        /* \"contracts/23-enums-advanced-version.sol\":623:638  Status.Rejected */\n      0x02\n        /* \"contracts/23-enums-advanced-version.sol\":614:620  status */\n      0x00\n      0x00\n        /* \"contracts/23-enums-advanced-version.sol\":614:638  status = Status.Rejected */\n      0x0100\n      exp\n      dup2\n      sload\n      dup2\n      0xff\n      mul\n      not\n      and\n      swap1\n      dup4\n      0x04\n      dup2\n      gt\n      iszero\n      tag_71\n      jumpi\n      tag_72\n      tag_59\n      jump\t// in\n    tag_72:\n    tag_71:\n      mul\n      or\n      swap1\n      sstore\n      pop\n        /* \"contracts/23-enums-advanced-version.sol\":578:646  function reject() public {... */\n      jump\t// out\n        /* \"contracts/23-enums-advanced-version.sol\":309:391  function getStatus() public view returns (Status) {... */\n    tag_34:\n        /* \"contracts/23-enums-advanced-version.sol\":351:357  Status */\n      0x00\n        /* \"contracts/23-enums-advanced-version.sol\":377:383  status */\n      0x00\n      0x00\n      swap1\n      sload\n      swap1\n      0x0100\n      exp\n      swap1\n      div\n      0xff\n      and\n        /* \"contracts/23-enums-advanced-version.sol\":370:383  return status */\n      swap1\n      pop\n        /* \"contracts/23-enums-advanced-version.sol\":309:391  function getStatus() public view returns (Status) {... */\n      swap1\n      jump\t// out\n        /* \"contracts/23-enums-advanced-version.sol\":960:1054  function getStatusNumber() public view returns (uint8) {... */\n    tag_37:\n        /* \"contracts/23-enums-advanced-version.sol\":1008:1013  uint8 */\n      0x00\n        /* \"contracts/23-enums-advanced-version.sol\":1039:1045  status */\n      0x00\n      0x00\n      swap1\n      sload\n      swap1\n      0x0100\n      exp\n      swap1\n      div\n      0xff\n      and\n        /* \"contracts/23-enums-advanced-version.sol\":1033:1046  uint8(status) */\n      0x04\n      dup2\n      gt\n      iszero\n      tag_75\n      jumpi\n      tag_76\n      tag_59\n      jump\t// in\n    tag_76:\n    tag_75:\n        /* \"contracts/23-enums-advanced-version.sol\":1026:1046  return uint8(status) */\n      swap1\n      pop\n        /* \"contracts/23-enums-advanced-version.sol\":960:1054  function getStatusNumber() public view returns (uint8) {... */\n      swap1\n      jump\t// out\n        /* \"contracts/23-enums-advanced-version.sol\":1884:2297  function getMyStatusString() public view returns (string memory) {... */\n    tag_41:\n        /* \"contracts/23-enums-advanced-version.sol\":1934:1947  string memory */\n      0x60\n        /* \"contracts/23-enums-advanced-version.sol\":1960:1969  Status my */\n      0x00\n        /* \"contracts/23-enums-advanced-version.sol\":1972:1983  orderStatus */\n      0x01\n        /* \"contracts/23-enums-advanced-version.sol\":1972:1995  orderStatus[msg.sender] */\n      0x00\n        /* \"contracts/23-enums-advanced-version.sol\":1984:1994  msg.sender */\n      caller\n        /* \"contracts/23-enums-advanced-version.sol\":1972:1995  orderStatus[msg.sender] */\n      0xffffffffffffffffffffffffffffffffffffffff\n      and\n      0xffffffffffffffffffffffffffffffffffffffff\n      and\n      dup2\n      mstore\n      0x20\n      add\n      swap1\n      dup2\n      mstore\n      0x20\n      add\n      0x00\n      keccak256\n      0x00\n      swap1\n      sload\n      swap1\n      0x0100\n      exp\n      swap1\n      div\n      0xff\n      and\n        /* \"contracts/23-enums-advanced-version.sol\":1960:1995  Status my = orderStatus[msg.sender] */\n      swap1\n      pop\n        /* \"contracts/23-enums-advanced-version.sol\":2016:2030  Status.Pending */\n      0x00\n        /* \"contracts/23-enums-advanced-version.sol\":2010:2030  my == Status.Pending */\n      0x04\n      dup2\n      gt\n      iszero\n      tag_78\n      jumpi\n      tag_79\n      tag_59\n      jump\t// in\n    tag_79:\n    tag_78:\n        /* \"contracts/23-enums-advanced-version.sol\":2010:2012  my */\n      dup2\n        /* \"contracts/23-enums-advanced-version.sol\":2010:2030  my == Status.Pending */\n      0x04\n      dup2\n      gt\n      iszero\n      tag_80\n      jumpi\n      tag_81\n      tag_59\n      jump\t// in\n    tag_81:\n    tag_80:\n      sub\n        /* \"contracts/23-enums-advanced-version.sol\":2006:2048  if (my == Status.Pending) return \"Pending\" */\n      tag_82\n      jumpi\n        /* \"contracts/23-enums-advanced-version.sol\":2032:2048  return \"Pending\" */\n      mload(0x40)\n      dup1\n      0x40\n      add\n      0x40\n      mstore\n      dup1\n      0x07\n      dup2\n      mstore\n      0x20\n      add\n      0x50656e64696e6700000000000000000000000000000000000000000000000000\n      dup2\n      mstore\n      pop\n      swap2\n      pop\n      pop\n      jump(tag_77)\n        /* \"contracts/23-enums-advanced-version.sol\":2006:2048  if (my == Status.Pending) return \"Pending\" */\n    tag_82:\n        /* \"contracts/23-enums-advanced-version.sol\":2069:2083  Status.Shipped */\n      0x01\n        /* \"contracts/23-enums-advanced-version.sol\":2063:2083  my == Status.Shipped */\n      0x04\n      dup2\n      gt\n      iszero\n      tag_83\n      jumpi\n      tag_84\n      tag_59\n      jump\t// in\n    tag_84:\n    tag_83:\n        /* \"contracts/23-enums-advanced-version.sol\":2063:2065  my */\n      dup2\n        /* \"contracts/23-enums-advanced-version.sol\":2063:2083  my == Status.Shipped */\n      0x04\n      dup2\n      gt\n      iszero\n      tag_85\n      jumpi\n      tag_86\n      tag_59\n      jump\t// in\n    tag_86:\n    tag_85:\n      sub\n        /* \"contracts/23-enums-advanced-version.sol\":2059:2101  if (my == Status.Shipped) return \"Shipped\" */\n      tag_87\n      jumpi\n        /* \"contracts/23-enums-advanced-version.sol\":2085:2101  return \"Shipped\" */\n      mload(0x40)\n      dup1\n      0x40\n      add\n      0x40\n      mstore\n      dup1\n      0x07\n      dup2\n      mstore\n      0x20\n      add\n      0x5368697070656400000000000000000000000000000000000000000000000000\n      dup2\n      mstore\n      pop\n      swap2\n      pop\n      pop\n      jump(tag_77)\n        /* \"contracts/23-enums-advanced-version.sol\":2059:2101  if (my == Status.Shipped) return \"Shipped\" */\n    tag_87:\n        /* \"contracts/23-enums-advanced-version.sol\":2122:2137  Status.Rejected */\n      0x02\n        /* \"contracts/23-enums-advanced-version.sol\":2116:2137  my == Status.Rejected */\n      0x04\n      dup2\n      gt\n      iszero\n      tag_88\n      jumpi\n      tag_89\n      tag_59\n      jump\t// in\n    tag_89:\n    tag_88:\n        /* \"contracts/23-enums-advanced-version.sol\":2116:2118  my */\n      dup2\n        /* \"contracts/23-enums-advanced-version.sol\":2116:2137  my == Status.Rejected */\n      0x04\n      dup2\n      gt\n      iszero\n      tag_90\n      jumpi\n      tag_91\n      tag_59\n      jump\t// in\n    tag_91:\n    tag_90:\n      sub\n        /* \"contracts/23-enums-advanced-version.sol\":2112:2156  if (my == Status.Rejected) return \"Rejected\" */\n      tag_92\n      jumpi\n        /* \"contracts/23-enums-advanced-version.sol\":2139:2156  return \"Rejected\" */\n      mload(0x40)\n      dup1\n      0x40\n      add\n      0x40\n      mstore\n      dup1\n      0x08\n      dup2\n      mstore\n      0x20\n      add\n      0x52656a6563746564000000000000000000000000000000000000000000000000\n      dup2\n      mstore\n      pop\n      swap2\n      pop\n      pop\n      jump(tag_77)\n        /* \"contracts/23-enums-advanced-version.sol\":2112:2156  if (my == Status.Rejected) return \"Rejected\" */\n    tag_92:\n        /* \"contracts/23-enums-advanced-version.sol\":2177:2192  Status.Accepted */\n      0x03\n        /* \"contracts/23-enums-advanced-version.sol\":2171:2192  my == Status.Accepted */\n      0x04\n      dup2\n      gt\n      iszero\n      tag_93\n      jumpi\n      tag_94\n      tag_59\n      jump\t// in\n    tag_94:\n    tag_93:\n        /* \"contracts/23-enums-advanced-version.sol\":2171:2173  my */\n      dup2\n        /* \"contracts/23-enums-advanced-version.sol\":2171:2192  my == Status.Accepted */\n      0x04\n      dup2\n      gt\n      iszero\n      tag_95\n      jumpi\n      tag_96\n      tag_59\n      jump\t// in\n    tag_96:\n    tag_95:\n      sub\n        /* \"contracts/23-enums-advanced-version.sol\":2167:2211  if (my == Status.Accepted) return \"Accepted\" */\n      tag_97\n      jumpi\n        /* \"contracts/23-enums-advanced-version.sol\":2194:2211  return \"Accepted\" */\n      mload(0x40)\n      dup1\n      0x40\n      add\n      0x40\n      mstore\n      dup1\n      0x08\n      dup2\n      mstore\n      0x20\n      add\n      0x4163636570746564000000000000000000000000000000000000000000000000\n      dup2\n      mstore\n      pop\n      swap2\n      pop\n      pop\n      jump(tag_77)\n        /* \"contracts/23-enums-advanced-version.sol\":2167:2211  if (my == Status.Accepted) return \"Accepted\" */\n    tag_97:\n        /* \"contracts/23-enums-advanced-version.sol\":2232:2245  Status.Cancel */\n      0x04\n        /* \"contracts/23-enums-advanced-version.sol\":2226:2245  my == Status.Cancel */\n      dup1\n      dup2\n      gt\n      iszero\n      tag_98\n      jumpi\n      tag_99\n      tag_59\n      jump\t// in\n    tag_99:\n    tag_98:\n        /* \"contracts/23-enums-advanced-version.sol\":2226:2228  my */\n      dup2\n        /* \"contracts/23-enums-advanced-version.sol\":2226:2245  my == Status.Cancel */\n      0x04\n      dup2\n      gt\n      iszero\n      tag_100\n      jumpi\n      tag_101\n      tag_59\n      jump\t// in\n    tag_101:\n    tag_100:\n      sub\n        /* \"contracts/23-enums-advanced-version.sol\":2222:2262  if (my == Status.Cancel) return \"Cancel\" */\n      tag_102\n      jumpi\n        /* \"contracts/23-enums-advanced-version.sol\":2247:2262  return \"Cancel\" */\n      mload(0x40)\n      dup1\n      0x40\n      add\n      0x40\n      mstore\n      dup1\n      0x06\n      dup2\n      mstore\n      0x20\n      add\n      0x43616e63656c0000000000000000000000000000000000000000000000000000\n      dup2\n      mstore\n      pop\n      swap2\n      pop\n      pop\n      jump(tag_77)\n        /* \"contracts/23-enums-advanced-version.sol\":2222:2262  if (my == Status.Cancel) return \"Cancel\" */\n    tag_102:\n        /* \"contracts/23-enums-advanced-version.sol\":2273:2289  return \"Unknown\" */\n      mload(0x40)\n      dup1\n      0x40\n      add\n      0x40\n      mstore\n      dup1\n      0x07\n      dup2\n      mstore\n      0x20\n      add\n      0x556e6b6e6f776e00000000000000000000000000000000000000000000000000\n      dup2\n      mstore\n      pop\n      swap2\n      pop\n      pop\n        /* \"contracts/23-enums-advanced-version.sol\":1884:2297  function getMyStatusString() public view returns (string memory) {... */\n    tag_77:\n      swap1\n      jump\t// out\n        /* \"contracts/23-enums-advanced-version.sol\":1091:1476  function getStatusString() public view returns (string memory) {... */\n    tag_45:\n        /* \"contracts/23-enums-advanced-version.sol\":1139:1152  string memory */\n      0x60\n        /* \"contracts/23-enums-advanced-version.sol\":1179:1193  Status.Pending */\n      0x00\n        /* \"contracts/23-enums-advanced-version.sol\":1169:1193  status == Status.Pending */\n      0x04\n      dup2\n      gt\n      iszero\n      tag_104\n      jumpi\n      tag_105\n      tag_59\n      jump\t// in\n    tag_105:\n    tag_104:\n        /* \"contracts/23-enums-advanced-version.sol\":1169:1175  status */\n      0x00\n      0x00\n      swap1\n      sload\n      swap1\n      0x0100\n      exp\n      swap1\n      div\n      0xff\n      and\n        /* \"contracts/23-enums-advanced-version.sol\":1169:1193  status == Status.Pending */\n      0x04\n      dup2\n      gt\n      iszero\n      tag_106\n      jumpi\n      tag_107\n      tag_59\n      jump\t// in\n    tag_107:\n    tag_106:\n      sub\n        /* \"contracts/23-enums-advanced-version.sol\":1165:1211  if (status == Status.Pending) return \"Pending\" */\n      tag_108\n      jumpi\n        /* \"contracts/23-enums-advanced-version.sol\":1195:1211  return \"Pending\" */\n      mload(0x40)\n      dup1\n      0x40\n      add\n      0x40\n      mstore\n      dup1\n      0x07\n      dup2\n      mstore\n      0x20\n      add\n      0x50656e64696e6700000000000000000000000000000000000000000000000000\n      dup2\n      mstore\n      pop\n      swap1\n      pop\n      jump(tag_103)\n        /* \"contracts/23-enums-advanced-version.sol\":1165:1211  if (status == Status.Pending) return \"Pending\" */\n    tag_108:\n        /* \"contracts/23-enums-advanced-version.sol\":1236:1250  Status.Shipped */\n      0x01\n        /* \"contracts/23-enums-advanced-version.sol\":1226:1250  status == Status.Shipped */\n      0x04\n      dup2\n      gt\n      iszero\n      tag_109\n      jumpi\n      tag_110\n      tag_59\n      jump\t// in\n    tag_110:\n    tag_109:\n        /* \"contracts/23-enums-advanced-version.sol\":1226:1232  status */\n      0x00\n      0x00\n      swap1\n      sload\n      swap1\n      0x0100\n      exp\n      swap1\n      div\n      0xff\n      and\n        /* \"contracts/23-enums-advanced-version.sol\":1226:1250  status == Status.Shipped */\n      0x04\n      dup2\n      gt\n      iszero\n      tag_111\n      jumpi\n      tag_112\n      tag_59\n      jump\t// in\n    tag_112:\n    tag_111:\n      sub\n        /* \"contracts/23-enums-advanced-version.sol\":1222:1268  if (status == Status.Shipped) return \"Shipped\" */\n      tag_113\n      jumpi\n        /* \"contracts/23-enums-advanced-version.sol\":1252:1268  return \"Shipped\" */\n      mload(0x40)\n      dup1\n      0x40\n      add\n      0x40\n      mstore\n      dup1\n      0x07\n      dup2\n      mstore\n      0x20\n      add\n      0x5368697070656400000000000000000000000000000000000000000000000000\n      dup2\n      mstore\n      pop\n      swap1\n      pop\n      jump(tag_103)\n        /* \"contracts/23-enums-advanced-version.sol\":1222:1268  if (status == Status.Shipped) return \"Shipped\" */\n    tag_113:\n        /* \"contracts/23-enums-advanced-version.sol\":1293:1308  Status.Rejected */\n      0x02\n        /* \"contracts/23-enums-advanced-version.sol\":1283:1308  status == Status.Rejected */\n      0x04\n      dup2\n      gt\n      iszero\n      tag_114\n      jumpi\n      tag_115\n      tag_59\n      jump\t// in\n    tag_115:\n    tag_114:\n        /* \"contracts/23-enums-advanced-version.sol\":1283:1289  status */\n      0x00\n      0x00\n      swap1\n      sload\n      swap1\n      0x0100\n      exp\n      swap1\n      div\n      0xff\n      and\n        /* \"contracts/23-enums-advanced-version.sol\":1283:1308  status == Status.Rejected */\n      0x04\n      dup2\n      gt\n      iszero\n      tag_116\n      jumpi\n      tag_117\n      tag_59\n      jump\t// in\n    tag_117:\n    tag_116:\n      sub\n        /* \"contracts/23-enums-advanced-version.sol\":1279:1327  if (status == Status.Rejected) return \"Rejected\" */\n      tag_118\n      jumpi\n        /* \"contracts/23-enums-advanced-version.sol\":1310:1327  return \"Rejected\" */\n      mload(0x40)\n      dup1\n      0x40\n      add\n      0x40\n      mstore\n      dup1\n      0x08\n      dup2\n      mstore\n      0x20\n      add\n      0x52656a6563746564000000000000000000000000000000000000000000000000\n      dup2\n      mstore\n      pop\n      swap1\n      pop\n      jump(tag_103)\n        /* \"contracts/23-enums-advanced-version.sol\":1279:1327  if (status == Status.Rejected) return \"Rejected\" */\n    tag_118:\n        /* \"contracts/23-enums-advanced-version.sol\":1352:1367  Status.Accepted */\n      0x03\n        /* \"contracts/23-enums-advanced-version.sol\":1342:1367  status == Status.Accepted */\n      0x04\n      dup2\n      gt\n      iszero\n      tag_119\n      jumpi\n      tag_120\n      tag_59\n      jump\t// in\n    tag_120:\n    tag_119:\n        /* \"contracts/23-enums-advanced-version.sol\":1342:1348  status */\n      0x00\n      0x00\n      swap1\n      sload\n      swap1\n      0x0100\n      exp\n      swap1\n      div\n      0xff\n      and\n        /* \"contracts/23-enums-advanced-version.sol\":1342:1367  status == Status.Accepted */\n      0x04\n      dup2\n      gt\n      iszero\n      tag_121\n      jumpi\n      tag_122\n      tag_59\n      jump\t// in\n    tag_122:\n    tag_121:\n      sub\n        /* \"contracts/23-enums-advanced-version.sol\":1338:1386  if (status == Status.Accepted) return \"Accepted\" */\n      tag_123\n      jumpi\n        /* \"contracts/23-enums-advanced-version.sol\":1369:1386  return \"Accepted\" */\n      mload(0x40)\n      dup1\n      0x40\n      add\n      0x40\n      mstore\n      dup1\n      0x08\n      dup2\n      mstore\n      0x20\n      add\n      0x4163636570746564000000000000000000000000000000000000000000000000\n      dup2\n      mstore\n      pop\n      swap1\n      pop\n      jump(tag_103)\n        /* \"contracts/23-enums-advanced-version.sol\":1338:1386  if (status == Status.Accepted) return \"Accepted\" */\n    tag_123:\n        /* \"contracts/23-enums-advanced-version.sol\":1411:1424  Status.Cancel */\n      0x04\n        /* \"contracts/23-enums-advanced-version.sol\":1401:1424  status == Status.Cancel */\n      dup1\n      dup2\n      gt\n      iszero\n      tag_124\n      jumpi\n      tag_125\n      tag_59\n      jump\t// in\n    tag_125:\n    tag_124:\n        /* \"contracts/23-enums-advanced-version.sol\":1401:1407  status */\n      0x00\n      0x00\n      swap1\n      sload\n      swap1\n      0x0100\n      exp\n      swap1\n      div\n      0xff\n      and\n        /* \"contracts/23-enums-advanced-version.sol\":1401:1424  status == Status.Cancel */\n      0x04\n      dup2\n      gt\n      iszero\n      tag_126\n      jumpi\n      tag_127\n      tag_59\n      jump\t// in\n    tag_127:\n    tag_126:\n      sub\n        /* \"contracts/23-enums-advanced-version.sol\":1397:1441  if (status == Status.Cancel) return \"Cancel\" */\n      tag_128\n      jumpi\n        /* \"contracts/23-enums-advanced-version.sol\":1426:1441  return \"Cancel\" */\n      mload(0x40)\n      dup1\n      0x40\n      add\n      0x40\n      mstore\n      dup1\n      0x06\n      dup2\n      mstore\n      0x20\n      add\n      0x43616e63656c0000000000000000000000000000000000000000000000000000\n      dup2\n      mstore\n      pop\n      swap1\n      pop\n      jump(tag_103)\n        /* \"contracts/23-enums-advanced-version.sol\":1397:1441  if (status == Status.Cancel) return \"Cancel\" */\n    tag_128:\n        /* \"contracts/23-enums-advanced-version.sol\":1452:1468  return \"Unknown\" */\n      mload(0x40)\n      dup1\n      0x40\n      add\n      0x40\n      mstore\n      dup1\n      0x07\n      dup2\n      mstore\n      0x20\n      add\n      0x556e6b6e6f776e00000000000000000000000000000000000000000000000000\n      dup2\n      mstore\n      pop\n      swap1\n      pop\n        /* \"contracts/23-enums-advanced-version.sol\":1091:1476  function getStatusString() public view returns (string memory) {... */\n    tag_103:\n      swap1\n      jump\t// out\n        /* \"contracts/23-enums-advanced-version.sol\":1780:1876  function setMyStatus(Status _status) public {... */\n    tag_49:\n        /* \"contracts/23-enums-advanced-version.sol\":1861:1868  _status */\n      dup1\n        /* \"contracts/23-enums-advanced-version.sol\":1835:1846  orderStatus */\n      0x01\n        /* \"contracts/23-enums-advanced-version.sol\":1835:1858  orderStatus[msg.sender] */\n      0x00\n        /* \"contracts/23-enums-advanced-version.sol\":1847:1857  msg.sender */\n      caller\n        /* \"contracts/23-enums-advanced-version.sol\":1835:1858  orderStatus[msg.sender] */\n      0xffffffffffffffffffffffffffffffffffffffff\n      and\n      0xffffffffffffffffffffffffffffffffffffffff\n      and\n      dup2\n      mstore\n      0x20\n      add\n      swap1\n      dup2\n      mstore\n      0x20\n      add\n      0x00\n      keccak256\n      0x00\n        /* \"contracts/23-enums-advanced-version.sol\":1835:1868  orderStatus[msg.sender] = _status */\n      0x0100\n      exp\n      dup2\n      sload\n      dup2\n      0xff\n      mul\n      not\n      and\n      swap1\n      dup4\n      0x04\n      dup2\n      gt\n      iszero\n      tag_130\n      jumpi\n      tag_131\n      tag_59\n      jump\t// in\n    tag_131:\n    tag_130:\n      mul\n      or\n      swap1\n      sstore\n      pop\n        /* \"contracts/23-enums-advanced-version.sol\":1780:1876  function setMyStatus(Status _status) public {... */\n      pop\n      jump\t// out\n        /* \"contracts/23-enums-advanced-version.sol\":794:922  function setByNumber(uint8 value) public {... */\n    tag_53:\n        /* \"contracts/23-enums-advanced-version.sol\":862:867  value */\n      dup1\n        /* \"contracts/23-enums-advanced-version.sol\":855:868  Status(value) */\n      0xff\n      and\n      0x04\n      dup2\n      gt\n      iszero\n      tag_133\n      jumpi\n      tag_134\n      tag_59\n      jump\t// in\n    tag_134:\n    tag_133:\n        /* \"contracts/23-enums-advanced-version.sol\":846:852  status */\n      0x00\n      0x00\n        /* \"contracts/23-enums-advanced-version.sol\":846:868  status = Status(value) */\n      0x0100\n      exp\n      dup2\n      sload\n      dup2\n      0xff\n      mul\n      not\n      and\n      swap1\n      dup4\n      0x04\n      dup2\n      gt\n      iszero\n      tag_135\n      jumpi\n      tag_136\n      tag_59\n      jump\t// in\n    tag_136:\n    tag_135:\n      mul\n      or\n      swap1\n      sstore\n      pop\n        /* \"contracts/23-enums-advanced-version.sol\":794:922  function setByNumber(uint8 value) public {... */\n      pop\n      jump\t// out\n        /* \"contracts/23-enums-advanced-version.sol\":654:720  function cancel() public {... */\n    tag_55:\n        /* \"contracts/23-enums-advanced-version.sol\":699:712  Status.Cancel */\n      0x04\n        /* \"contracts/23-enums-advanced-version.sol\":690:696  status */\n      0x00\n      0x00\n        /* \"contracts/23-enums-advanced-version.sol\":690:712  status = Status.Cancel */\n      0x0100\n      exp\n      dup2\n      sload\n      dup2\n      0xff\n      mul\n      not\n      and\n      swap1\n      dup4\n      0x04\n      dup2\n      gt\n      iszero\n      tag_138\n      jumpi\n      tag_139\n      tag_59\n      jump\t// in\n    tag_139:\n    tag_138:\n      mul\n      or\n      swap1\n      sstore\n      pop\n        /* \"contracts/23-enums-advanced-version.sol\":654:720  function cancel() public {... */\n      jump\t// out\n        /* \"#utility.yul\":7:187   */\n    tag_59:\n        /* \"#utility.yul\":55:132   */\n      0x4e487b7100000000000000000000000000000000000000000000000000000000\n        /* \"#utility.yul\":52:53   */\n      0x00\n        /* \"#utility.yul\":45:133   */\n      mstore\n        /* \"#utility.yul\":152:156   */\n      0x21\n        /* \"#utility.yul\":149:150   */\n      0x04\n        /* \"#utility.yul\":142:157   */\n      mstore\n        /* \"#utility.yul\":176:180   */\n      0x24\n        /* \"#utility.yul\":173:174   */\n      0x00\n        /* \"#utility.yul\":166:181   */\n      revert\n        /* \"#utility.yul\":193:306   */\n    tag_140:\n        /* \"#utility.yul\":274:275   */\n      0x05\n        /* \"#utility.yul\":267:272   */\n      dup2\n        /* \"#utility.yul\":264:276   */\n      lt\n        /* \"#utility.yul\":254:300   */\n      tag_167\n      jumpi\n        /* \"#utility.yul\":280:298   */\n      tag_168\n      tag_59\n      jump\t// in\n    tag_168:\n        /* \"#utility.yul\":254:300   */\n    tag_167:\n        /* \"#utility.yul\":193:306   */\n      pop\n      jump\t// out\n        /* \"#utility.yul\":312:439   */\n    tag_141:\n        /* \"#utility.yul\":357:364   */\n      0x00\n        /* \"#utility.yul\":386:391   */\n      dup2\n        /* \"#utility.yul\":375:391   */\n      swap1\n      pop\n        /* \"#utility.yul\":392:433   */\n      tag_170\n        /* \"#utility.yul\":427:432   */\n      dup3\n        /* \"#utility.yul\":392:433   */\n      tag_140\n      jump\t// in\n    tag_170:\n        /* \"#utility.yul\":312:439   */\n      swap2\n      swap1\n      pop\n      jump\t// out\n        /* \"#utility.yul\":445:572   */\n    tag_142:\n        /* \"#utility.yul\":501:510   */\n      0x00\n        /* \"#utility.yul\":534:566   */\n      tag_172\n        /* \"#utility.yul\":560:565   */\n      dup3\n        /* \"#utility.yul\":534:566   */\n      tag_141\n      jump\t// in\n    tag_172:\n        /* \"#utility.yul\":521:566   */\n      swap1\n      pop\n        /* \"#utility.yul\":445:572   */\n      swap2\n      swap1\n      pop\n      jump\t// out\n        /* \"#utility.yul\":578:721   */\n    tag_143:\n        /* \"#utility.yul\":671:714   */\n      tag_174\n        /* \"#utility.yul\":708:713   */\n      dup2\n        /* \"#utility.yul\":671:714   */\n      tag_142\n      jump\t// in\n    tag_174:\n        /* \"#utility.yul\":666:669   */\n      dup3\n        /* \"#utility.yul\":659:715   */\n      mstore\n        /* \"#utility.yul\":578:721   */\n      pop\n      pop\n      jump\t// out\n        /* \"#utility.yul\":727:961   */\n    tag_19:\n        /* \"#utility.yul\":826:830   */\n      0x00\n        /* \"#utility.yul\":864:866   */\n      0x20\n        /* \"#utility.yul\":853:862   */\n      dup3\n        /* \"#utility.yul\":849:867   */\n      add\n        /* \"#utility.yul\":841:867   */\n      swap1\n      pop\n        /* \"#utility.yul\":877:954   */\n      tag_176\n        /* \"#utility.yul\":951:952   */\n      0x00\n        /* \"#utility.yul\":940:949   */\n      dup4\n        /* \"#utility.yul\":936:953   */\n      add\n        /* \"#utility.yul\":927:933   */\n      dup5\n        /* \"#utility.yul\":877:954   */\n      tag_143\n      jump\t// in\n    tag_176:\n        /* \"#utility.yul\":727:961   */\n      swap3\n      swap2\n      pop\n      pop\n      jump\t// out\n        /* \"#utility.yul\":1048:1165   */\n    tag_145:\n        /* \"#utility.yul\":1157:1158   */\n      0x00\n        /* \"#utility.yul\":1154:1155   */\n      0x00\n        /* \"#utility.yul\":1147:1159   */\n      revert\n        /* \"#utility.yul\":1294:1420   */\n    tag_147:\n        /* \"#utility.yul\":1331:1338   */\n      0x00\n        /* \"#utility.yul\":1371:1413   */\n      0xffffffffffffffffffffffffffffffffffffffff\n        /* \"#utility.yul\":1364:1369   */\n      dup3\n        /* \"#utility.yul\":1360:1414   */\n      and\n        /* \"#utility.yul\":1349:1414   */\n      swap1\n      pop\n        /* \"#utility.yul\":1294:1420   */\n      swap2\n      swap1\n      pop\n      jump\t// out\n        /* \"#utility.yul\":1426:1522   */\n    tag_148:\n        /* \"#utility.yul\":1463:1470   */\n      0x00\n        /* \"#utility.yul\":1492:1516   */\n      tag_182\n        /* \"#utility.yul\":1510:1515   */\n      dup3\n        /* \"#utility.yul\":1492:1516   */\n      tag_147\n      jump\t// in\n    tag_182:\n        /* \"#utility.yul\":1481:1516   */\n      swap1\n      pop\n        /* \"#utility.yul\":1426:1522   */\n      swap2\n      swap1\n      pop\n      jump\t// out\n        /* \"#utility.yul\":1528:1650   */\n    tag_149:\n        /* \"#utility.yul\":1601:1625   */\n      tag_184\n        /* \"#utility.yul\":1619:1624   */\n      dup2\n        /* \"#utility.yul\":1601:1625   */\n      tag_148\n      jump\t// in\n    tag_184:\n        /* \"#utility.yul\":1594:1599   */\n      dup2\n        /* \"#utility.yul\":1591:1626   */\n      eq\n        /* \"#utility.yul\":1581:1644   */\n      tag_185\n      jumpi\n        /* \"#utility.yul\":1640:1641   */\n      0x00\n        /* \"#utility.yul\":1637:1638   */\n      0x00\n        /* \"#utility.yul\":1630:1642   */\n      revert\n        /* \"#utility.yul\":1581:1644   */\n    tag_185:\n        /* \"#utility.yul\":1528:1650   */\n      pop\n      jump\t// out\n        /* \"#utility.yul\":1656:1795   */\n    tag_150:\n        /* \"#utility.yul\":1702:1707   */\n      0x00\n        /* \"#utility.yul\":1740:1746   */\n      dup2\n        /* \"#utility.yul\":1727:1747   */\n      calldataload\n        /* \"#utility.yul\":1718:1747   */\n      swap1\n      pop\n        /* \"#utility.yul\":1756:1789   */\n      tag_187\n        /* \"#utility.yul\":1783:1788   */\n      dup2\n        /* \"#utility.yul\":1756:1789   */\n      tag_149\n      jump\t// in\n    tag_187:\n        /* \"#utility.yul\":1656:1795   */\n      swap3\n      swap2\n      pop\n      pop\n      jump\t// out\n        /* \"#utility.yul\":1801:2130   */\n    tag_22:\n        /* \"#utility.yul\":1860:1866   */\n      0x00\n        /* \"#utility.yul\":1909:1911   */\n      0x20\n        /* \"#utility.yul\":1897:1906   */\n      dup3\n        /* \"#utility.yul\":1888:1895   */\n      dup5\n        /* \"#utility.yul\":1884:1907   */\n      sub\n        /* \"#utility.yul\":1880:1912   */\n      slt\n        /* \"#utility.yul\":1877:1996   */\n      iszero\n      tag_189\n      jumpi\n        /* \"#utility.yul\":1915:1994   */\n      tag_190\n      tag_145\n      jump\t// in\n    tag_190:\n        /* \"#utility.yul\":1877:1996   */\n    tag_189:\n        /* \"#utility.yul\":2035:2036   */\n      0x00\n        /* \"#utility.yul\":2060:2113   */\n      tag_191\n        /* \"#utility.yul\":2105:2112   */\n      dup5\n        /* \"#utility.yul\":2096:2102   */\n      dup3\n        /* \"#utility.yul\":2085:2094   */\n      dup6\n        /* \"#utility.yul\":2081:2103   */\n      add\n        /* \"#utility.yul\":2060:2113   */\n      tag_150\n      jump\t// in\n    tag_191:\n        /* \"#utility.yul\":2050:2113   */\n      swap2\n      pop\n        /* \"#utility.yul\":2006:2123   */\n      pop\n        /* \"#utility.yul\":1801:2130   */\n      swap3\n      swap2\n      pop\n      pop\n      jump\t// out\n        /* \"#utility.yul\":2136:2243   */\n    tag_151:\n        /* \"#utility.yul\":2217:2218   */\n      0x05\n        /* \"#utility.yul\":2210:2215   */\n      dup2\n        /* \"#utility.yul\":2207:2219   */\n      lt\n        /* \"#utility.yul\":2197:2237   */\n      tag_193\n      jumpi\n        /* \"#utility.yul\":2233:2234   */\n      0x00\n        /* \"#utility.yul\":2230:2231   */\n      0x00\n        /* \"#utility.yul\":2223:2235   */\n      revert\n        /* \"#utility.yul\":2197:2237   */\n    tag_193:\n        /* \"#utility.yul\":2136:2243   */\n      pop\n      jump\t// out\n        /* \"#utility.yul\":2249:2404   */\n    tag_152:\n        /* \"#utility.yul\":2303:2308   */\n      0x00\n        /* \"#utility.yul\":2341:2347   */\n      dup2\n        /* \"#utility.yul\":2328:2348   */\n      calldataload\n        /* \"#utility.yul\":2319:2348   */\n      swap1\n      pop\n        /* \"#utility.yul\":2357:2398   */\n      tag_195\n        /* \"#utility.yul\":2392:2397   */\n      dup2\n        /* \"#utility.yul\":2357:2398   */\n      tag_151\n      jump\t// in\n    tag_195:\n        /* \"#utility.yul\":2249:2404   */\n      swap3\n      swap2\n      pop\n      pop\n      jump\t// out\n        /* \"#utility.yul\":2410:2755   */\n    tag_29:\n        /* \"#utility.yul\":2477:2483   */\n      0x00\n        /* \"#utility.yul\":2526:2528   */\n      0x20\n        /* \"#utility.yul\":2514:2523   */\n      dup3\n        /* \"#utility.yul\":2505:2512   */\n      dup5\n        /* \"#utility.yul\":2501:2524   */\n      sub\n        /* \"#utility.yul\":2497:2529   */\n      slt\n        /* \"#utility.yul\":2494:2613   */\n      iszero\n      tag_197\n      jumpi\n        /* \"#utility.yul\":2532:2611   */\n      tag_198\n      tag_145\n      jump\t// in\n    tag_198:\n        /* \"#utility.yul\":2494:2613   */\n    tag_197:\n        /* \"#utility.yul\":2652:2653   */\n      0x00\n        /* \"#utility.yul\":2677:2738   */\n      tag_199\n        /* \"#utility.yul\":2730:2737   */\n      dup5\n        /* \"#utility.yul\":2721:2727   */\n      dup3\n        /* \"#utility.yul\":2710:2719   */\n      dup6\n        /* \"#utility.yul\":2706:2728   */\n      add\n        /* \"#utility.yul\":2677:2738   */\n      tag_152\n      jump\t// in\n    tag_199:\n        /* \"#utility.yul\":2667:2738   */\n      swap2\n      pop\n        /* \"#utility.yul\":2623:2748   */\n      pop\n        /* \"#utility.yul\":2410:2755   */\n      swap3\n      swap2\n      pop\n      pop\n      jump\t// out\n        /* \"#utility.yul\":2761:2847   */\n    tag_153:\n        /* \"#utility.yul\":2796:2803   */\n      0x00\n        /* \"#utility.yul\":2836:2840   */\n      0xff\n        /* \"#utility.yul\":2829:2834   */\n      dup3\n        /* \"#utility.yul\":2825:2841   */\n      and\n        /* \"#utility.yul\":2814:2841   */\n      swap1\n      pop\n        /* \"#utility.yul\":2761:2847   */\n      swap2\n      swap1\n      pop\n      jump\t// out\n        /* \"#utility.yul\":2853:2965   */\n    tag_154:\n        /* \"#utility.yul\":2936:2958   */\n      tag_202\n        /* \"#utility.yul\":2952:2957   */\n      dup2\n        /* \"#utility.yul\":2936:2958   */\n      tag_153\n      jump\t// in\n    tag_202:\n        /* \"#utility.yul\":2931:2934   */\n      dup3\n        /* \"#utility.yul\":2924:2959   */\n      mstore\n        /* \"#utility.yul\":2853:2965   */\n      pop\n      pop\n      jump\t// out\n        /* \"#utility.yul\":2971:3185   */\n    tag_39:\n        /* \"#utility.yul\":3060:3064   */\n      0x00\n        /* \"#utility.yul\":3098:3100   */\n      0x20\n        /* \"#utility.yul\":3087:3096   */\n      dup3\n        /* \"#utility.yul\":3083:3101   */\n      add\n        /* \"#utility.yul\":3075:3101   */\n      swap1\n      pop\n        /* \"#utility.yul\":3111:3178   */\n      tag_204\n        /* \"#utility.yul\":3175:3176   */\n      0x00\n        /* \"#utility.yul\":3164:3173   */\n      dup4\n        /* \"#utility.yul\":3160:3177   */\n      add\n        /* \"#utility.yul\":3151:3157   */\n      dup5\n        /* \"#utility.yul\":3111:3178   */\n      tag_154\n      jump\t// in\n    tag_204:\n        /* \"#utility.yul\":2971:3185   */\n      swap3\n      swap2\n      pop\n      pop\n      jump\t// out\n        /* \"#utility.yul\":3191:3290   */\n    tag_155:\n        /* \"#utility.yul\":3243:3249   */\n      0x00\n        /* \"#utility.yul\":3277:3282   */\n      dup2\n        /* \"#utility.yul\":3271:3283   */\n      mload\n        /* \"#utility.yul\":3261:3283   */\n      swap1\n      pop\n        /* \"#utility.yul\":3191:3290   */\n      swap2\n      swap1\n      pop\n      jump\t// out\n        /* \"#utility.yul\":3296:3465   */\n    tag_156:\n        /* \"#utility.yul\":3380:3391   */\n      0x00\n        /* \"#utility.yul\":3414:3420   */\n      dup3\n        /* \"#utility.yul\":3409:3412   */\n      dup3\n        /* \"#utility.yul\":3402:3421   */\n      mstore\n        /* \"#utility.yul\":3454:3458   */\n      0x20\n        /* \"#utility.yul\":3449:3452   */\n      dup3\n        /* \"#utility.yul\":3445:3459   */\n      add\n        /* \"#utility.yul\":3430:3459   */\n      swap1\n      pop\n        /* \"#utility.yul\":3296:3465   */\n      swap3\n      swap2\n      pop\n      pop\n      jump\t// out\n        /* \"#utility.yul\":3471:3610   */\n    tag_157:\n        /* \"#utility.yul\":3560:3566   */\n      dup3\n        /* \"#utility.yul\":3555:3558   */\n      dup2\n        /* \"#utility.yul\":3550:3553   */\n      dup4\n        /* \"#utility.yul\":3544:3567   */\n      mcopy\n        /* \"#utility.yul\":3601:3602   */\n      0x00\n        /* \"#utility.yul\":3592:3598   */\n      dup4\n        /* \"#utility.yul\":3587:3590   */\n      dup4\n        /* \"#utility.yul\":3583:3599   */\n      add\n        /* \"#utility.yul\":3576:3603   */\n      mstore\n        /* \"#utility.yul\":3471:3610   */\n      pop\n      pop\n      pop\n      jump\t// out\n        /* \"#utility.yul\":3616:3718   */\n    tag_158:\n        /* \"#utility.yul\":3657:3663   */\n      0x00\n        /* \"#utility.yul\":3708:3710   */\n      0x1f\n        /* \"#utility.yul\":3704:3711   */\n      not\n        /* \"#utility.yul\":3699:3701   */\n      0x1f\n        /* \"#utility.yul\":3692:3697   */\n      dup4\n        /* \"#utility.yul\":3688:3702   */\n      add\n        /* \"#utility.yul\":3684:3712   */\n      and\n        /* \"#utility.yul\":3674:3712   */\n      swap1\n      pop\n        /* \"#utility.yul\":3616:3718   */\n      swap2\n      swap1\n      pop\n      jump\t// out\n        /* \"#utility.yul\":3724:4101   */\n    tag_159:\n        /* \"#utility.yul\":3812:3815   */\n      0x00\n        /* \"#utility.yul\":3840:3879   */\n      tag_210\n        /* \"#utility.yul\":3873:3878   */\n      dup3\n        /* \"#utility.yul\":3840:3879   */\n      tag_155\n      jump\t// in\n    tag_210:\n        /* \"#utility.yul\":3895:3966   */\n      tag_211\n        /* \"#utility.yul\":3959:3965   */\n      dup2\n        /* \"#utility.yul\":3954:3957   */\n      dup6\n        /* \"#utility.yul\":3895:3966   */\n      tag_156\n      jump\t// in\n    tag_211:\n        /* \"#utility.yul\":3888:3966   */\n      swap4\n      pop\n        /* \"#utility.yul\":3975:4040   */\n      tag_212\n        /* \"#utility.yul\":4033:4039   */\n      dup2\n        /* \"#utility.yul\":4028:4031   */\n      dup6\n        /* \"#utility.yul\":4021:4025   */\n      0x20\n        /* \"#utility.yul\":4014:4019   */\n      dup7\n        /* \"#utility.yul\":4010:4026   */\n      add\n        /* \"#utility.yul\":3975:4040   */\n      tag_157\n      jump\t// in\n    tag_212:\n        /* \"#utility.yul\":4065:4094   */\n      tag_213\n        /* \"#utility.yul\":4087:4093   */\n      dup2\n        /* \"#utility.yul\":4065:4094   */\n      tag_158\n      jump\t// in\n    tag_213:\n        /* \"#utility.yul\":4060:4063   */\n      dup5\n        /* \"#utility.yul\":4056:4095   */\n      add\n        /* \"#utility.yul\":4049:4095   */\n      swap2\n      pop\n        /* \"#utility.yul\":3816:4101   */\n      pop\n        /* \"#utility.yul\":3724:4101   */\n      swap3\n      swap2\n      pop\n      pop\n      jump\t// out\n        /* \"#utility.yul\":4107:4420   */\n    tag_43:\n        /* \"#utility.yul\":4220:4224   */\n      0x00\n        /* \"#utility.yul\":4258:4260   */\n      0x20\n        /* \"#utility.yul\":4247:4256   */\n      dup3\n        /* \"#utility.yul\":4243:4261   */\n      add\n        /* \"#utility.yul\":4235:4261   */\n      swap1\n      pop\n        /* \"#utility.yul\":4307:4316   */\n      dup2\n        /* \"#utility.yul\":4301:4305   */\n      dup2\n        /* \"#utility.yul\":4297:4317   */\n      sub\n        /* \"#utility.yul\":4293:4294   */\n      0x00\n        /* \"#utility.yul\":4282:4291   */\n      dup4\n        /* \"#utility.yul\":4278:4295   */\n      add\n        /* \"#utility.yul\":4271:4318   */\n      mstore\n        /* \"#utility.yul\":4335:4413   */\n      tag_215\n        /* \"#utility.yul\":4408:4412   */\n      dup2\n        /* \"#utility.yul\":4399:4405   */\n      dup5\n        /* \"#utility.yul\":4335:4413   */\n      tag_159\n      jump\t// in\n    tag_215:\n        /* \"#utility.yul\":4327:4413   */\n      swap1\n      pop\n        /* \"#utility.yul\":4107:4420   */\n      swap3\n      swap2\n      pop\n      pop\n      jump\t// out\n        /* \"#utility.yul\":4426:4544   */\n    tag_160:\n        /* \"#utility.yul\":4497:4519   */\n      tag_217\n        /* \"#utility.yul\":4513:4518   */\n      dup2\n        /* \"#utility.yul\":4497:4519   */\n      tag_153\n      jump\t// in\n    tag_217:\n        /* \"#utility.yul\":4490:4495   */\n      dup2\n        /* \"#utility.yul\":4487:4520   */\n      eq\n        /* \"#utility.yul\":4477:4538   */\n      tag_218\n      jumpi\n        /* \"#utility.yul\":4534:4535   */\n      0x00\n        /* \"#utility.yul\":4531:4532   */\n      0x00\n        /* \"#utility.yul\":4524:4536   */\n      revert\n        /* \"#utility.yul\":4477:4538   */\n    tag_218:\n        /* \"#utility.yul\":4426:4544   */\n      pop\n      jump\t// out\n        /* \"#utility.yul\":4550:4685   */\n    tag_161:\n        /* \"#utility.yul\":4594:4599   */\n      0x00\n        /* \"#utility.yul\":4632:4638   */\n      dup2\n        /* \"#utility.yul\":4619:4639   */\n      calldataload\n        /* \"#utility.yul\":4610:4639   */\n      swap1\n      pop\n        /* \"#utility.yul\":4648:4679   */\n      tag_220\n        /* \"#utility.yul\":4673:4678   */\n      dup2\n        /* \"#utility.yul\":4648:4679   */\n      tag_160\n      jump\t// in\n    tag_220:\n        /* \"#utility.yul\":4550:4685   */\n      swap3\n      swap2\n      pop\n      pop\n      jump\t// out\n        /* \"#utility.yul\":4691:5016   */\n    tag_52:\n        /* \"#utility.yul\":4748:4754   */\n      0x00\n        /* \"#utility.yul\":4797:4799   */\n      0x20\n        /* \"#utility.yul\":4785:4794   */\n      dup3\n        /* \"#utility.yul\":4776:4783   */\n      dup5\n        /* \"#utility.yul\":4772:4795   */\n      sub\n        /* \"#utility.yul\":4768:4800   */\n      slt\n        /* \"#utility.yul\":4765:4884   */\n      iszero\n      tag_222\n      jumpi\n        /* \"#utility.yul\":4803:4882   */\n      tag_223\n      tag_145\n      jump\t// in\n    tag_223:\n        /* \"#utility.yul\":4765:4884   */\n    tag_222:\n        /* \"#utility.yul\":4923:4924   */\n      0x00\n        /* \"#utility.yul\":4948:4999   */\n      tag_224\n        /* \"#utility.yul\":4991:4998   */\n      dup5\n        /* \"#utility.yul\":4982:4988   */\n      dup3\n        /* \"#utility.yul\":4971:4980   */\n      dup6\n        /* \"#utility.yul\":4967:4989   */\n      add\n        /* \"#utility.yul\":4948:4999   */\n      tag_161\n      jump\t// in\n    tag_224:\n        /* \"#utility.yul\":4938:4999   */\n      swap2\n      pop\n        /* \"#utility.yul\":4894:5009   */\n      pop\n        /* \"#utility.yul\":4691:5016   */\n      swap3\n      swap2\n      pop\n      pop\n      jump\t// out\n        /* \"#utility.yul\":5022:5201   */\n    tag_162:\n        /* \"#utility.yul\":5162:5193   */\n      0x2043616e6e6f742063616e63656c206166746572207368697070696e67000000\n        /* \"#utility.yul\":5158:5159   */\n      0x00\n        /* \"#utility.yul\":5150:5156   */\n      dup3\n        /* \"#utility.yul\":5146:5160   */\n      add\n        /* \"#utility.yul\":5139:5194   */\n      mstore\n        /* \"#utility.yul\":5022:5201   */\n      pop\n      jump\t// out\n        /* \"#utility.yul\":5207:5573   */\n    tag_163:\n        /* \"#utility.yul\":5349:5352   */\n      0x00\n        /* \"#utility.yul\":5370:5437   */\n      tag_227\n        /* \"#utility.yul\":5434:5436   */\n      0x1d\n        /* \"#utility.yul\":5429:5432   */\n      dup4\n        /* \"#utility.yul\":5370:5437   */\n      tag_156\n      jump\t// in\n    tag_227:\n        /* \"#utility.yul\":5363:5437   */\n      swap2\n      pop\n        /* \"#utility.yul\":5446:5539   */\n      tag_228\n        /* \"#utility.yul\":5535:5538   */\n      dup3\n        /* \"#utility.yul\":5446:5539   */\n      tag_162\n      jump\t// in\n    tag_228:\n        /* \"#utility.yul\":5564:5566   */\n      0x20\n        /* \"#utility.yul\":5559:5562   */\n      dup3\n        /* \"#utility.yul\":5555:5567   */\n      add\n        /* \"#utility.yul\":5548:5567   */\n      swap1\n      pop\n        /* \"#utility.yul\":5207:5573   */\n      swap2\n      swap1\n      pop\n      jump\t// out\n        /* \"#utility.yul\":5579:5998   */\n    tag_64:\n        /* \"#utility.yul\":5745:5749   */\n      0x00\n        /* \"#utility.yul\":5783:5785   */\n      0x20\n        /* \"#utility.yul\":5772:5781   */\n      dup3\n        /* \"#utility.yul\":5768:5786   */\n      add\n        /* \"#utility.yul\":5760:5786   */\n      swap1\n      pop\n        /* \"#utility.yul\":5832:5841   */\n      dup2\n        /* \"#utility.yul\":5826:5830   */\n      dup2\n        /* \"#utility.yul\":5822:5842   */\n      sub\n        /* \"#utility.yul\":5818:5819   */\n      0x00\n        /* \"#utility.yul\":5807:5816   */\n      dup4\n        /* \"#utility.yul\":5803:5820   */\n      add\n        /* \"#utility.yul\":5796:5843   */\n      mstore\n        /* \"#utility.yul\":5860:5991   */\n      tag_230\n        /* \"#utility.yul\":5986:5990   */\n      dup2\n        /* \"#utility.yul\":5860:5991   */\n      tag_163\n      jump\t// in\n    tag_230:\n        /* \"#utility.yul\":5852:5991   */\n      swap1\n      pop\n        /* \"#utility.yul\":5579:5998   */\n      swap2\n      swap1\n      pop\n      jump\t// out\n\n    auxdata: 0xa2646970667358221220a28756402f3155d351d4cab95fd3d2bc56f40f6422d9198ba42387f79815326d64736f6c634300081e0033\n}\n",
				"bytecode": {
					"linkReferences": {},
					"object": "6080604052348015600e575f5ffd5b50610c5d8061001c5f395ff3fe608060405234801561000f575f5ffd5b50600436106100b2575f3560e01c8063704fa31a1161006f578063704fa31a1461015257806373718162146101705780637b07126e1461018e5780637fa1ffe4146101ac5780638e139f91146101c8578063ea8a1af0146101e4576100b2565b8063200d2ed2146100b65780632c43c418146100d45780632dbac66e146101045780632e49d78b1461010e5780634dc415de1461012a5780634e69d56014610134575b5f5ffd5b6100be6101ee565b6040516100cb91906109b6565b60405180910390f35b6100ee60048036038101906100e99190610a2d565b6101ff565b6040516100fb91906109b6565b60405180910390f35b61010c61021c565b005b61012860048036038101906101239190610a7b565b6102bb565b005b6101326102e6565b005b61013c610311565b60405161014991906109b6565b60405180910390f35b61015a610325565b6040516101679190610ac1565b60405180910390f35b61017861034b565b6040516101859190610b4a565b60405180910390f35b6101966105e7565b6040516101a39190610b4a565b60405180910390f35b6101c660048036038101906101c19190610a7b565b610871565b005b6101e260048036038101906101dd9190610b94565b6108d8565b005b6101ec610918565b005b5f5f9054906101000a900460ff1681565b6001602052805f5260405f205f915054906101000a900460ff1681565b600160048111156102305761022f610943565b5b5f5f9054906101000a900460ff1660048111156102505761024f610943565b5b03610290576040517f08c379a000000000000000000000000000000000000000000000000000000000815260040161028790610c09565b60405180910390fd5b60045f5f6101000a81548160ff021916908360048111156102b4576102b3610943565b5b0217905550565b805f5f6101000a81548160ff021916908360048111156102de576102dd610943565b5b021790555050565b60025f5f6101000a81548160ff0219169083600481111561030a57610309610943565b5b0217905550565b5f5f5f9054906101000a900460ff16905090565b5f5f5f9054906101000a900460ff16600481111561034657610345610943565b5b905090565b60605f60015f3373ffffffffffffffffffffffffffffffffffffffff1673ffffffffffffffffffffffffffffffffffffffff1681526020019081526020015f205f9054906101000a900460ff1690505f60048111156103ad576103ac610943565b5b8160048111156103c0576103bf610943565b5b03610403576040518060400160405280600781526020017f50656e64696e67000000000000000000000000000000000000000000000000008152509150506105e4565b6001600481111561041757610416610943565b5b81600481111561042a57610429610943565b5b0361046d576040518060400160405280600781526020017f53686970706564000000000000000000000000000000000000000000000000008152509150506105e4565b6002600481111561048157610480610943565b5b81600481111561049457610493610943565b5b036104d7576040518060400160405280600881526020017f52656a65637465640000000000000000000000000000000000000000000000008152509150506105e4565b600360048111156104eb576104ea610943565b5b8160048111156104fe576104fd610943565b5b03610541576040518060400160405280600881526020017f41636365707465640000000000000000000000000000000000000000000000008152509150506105e4565b60048081111561055457610553610943565b5b81600481111561056757610566610943565b5b036105aa576040518060400160405280600681526020017f43616e63656c00000000000000000000000000000000000000000000000000008152509150506105e4565b6040518060400160405280600781526020017f556e6b6e6f776e000000000000000000000000000000000000000000000000008152509150505b90565b60605f60048111156105fc576105fb610943565b5b5f5f9054906101000a900460ff16600481111561061c5761061b610943565b5b0361065e576040518060400160405280600781526020017f50656e64696e6700000000000000000000000000000000000000000000000000815250905061086e565b6001600481111561067257610671610943565b5b5f5f9054906101000a900460ff16600481111561069257610691610943565b5b036106d4576040518060400160405280600781526020017f5368697070656400000000000000000000000000000000000000000000000000815250905061086e565b600260048111156106e8576106e7610943565b5b5f5f9054906101000a900460ff16600481111561070857610707610943565b5b0361074a576040518060400160405280600881526020017f52656a6563746564000000000000000000000000000000000000000000000000815250905061086e565b6003600481111561075e5761075d610943565b5b5f5f9054906101000a900460ff16600481111561077e5761077d610943565b5b036107c0576040518060400160405280600881526020017f4163636570746564000000000000000000000000000000000000000000000000815250905061086e565b6004808111156107d3576107d2610943565b5b5f5f9054906101000a900460ff1660048111156107f3576107f2610943565b5b03610835576040518060400160405280600681526020017f43616e63656c0000000000000000000000000000000000000000000000000000815250905061086e565b6040518060400160405280600781526020017f556e6b6e6f776e0000000000000000000000000000000000000000000000000081525090505b90565b8060015f3373ffffffffffffffffffffffffffffffffffffffff1673ffffffffffffffffffffffffffffffffffffffff1681526020019081526020015f205f6101000a81548160ff021916908360048111156108d0576108cf610943565b5b021790555050565b8060ff1660048111156108ee576108ed610943565b5b5f5f6101000a81548160ff021916908360048111156109105761090f610943565b5b021790555050565b60045f5f6101000a81548160ff0219169083600481111561093c5761093b610943565b5b0217905550565b7f4e487b71000000000000000000000000000000000000000000000000000000005f52602160045260245ffd5b6005811061098157610980610943565b5b50565b5f81905061099182610970565b919050565b5f6109a082610984565b9050919050565b6109b081610996565b82525050565b5f6020820190506109c95f8301846109a7565b92915050565b5f5ffd5b5f73ffffffffffffffffffffffffffffffffffffffff82169050919050565b5f6109fc826109d3565b9050919050565b610a0c816109f2565b8114610a16575f5ffd5b50565b5f81359050610a2781610a03565b92915050565b5f60208284031215610a4257610a416109cf565b5b5f610a4f84828501610a19565b91505092915050565b60058110610a64575f5ffd5b50565b5f81359050610a7581610a58565b92915050565b5f60208284031215610a9057610a8f6109cf565b5b5f610a9d84828501610a67565b91505092915050565b5f60ff82169050919050565b610abb81610aa6565b82525050565b5f602082019050610ad45f830184610ab2565b92915050565b5f81519050919050565b5f82825260208201905092915050565b8281835e5f83830152505050565b5f601f19601f8301169050919050565b5f610b1c82610ada565b610b268185610ae4565b9350610b36818560208601610af4565b610b3f81610b02565b840191505092915050565b5f6020820190508181035f830152610b628184610b12565b905092915050565b610b7381610aa6565b8114610b7d575f5ffd5b50565b5f81359050610b8e81610b6a565b92915050565b5f60208284031215610ba957610ba86109cf565b5b5f610bb684828501610b80565b91505092915050565b7f2043616e6e6f742063616e63656c206166746572207368697070696e670000005f82015250565b5f610bf3601d83610ae4565b9150610bfe82610bbf565b602082019050919050565b5f6020820190508181035f830152610c2081610be7565b905091905056fea2646970667358221220a28756402f3155d351d4cab95fd3d2bc56f40f6422d9198ba42387f79815326d64736f6c634300081e0033",
					"opcodes": "PUSH1 0x80 PUSH1 0x40 MSTORE CALLVALUE DUP1 ISZERO PUSH1 0xE JUMPI PUSH0 PUSH0 REVERT JUMPDEST POP PUSH2 0xC5D DUP1 PUSH2 0x1C PUSH0 CODECOPY PUSH0 RETURN INVALID PUSH1 0x80 PUSH1 0x40 MSTORE CALLVALUE DUP1 ISZERO PUSH2 0xF JUMPI PUSH0 PUSH0 REVERT JUMPDEST POP PUSH1 0x4 CALLDATASIZE LT PUSH2 0xB2 JUMPI PUSH0 CALLDATALOAD PUSH1 0xE0 SHR DUP1 PUSH4 0x704FA31A GT PUSH2 0x6F JUMPI DUP1 PUSH4 0x704FA31A EQ PUSH2 0x152 JUMPI DUP1 PUSH4 0x73718162 EQ PUSH2 0x170 JUMPI DUP1 PUSH4 0x7B07126E EQ PUSH2 0x18E JUMPI DUP1 PUSH4 0x7FA1FFE4 EQ PUSH2 0x1AC JUMPI DUP1 PUSH4 0x8E139F91 EQ PUSH2 0x1C8 JUMPI DUP1 PUSH4 0xEA8A1AF0 EQ PUSH2 0x1E4 JUMPI PUSH2 0xB2 JUMP JUMPDEST DUP1 PUSH4 0x200D2ED2 EQ PUSH2 0xB6 JUMPI DUP1 PUSH4 0x2C43C418 EQ PUSH2 0xD4 JUMPI DUP1 PUSH4 0x2DBAC66E EQ PUSH2 0x104 JUMPI DUP1 PUSH4 0x2E49D78B EQ PUSH2 0x10E JUMPI DUP1 PUSH4 0x4DC415DE EQ PUSH2 0x12A JUMPI DUP1 PUSH4 0x4E69D560 EQ PUSH2 0x134 JUMPI JUMPDEST PUSH0 PUSH0 REVERT JUMPDEST PUSH2 0xBE PUSH2 0x1EE JUMP JUMPDEST PUSH1 0x40 MLOAD PUSH2 0xCB SWAP2 SWAP1 PUSH2 0x9B6 JUMP JUMPDEST PUSH1 0x40 MLOAD DUP1 SWAP2 SUB SWAP1 RETURN JUMPDEST PUSH2 0xEE PUSH1 0x4 DUP1 CALLDATASIZE SUB DUP2 ADD SWAP1 PUSH2 0xE9 SWAP2 SWAP1 PUSH2 0xA2D JUMP JUMPDEST PUSH2 0x1FF JUMP JUMPDEST PUSH1 0x40 MLOAD PUSH2 0xFB SWAP2 SWAP1 PUSH2 0x9B6 JUMP JUMPDEST PUSH1 0x40 MLOAD DUP1 SWAP2 SUB SWAP1 RETURN JUMPDEST PUSH2 0x10C PUSH2 0x21C JUMP JUMPDEST STOP JUMPDEST PUSH2 0x128 PUSH1 0x4 DUP1 CALLDATASIZE SUB DUP2 ADD SWAP1 PUSH2 0x123 SWAP2 SWAP1 PUSH2 0xA7B JUMP JUMPDEST PUSH2 0x2BB JUMP JUMPDEST STOP JUMPDEST PUSH2 0x132 PUSH2 0x2E6 JUMP JUMPDEST STOP JUMPDEST PUSH2 0x13C PUSH2 0x311 JUMP JUMPDEST PUSH1 0x40 MLOAD PUSH2 0x149 SWAP2 SWAP1 PUSH2 0x9B6 JUMP JUMPDEST PUSH1 0x40 MLOAD DUP1 SWAP2 SUB SWAP1 RETURN JUMPDEST PUSH2 0x15A PUSH2 0x325 JUMP JUMPDEST PUSH1 0x40 MLOAD PUSH2 0x167 SWAP2 SWAP1 PUSH2 0xAC1 JUMP JUMPDEST PUSH1 0x40 MLOAD DUP1 SWAP2 SUB SWAP1 RETURN JUMPDEST PUSH2 0x178 PUSH2 0x34B JUMP JUMPDEST PUSH1 0x40 MLOAD PUSH2 0x185 SWAP2 SWAP1 PUSH2 0xB4A JUMP JUMPDEST PUSH1 0x40 MLOAD DUP1 SWAP2 SUB SWAP1 RETURN JUMPDEST PUSH2 0x196 PUSH2 0x5E7 JUMP JUMPDEST PUSH1 0x40 MLOAD PUSH2 0x1A3 SWAP2 SWAP1 PUSH2 0xB4A JUMP JUMPDEST PUSH1 0x40 MLOAD DUP1 SWAP2 SUB SWAP1 RETURN JUMPDEST PUSH2 0x1C6 PUSH1 0x4 DUP1 CALLDATASIZE SUB DUP2 ADD SWAP1 PUSH2 0x1C1 SWAP2 SWAP1 PUSH2 0xA7B JUMP JUMPDEST PUSH2 0x871 JUMP JUMPDEST STOP JUMPDEST PUSH2 0x1E2 PUSH1 0x4 DUP1 CALLDATASIZE SUB DUP2 ADD SWAP1 PUSH2 0x1DD SWAP2 SWAP1 PUSH2 0xB94 JUMP JUMPDEST PUSH2 0x8D8 JUMP JUMPDEST STOP JUMPDEST PUSH2 0x1EC PUSH2 0x918 JUMP JUMPDEST STOP JUMPDEST PUSH0 PUSH0 SWAP1 SLOAD SWAP1 PUSH2 0x100 EXP SWAP1 DIV PUSH1 0xFF AND DUP2 JUMP JUMPDEST PUSH1 0x1 PUSH1 0x20 MSTORE DUP1 PUSH0 MSTORE PUSH1 0x40 PUSH0 KECCAK256 PUSH0 SWAP2 POP SLOAD SWAP1 PUSH2 0x100 EXP SWAP1 DIV PUSH1 0xFF AND DUP2 JUMP JUMPDEST PUSH1 0x1 PUSH1 0x4 DUP2 GT ISZERO PUSH2 0x230 JUMPI PUSH2 0x22F PUSH2 0x943 JUMP JUMPDEST JUMPDEST PUSH0 PUSH0 SWAP1 SLOAD SWAP1 PUSH2 0x100 EXP SWAP1 DIV PUSH1 0xFF AND PUSH1 0x4 DUP2 GT ISZERO PUSH2 0x250 JUMPI PUSH2 0x24F PUSH2 0x943 JUMP JUMPDEST JUMPDEST SUB PUSH2 0x290 JUMPI PUSH1 0x40 MLOAD PUSH32 0x8C379A000000000000000000000000000000000000000000000000000000000 DUP2 MSTORE PUSH1 0x4 ADD PUSH2 0x287 SWAP1 PUSH2 0xC09 JUMP JUMPDEST PUSH1 0x40 MLOAD DUP1 SWAP2 SUB SWAP1 REVERT JUMPDEST PUSH1 0x4 PUSH0 PUSH0 PUSH2 0x100 EXP DUP2 SLOAD DUP2 PUSH1 0xFF MUL NOT AND SWAP1 DUP4 PUSH1 0x4 DUP2 GT ISZERO PUSH2 0x2B4 JUMPI PUSH2 0x2B3 PUSH2 0x943 JUMP JUMPDEST JUMPDEST MUL OR SWAP1 SSTORE POP JUMP JUMPDEST DUP1 PUSH0 PUSH0 PUSH2 0x100 EXP DUP2 SLOAD DUP2 PUSH1 0xFF MUL NOT AND SWAP1 DUP4 PUSH1 0x4 DUP2 GT ISZERO PUSH2 0x2DE JUMPI PUSH2 0x2DD PUSH2 0x943 JUMP JUMPDEST JUMPDEST MUL OR SWAP1 SSTORE POP POP JUMP JUMPDEST PUSH1 0x2 PUSH0 PUSH0 PUSH2 0x100 EXP DUP2 SLOAD DUP2 PUSH1 0xFF MUL NOT AND SWAP1 DUP4 PUSH1 0x4 DUP2 GT ISZERO PUSH2 0x30A JUMPI PUSH2 0x309 PUSH2 0x943 JUMP JUMPDEST JUMPDEST MUL OR SWAP1 SSTORE POP JUMP JUMPDEST PUSH0 PUSH0 PUSH0 SWAP1 SLOAD SWAP1 PUSH2 0x100 EXP SWAP1 DIV PUSH1 0xFF AND SWAP1 POP SWAP1 JUMP JUMPDEST PUSH0 PUSH0 PUSH0 SWAP1 SLOAD SWAP1 PUSH2 0x100 EXP SWAP1 DIV PUSH1 0xFF AND PUSH1 0x4 DUP2 GT ISZERO PUSH2 0x346 JUMPI PUSH2 0x345 PUSH2 0x943 JUMP JUMPDEST JUMPDEST SWAP1 POP SWAP1 JUMP JUMPDEST PUSH1 0x60 PUSH0 PUSH1 0x1 PUSH0 CALLER PUSH20 0xFFFFFFFFFFFFFFFFFFFFFFFFFFFFFFFFFFFFFFFF AND PUSH20 0xFFFFFFFFFFFFFFFFFFFFFFFFFFFFFFFFFFFFFFFF AND DUP2 MSTORE PUSH1 0x20 ADD SWAP1 DUP2 MSTORE PUSH1 0x20 ADD PUSH0 KECCAK256 PUSH0 SWAP1 SLOAD SWAP1 PUSH2 0x100 EXP SWAP1 DIV PUSH1 0xFF AND SWAP1 POP PUSH0 PUSH1 0x4 DUP2 GT ISZERO PUSH2 0x3AD JUMPI PUSH2 0x3AC PUSH2 0x943 JUMP JUMPDEST JUMPDEST DUP2 PUSH1 0x4 DUP2 GT ISZERO PUSH2 0x3C0 JUMPI PUSH2 0x3BF PUSH2 0x943 JUMP JUMPDEST JUMPDEST SUB PUSH2 0x403 JUMPI PUSH1 0x40 MLOAD DUP1 PUSH1 0x40 ADD PUSH1 0x40 MSTORE DUP1 PUSH1 0x7 DUP2 MSTORE PUSH1 0x20 ADD PUSH32 0x50656E64696E6700000000000000000000000000000000000000000000000000 DUP2 MSTORE POP SWAP2 POP POP PUSH2 0x5E4 JUMP JUMPDEST PUSH1 0x1 PUSH1 0x4 DUP2 GT ISZERO PUSH2 0x417 JUMPI PUSH2 0x416 PUSH2 0x943 JUMP JUMPDEST JUMPDEST DUP2 PUSH1 0x4 DUP2 GT ISZERO PUSH2 0x42A JUMPI PUSH2 0x429 PUSH2 0x943 JUMP JUMPDEST JUMPDEST SUB PUSH2 0x46D JUMPI PUSH1 0x40 MLOAD DUP1 PUSH1 0x40 ADD PUSH1 0x40 MSTORE DUP1 PUSH1 0x7 DUP2 MSTORE PUSH1 0x20 ADD PUSH32 0x5368697070656400000000000000000000000000000000000000000000000000 DUP2 MSTORE POP SWAP2 POP POP PUSH2 0x5E4 JUMP JUMPDEST PUSH1 0x2 PUSH1 0x4 DUP2 GT ISZERO PUSH2 0x481 JUMPI PUSH2 0x480 PUSH2 0x943 JUMP JUMPDEST JUMPDEST DUP2 PUSH1 0x4 DUP2 GT ISZERO PUSH2 0x494 JUMPI PUSH2 0x493 PUSH2 0x943 JUMP JUMPDEST JUMPDEST SUB PUSH2 0x4D7 JUMPI PUSH1 0x40 MLOAD DUP1 PUSH1 0x40 ADD PUSH1 0x40 MSTORE DUP1 PUSH1 0x8 DUP2 MSTORE PUSH1 0x20 ADD PUSH32 0x52656A6563746564000000000000000000000000000000000000000000000000 DUP2 MSTORE POP SWAP2 POP POP PUSH2 0x5E4 JUMP JUMPDEST PUSH1 0x3 PUSH1 0x4 DUP2 GT ISZERO PUSH2 0x4EB JUMPI PUSH2 0x4EA PUSH2 0x943 JUMP JUMPDEST JUMPDEST DUP2 PUSH1 0x4 DUP2 GT ISZERO PUSH2 0x4FE JUMPI PUSH2 0x4FD PUSH2 0x943 JUMP JUMPDEST JUMPDEST SUB PUSH2 0x541 JUMPI PUSH1 0x40 MLOAD DUP1 PUSH1 0x40 ADD PUSH1 0x40 MSTORE DUP1 PUSH1 0x8 DUP2 MSTORE PUSH1 0x20 ADD PUSH32 0x4163636570746564000000000000000000000000000000000000000000000000 DUP2 MSTORE POP SWAP2 POP POP PUSH2 0x5E4 JUMP JUMPDEST PUSH1 0x4 DUP1 DUP2 GT ISZERO PUSH2 0x554 JUMPI PUSH2 0x553 PUSH2 0x943 JUMP JUMPDEST JUMPDEST DUP2 PUSH1 0x4 DUP2 GT ISZERO PUSH2 0x567 JUMPI PUSH2 0x566 PUSH2 0x943 JUMP JUMPDEST JUMPDEST SUB PUSH2 0x5AA JUMPI PUSH1 0x40 MLOAD DUP1 PUSH1 0x40 ADD PUSH1 0x40 MSTORE DUP1 PUSH1 0x6 DUP2 MSTORE PUSH1 0x20 ADD PUSH32 0x43616E63656C0000000000000000000000000000000000000000000000000000 DUP2 MSTORE POP SWAP2 POP POP PUSH2 0x5E4 JUMP JUMPDEST PUSH1 0x40 MLOAD DUP1 PUSH1 0x40 ADD PUSH1 0x40 MSTORE DUP1 PUSH1 0x7 DUP2 MSTORE PUSH1 0x20 ADD PUSH32 0x556E6B6E6F776E00000000000000000000000000000000000000000000000000 DUP2 MSTORE POP SWAP2 POP POP JUMPDEST SWAP1 JUMP JUMPDEST PUSH1 0x60 PUSH0 PUSH1 0x4 DUP2 GT ISZERO PUSH2 0x5FC JUMPI PUSH2 0x5FB PUSH2 0x943 JUMP JUMPDEST JUMPDEST PUSH0 PUSH0 SWAP1 SLOAD SWAP1 PUSH2 0x100 EXP SWAP1 DIV PUSH1 0xFF AND PUSH1 0x4 DUP2 GT ISZERO PUSH2 0x61C JUMPI PUSH2 0x61B PUSH2 0x943 JUMP JUMPDEST JUMPDEST SUB PUSH2 0x65E JUMPI PUSH1 0x40 MLOAD DUP1 PUSH1 0x40 ADD PUSH1 0x40 MSTORE DUP1 PUSH1 0x7 DUP2 MSTORE PUSH1 0x20 ADD PUSH32 0x50656E64696E6700000000000000000000000000000000000000000000000000 DUP2 MSTORE POP SWAP1 POP PUSH2 0x86E JUMP JUMPDEST PUSH1 0x1 PUSH1 0x4 DUP2 GT ISZERO PUSH2 0x672 JUMPI PUSH2 0x671 PUSH2 0x943 JUMP JUMPDEST JUMPDEST PUSH0 PUSH0 SWAP1 SLOAD SWAP1 PUSH2 0x100 EXP SWAP1 DIV PUSH1 0xFF AND PUSH1 0x4 DUP2 GT ISZERO PUSH2 0x692 JUMPI PUSH2 0x691 PUSH2 0x943 JUMP JUMPDEST JUMPDEST SUB PUSH2 0x6D4 JUMPI PUSH1 0x40 MLOAD DUP1 PUSH1 0x40 ADD PUSH1 0x40 MSTORE DUP1 PUSH1 0x7 DUP2 MSTORE PUSH1 0x20 ADD PUSH32 0x5368697070656400000000000000000000000000000000000000000000000000 DUP2 MSTORE POP SWAP1 POP PUSH2 0x86E JUMP JUMPDEST PUSH1 0x2 PUSH1 0x4 DUP2 GT ISZERO PUSH2 0x6E8 JUMPI PUSH2 0x6E7 PUSH2 0x943 JUMP JUMPDEST JUMPDEST PUSH0 PUSH0 SWAP1 SLOAD SWAP1 PUSH2 0x100 EXP SWAP1 DIV PUSH1 0xFF AND PUSH1 0x4 DUP2 GT ISZERO PUSH2 0x708 JUMPI PUSH2 0x707 PUSH2 0x943 JUMP JUMPDEST JUMPDEST SUB PUSH2 0x74A JUMPI PUSH1 0x40 MLOAD DUP1 PUSH1 0x40 ADD PUSH1 0x40 MSTORE DUP1 PUSH1 0x8 DUP2 MSTORE PUSH1 0x20 ADD PUSH32 0x52656A6563746564000000000000000000000000000000000000000000000000 DUP2 MSTORE POP SWAP1 POP PUSH2 0x86E JUMP JUMPDEST PUSH1 0x3 PUSH1 0x4 DUP2 GT ISZERO PUSH2 0x75E JUMPI PUSH2 0x75D PUSH2 0x943 JUMP JUMPDEST JUMPDEST PUSH0 PUSH0 SWAP1 SLOAD SWAP1 PUSH2 0x100 EXP SWAP1 DIV PUSH1 0xFF AND PUSH1 0x4 DUP2 GT ISZERO PUSH2 0x77E JUMPI PUSH2 0x77D PUSH2 0x943 JUMP JUMPDEST JUMPDEST SUB PUSH2 0x7C0 JUMPI PUSH1 0x40 MLOAD DUP1 PUSH1 0x40 ADD PUSH1 0x40 MSTORE DUP1 PUSH1 0x8 DUP2 MSTORE PUSH1 0x20 ADD PUSH32 0x4163636570746564000000000000000000000000000000000000000000000000 DUP2 MSTORE POP SWAP1 POP PUSH2 0x86E JUMP JUMPDEST PUSH1 0x4 DUP1 DUP2 GT ISZERO PUSH2 0x7D3 JUMPI PUSH2 0x7D2 PUSH2 0x943 JUMP JUMPDEST JUMPDEST PUSH0 PUSH0 SWAP1 SLOAD SWAP1 PUSH2 0x100 EXP SWAP1 DIV PUSH1 0xFF AND PUSH1 0x4 DUP2 GT ISZERO PUSH2 0x7F3 JUMPI PUSH2 0x7F2 PUSH2 0x943 JUMP JUMPDEST JUMPDEST SUB PUSH2 0x835 JUMPI PUSH1 0x40 MLOAD DUP1 PUSH1 0x40 ADD PUSH1 0x40 MSTORE DUP1 PUSH1 0x6 DUP2 MSTORE PUSH1 0x20 ADD PUSH32 0x43616E63656C0000000000000000000000000000000000000000000000000000 DUP2 MSTORE POP SWAP1 POP PUSH2 0x86E JUMP JUMPDEST PUSH1 0x40 MLOAD DUP1 PUSH1 0x40 ADD PUSH1 0x40 MSTORE DUP1 PUSH1 0x7 DUP2 MSTORE PUSH1 0x20 ADD PUSH32 0x556E6B6E6F776E00000000000000000000000000000000000000000000000000 DUP2 MSTORE POP SWAP1 POP JUMPDEST SWAP1 JUMP JUMPDEST DUP1 PUSH1 0x1 PUSH0 CALLER PUSH20 0xFFFFFFFFFFFFFFFFFFFFFFFFFFFFFFFFFFFFFFFF AND PUSH20 0xFFFFFFFFFFFFFFFFFFFFFFFFFFFFFFFFFFFFFFFF AND DUP2 MSTORE PUSH1 0x20 ADD SWAP1 DUP2 MSTORE PUSH1 0x20 ADD PUSH0 KECCAK256 PUSH0 PUSH2 0x100 EXP DUP2 SLOAD DUP2 PUSH1 0xFF MUL NOT AND SWAP1 DUP4 PUSH1 0x4 DUP2 GT ISZERO PUSH2 0x8D0 JUMPI PUSH2 0x8CF PUSH2 0x943 JUMP JUMPDEST JUMPDEST MUL OR SWAP1 SSTORE POP POP JUMP JUMPDEST DUP1 PUSH1 0xFF AND PUSH1 0x4 DUP2 GT ISZERO PUSH2 0x8EE JUMPI PUSH2 0x8ED PUSH2 0x943 JUMP JUMPDEST JUMPDEST PUSH0 PUSH0 PUSH2 0x100 EXP DUP2 SLOAD DUP2 PUSH1 0xFF MUL NOT AND SWAP1 DUP4 PUSH1 0x4 DUP2 GT ISZERO PUSH2 0x910 JUMPI PUSH2 0x90F PUSH2 0x943 JUMP JUMPDEST JUMPDEST MUL OR SWAP1 SSTORE POP POP JUMP JUMPDEST PUSH1 0x4 PUSH0 PUSH0 PUSH2 0x100 EXP DUP2 SLOAD DUP2 PUSH1 0xFF MUL NOT AND SWAP1 DUP4 PUSH1 0x4 DUP2 GT ISZERO PUSH2 0x93C JUMPI PUSH2 0x93B PUSH2 0x943 JUMP JUMPDEST JUMPDEST MUL OR SWAP1 SSTORE POP JUMP JUMPDEST PUSH32 0x4E487B7100000000000000000000000000000000000000000000000000000000 PUSH0 MSTORE PUSH1 0x21 PUSH1 0x4 MSTORE PUSH1 0x24 PUSH0 REVERT JUMPDEST PUSH1 0x5 DUP2 LT PUSH2 0x981 JUMPI PUSH2 0x980 PUSH2 0x943 JUMP JUMPDEST JUMPDEST POP JUMP JUMPDEST PUSH0 DUP2 SWAP1 POP PUSH2 0x991 DUP3 PUSH2 0x970 JUMP JUMPDEST SWAP2 SWAP1 POP JUMP JUMPDEST PUSH0 PUSH2 0x9A0 DUP3 PUSH2 0x984 JUMP JUMPDEST SWAP1 POP SWAP2 SWAP1 POP JUMP JUMPDEST PUSH2 0x9B0 DUP2 PUSH2 0x996 JUMP JUMPDEST DUP3 MSTORE POP POP JUMP JUMPDEST PUSH0 PUSH1 0x20 DUP3 ADD SWAP1 POP PUSH2 0x9C9 PUSH0 DUP4 ADD DUP5 PUSH2 0x9A7 JUMP JUMPDEST SWAP3 SWAP2 POP POP JUMP JUMPDEST PUSH0 PUSH0 REVERT JUMPDEST PUSH0 PUSH20 0xFFFFFFFFFFFFFFFFFFFFFFFFFFFFFFFFFFFFFFFF DUP3 AND SWAP1 POP SWAP2 SWAP1 POP JUMP JUMPDEST PUSH0 PUSH2 0x9FC DUP3 PUSH2 0x9D3 JUMP JUMPDEST SWAP1 POP SWAP2 SWAP1 POP JUMP JUMPDEST PUSH2 0xA0C DUP2 PUSH2 0x9F2 JUMP JUMPDEST DUP2 EQ PUSH2 0xA16 JUMPI PUSH0 PUSH0 REVERT JUMPDEST POP JUMP JUMPDEST PUSH0 DUP2 CALLDATALOAD SWAP1 POP PUSH2 0xA27 DUP2 PUSH2 0xA03 JUMP JUMPDEST SWAP3 SWAP2 POP POP JUMP JUMPDEST PUSH0 PUSH1 0x20 DUP3 DUP5 SUB SLT ISZERO PUSH2 0xA42 JUMPI PUSH2 0xA41 PUSH2 0x9CF JUMP JUMPDEST JUMPDEST PUSH0 PUSH2 0xA4F DUP5 DUP3 DUP6 ADD PUSH2 0xA19 JUMP JUMPDEST SWAP2 POP POP SWAP3 SWAP2 POP POP JUMP JUMPDEST PUSH1 0x5 DUP2 LT PUSH2 0xA64 JUMPI PUSH0 PUSH0 REVERT JUMPDEST POP JUMP JUMPDEST PUSH0 DUP2 CALLDATALOAD SWAP1 POP PUSH2 0xA75 DUP2 PUSH2 0xA58 JUMP JUMPDEST SWAP3 SWAP2 POP POP JUMP JUMPDEST PUSH0 PUSH1 0x20 DUP3 DUP5 SUB SLT ISZERO PUSH2 0xA90 JUMPI PUSH2 0xA8F PUSH2 0x9CF JUMP JUMPDEST JUMPDEST PUSH0 PUSH2 0xA9D DUP5 DUP3 DUP6 ADD PUSH2 0xA67 JUMP JUMPDEST SWAP2 POP POP SWAP3 SWAP2 POP POP JUMP JUMPDEST PUSH0 PUSH1 0xFF DUP3 AND SWAP1 POP SWAP2 SWAP1 POP JUMP JUMPDEST PUSH2 0xABB DUP2 PUSH2 0xAA6 JUMP JUMPDEST DUP3 MSTORE POP POP JUMP JUMPDEST PUSH0 PUSH1 0x20 DUP3 ADD SWAP1 POP PUSH2 0xAD4 PUSH0 DUP4 ADD DUP5 PUSH2 0xAB2 JUMP JUMPDEST SWAP3 SWAP2 POP POP JUMP JUMPDEST PUSH0 DUP2 MLOAD SWAP1 POP SWAP2 SWAP1 POP JUMP JUMPDEST PUSH0 DUP3 DUP3 MSTORE PUSH1 0x20 DUP3 ADD SWAP1 POP SWAP3 SWAP2 POP POP JUMP JUMPDEST DUP3 DUP2 DUP4 MCOPY PUSH0 DUP4 DUP4 ADD MSTORE POP POP POP JUMP JUMPDEST PUSH0 PUSH1 0x1F NOT PUSH1 0x1F DUP4 ADD AND SWAP1 POP SWAP2 SWAP1 POP JUMP JUMPDEST PUSH0 PUSH2 0xB1C DUP3 PUSH2 0xADA JUMP JUMPDEST PUSH2 0xB26 DUP2 DUP6 PUSH2 0xAE4 JUMP JUMPDEST SWAP4 POP PUSH2 0xB36 DUP2 DUP6 PUSH1 0x20 DUP7 ADD PUSH2 0xAF4 JUMP JUMPDEST PUSH2 0xB3F DUP2 PUSH2 0xB02 JUMP JUMPDEST DUP5 ADD SWAP2 POP POP SWAP3 SWAP2 POP POP JUMP JUMPDEST PUSH0 PUSH1 0x20 DUP3 ADD SWAP1 POP DUP2 DUP2 SUB PUSH0 DUP4 ADD MSTORE PUSH2 0xB62 DUP2 DUP5 PUSH2 0xB12 JUMP JUMPDEST SWAP1 POP SWAP3 SWAP2 POP POP JUMP JUMPDEST PUSH2 0xB73 DUP2 PUSH2 0xAA6 JUMP JUMPDEST DUP2 EQ PUSH2 0xB7D JUMPI PUSH0 PUSH0 REVERT JUMPDEST POP JUMP JUMPDEST PUSH0 DUP2 CALLDATALOAD SWAP1 POP PUSH2 0xB8E DUP2 PUSH2 0xB6A JUMP JUMPDEST SWAP3 SWAP2 POP POP JUMP JUMPDEST PUSH0 PUSH1 0x20 DUP3 DUP5 SUB SLT ISZERO PUSH2 0xBA9 JUMPI PUSH2 0xBA8 PUSH2 0x9CF JUMP JUMPDEST JUMPDEST PUSH0 PUSH2 0xBB6 DUP5 DUP3 DUP6 ADD PUSH2 0xB80 JUMP JUMPDEST SWAP2 POP POP SWAP3 SWAP2 POP POP JUMP JUMPDEST PUSH32 0x2043616E6E6F742063616E63656C206166746572207368697070696E67000000 PUSH0 DUP3 ADD MSTORE POP JUMP JUMPDEST PUSH0 PUSH2 0xBF3 PUSH1 0x1D DUP4 PUSH2 0xAE4 JUMP JUMPDEST SWAP2 POP PUSH2 0xBFE DUP3 PUSH2 0xBBF JUMP JUMPDEST PUSH1 0x20 DUP3 ADD SWAP1 POP SWAP2 SWAP1 POP JUMP JUMPDEST PUSH0 PUSH1 0x20 DUP3 ADD SWAP1 POP DUP2 DUP2 SUB PUSH0 DUP4 ADD MSTORE PUSH2 0xC20 DUP2 PUSH2 0xBE7 JUMP JUMPDEST SWAP1 POP SWAP2 SWAP1 POP JUMP INVALID LOG2 PUSH5 0x6970667358 0x22 SLT KECCAK256 LOG2 DUP8 JUMP BLOCKHASH 0x2F BALANCE SSTORE 0xD3 MLOAD 0xD4 0xCA 0xB9 PUSH0 0xD3 0xD2 0xBC JUMP DELEGATECALL 0xF PUSH5 0x22D9198BA4 0x23 DUP8 0xF7 SWAP9 ISZERO ORIGIN PUSH14 0x64736F6C634300081E0033000000 "
				},
				"gasEstimates": {
					"creation": {
						"codeDepositCost": "633000",
						"executionCost": "662",
						"totalCost": "633662"
					},
					"external": {
						"cancel()": "24538",
						"getMyStatusString()": "infinite",
						"getStatus()": "2671",
						"getStatusNumber()": "2498",
						"getStatusString()": "infinite",
						"orderStatus(address)": "2944",
						"reject()": "24517",
						"safeCancel()": "26682",
						"setByNumber(uint8)": "24812",
						"setMyStatus(uint8)": "24798",
						"setStatus(uint8)": "24711",
						"status()": "2554"
					}
				},
				"methodIdentifiers": {
					"cancel()": "ea8a1af0",
					"getMyStatusString()": "73718162",
					"getStatus()": "4e69d560",
					"getStatusNumber()": "704fa31a",
					"getStatusString()": "7b07126e",
					"orderStatus(address)": "2c43c418",
					"reject()": "4dc415de",
					"safeCancel()": "2dbac66e",
					"setByNumber(uint8)": "8e139f91",
					"setMyStatus(uint8)": "7fa1ffe4",
					"setStatus(uint8)": "2e49d78b",
					"status()": "200d2ed2"
				}
			},
			"storageLayout": {
				"storage": [
					{
						"astId": 10,
						"contract": "contracts/23-enums-advanced-version.sol:EnumDemo",
						"label": "status",
						"offset": 0,
						"slot": "0",
						"type": "t_enum(Status)7"
					},
					{
						"astId": 136,
						"contract": "contracts/23-enums-advanced-version.sol:EnumDemo",
						"label": "orderStatus",
						"offset": 0,
						"slot": "1",
						"type": "t_mapping(t_address,t_enum(Status)7)"
					}
				],
				"types": {
					"t_address": {
						"encoding": "inplace",
						"label": "address",
						"numberOfBytes": "20"
					},
					"t_enum(Status)7": {
						"encoding": "inplace",
						"label": "enum EnumDemo.Status",
						"numberOfBytes": "1"
					},
					"t_mapping(t_address,t_enum(Status)7)": {
						"encoding": "mapping",
						"key": "t_address",
						"label": "mapping(address => enum EnumDemo.Status)",
						"numberOfBytes": "32",
						"value": "t_enum(Status)7"
					}
				}
			},
			"userdoc": {
				"kind": "user",
				"methods": {},
				"version": 1
			}
		}
	}
}