{
	"contracts/16-loops-in-solidity.sol": {
		"ifElse": {
			"abi": [
				{
					"inputs": [],
					"name": "change",
					"outputs": [],
					"stateMutability": "nonpayable",
					"type": "function"
				},
				{
					"inputs": [],
					"name": "dowhileLoop",
					"outputs": [
						{
							"internalType": "uint256",
							"name": "",
							"type": "uint256"
						}
					],
					"stateMutability": "pure",
					"type": "function"
				},
				{
					"inputs": [],
					"name": "dynamicwhile",
					"outputs": [
						{
							"internalType": "bool",
							"name": "",
							"type": "bool"
						}
					],
					"stateMutability": "view",
					"type": "function"
				},
				{
					"inputs": [],
					"name": "forLoop",
					"outputs": [
						{
							"internalType": "uint256",
							"name": "",
							"type": "uint256"
						}
					],
					"stateMutability": "pure",
					"type": "function"
				},
				{
					"inputs": [],
					"name": "isTrue",
					"outputs": [
						{
							"internalType": "bool",
							"name": "",
							"type": "bool"
						}
					],
					"stateMutability": "view",
					"type": "function"
				},
				{
					"inputs": [],
					"name": "whileLoop",
					"outputs": [
						{
							"internalType": "uint256",
							"name": "",
							"type": "uint256"
						}
					],
					"stateMutability": "pure",
					"type": "function"
				}
			],
			"devdoc": {
				"kind": "dev",
				"methods": {},
				"version": 1
			},
			"evm": {
				"assembly": "    /* \"contracts/16-loops-in-solidity.sol\":63:968  contract ifElse {... */\n  mstore(0x40, 0x80)\n    /* \"contracts/16-loops-in-solidity.sol\":106:110  true */\n  0x01\n    /* \"contracts/16-loops-in-solidity.sol\":85:110  bool public isTrue = true */\n  0x00\n  exp(0x0100, 0x00)\n  dup2\n  sload\n  dup2\n  0xff\n  mul\n  not\n  and\n  swap1\n  dup4\n  iszero\n  iszero\n  mul\n  or\n  swap1\n  sstore\n  pop\n    /* \"contracts/16-loops-in-solidity.sol\":63:968  contract ifElse {... */\n  callvalue\n  dup1\n  iszero\n  tag_1\n  jumpi\n  revert(0x00, 0x00)\ntag_1:\n  pop\n  dataSize(sub_0)\n  dup1\n  dataOffset(sub_0)\n  0x00\n  codecopy\n  0x00\n  return\nstop\n\nsub_0: assembly {\n        /* \"contracts/16-loops-in-solidity.sol\":63:968  contract ifElse {... */\n      mstore(0x40, 0x80)\n      callvalue\n      dup1\n      iszero\n      tag_1\n      jumpi\n      revert(0x00, 0x00)\n    tag_1:\n      pop\n      jumpi(tag_2, lt(calldatasize, 0x04))\n      shr(0xe0, calldataload(0x00))\n      dup1\n      0x74530a\n      eq\n      tag_3\n      jumpi\n      dup1\n      0x28eb7ef3\n      eq\n      tag_4\n      jumpi\n      dup1\n      0x2ee79ded\n      eq\n      tag_5\n      jumpi\n      dup1\n      0x79365f54\n      eq\n      tag_6\n      jumpi\n      dup1\n      0xe7c898ef\n      eq\n      tag_7\n      jumpi\n      dup1\n      0xfc0e6008\n      eq\n      tag_8\n      jumpi\n    tag_2:\n      revert(0x00, 0x00)\n        /* \"contracts/16-loops-in-solidity.sol\":85:110  bool public isTrue = true */\n    tag_3:\n      tag_9\n      tag_10\n      jump\t// in\n    tag_9:\n      mload(0x40)\n      tag_11\n      swap2\n      swap1\n      tag_12\n      jump\t// in\n    tag_11:\n      mload(0x40)\n      dup1\n      swap2\n      sub\n      swap1\n      return\n        /* \"contracts/16-loops-in-solidity.sol\":529:743  function dowhileLoop() public pure returns (uint256) {... */\n    tag_4:\n      tag_13\n      tag_14\n      jump\t// in\n    tag_13:\n      mload(0x40)\n      tag_15\n      swap2\n      swap1\n      tag_16\n      jump\t// in\n    tag_15:\n      mload(0x40)\n      dup1\n      swap2\n      sub\n      swap1\n      return\n        /* \"contracts/16-loops-in-solidity.sol\":908:966  function change() public {... */\n    tag_5:\n      tag_17\n      tag_18\n      jump\t// in\n    tag_17:\n      stop\n        /* \"contracts/16-loops-in-solidity.sol\":749:902  function dynamicwhile() public view returns(bool)... */\n    tag_6:\n      tag_19\n      tag_20\n      jump\t// in\n    tag_19:\n      mload(0x40)\n      tag_21\n      swap2\n      swap1\n      tag_12\n      jump\t// in\n    tag_21:\n      mload(0x40)\n      dup1\n      swap2\n      sub\n      swap1\n      return\n        /* \"contracts/16-loops-in-solidity.sol\":309:521  function whileLoop() public pure returns (uint256) {... */\n    tag_7:\n      tag_22\n      tag_23\n      jump\t// in\n    tag_22:\n      mload(0x40)\n      tag_24\n      swap2\n      swap1\n      tag_16\n      jump\t// in\n    tag_24:\n      mload(0x40)\n      dup1\n      swap2\n      sub\n      swap1\n      return\n        /* \"contracts/16-loops-in-solidity.sol\":117:303  function forLoop() public pure returns (uint256) {... */\n    tag_8:\n      tag_25\n      tag_26\n      jump\t// in\n    tag_25:\n      mload(0x40)\n      tag_27\n      swap2\n      swap1\n      tag_16\n      jump\t// in\n    tag_27:\n      mload(0x40)\n      dup1\n      swap2\n      sub\n      swap1\n      return\n        /* \"contracts/16-loops-in-solidity.sol\":85:110  bool public isTrue = true */\n    tag_10:\n      0x00\n      0x00\n      swap1\n      sload\n      swap1\n      0x0100\n      exp\n      swap1\n      div\n      0xff\n      and\n      dup2\n      jump\t// out\n        /* \"contracts/16-loops-in-solidity.sol\":529:743  function dowhileLoop() public pure returns (uint256) {... */\n    tag_14:\n        /* \"contracts/16-loops-in-solidity.sol\":573:580  uint256 */\n      0x00\n        /* \"contracts/16-loops-in-solidity.sol\":592:605  uint256 count */\n      0x00\n        /* \"contracts/16-loops-in-solidity.sol\":608:609  0 */\n      0x00\n        /* \"contracts/16-loops-in-solidity.sol\":592:609  uint256 count = 0 */\n      swap1\n      pop\n        /* \"contracts/16-loops-in-solidity.sol\":619:625  uint k */\n      0x00\n        /* \"contracts/16-loops-in-solidity.sol\":628:629  0 */\n      0x00\n        /* \"contracts/16-loops-in-solidity.sol\":619:629  uint k = 0 */\n      swap1\n      pop\n        /* \"contracts/16-loops-in-solidity.sol\":640:713  do{... */\n    tag_29:\n        /* \"contracts/16-loops-in-solidity.sol\":665:666  5 */\n      0x05\n        /* \"contracts/16-loops-in-solidity.sol\":656:666  count += 5 */\n      dup3\n      tag_32\n      swap2\n      swap1\n      tag_33\n      jump\t// in\n    tag_32:\n      swap2\n      pop\n        /* \"contracts/16-loops-in-solidity.sol\":685:686  2 */\n      0x02\n        /* \"contracts/16-loops-in-solidity.sol\":680:686  k += 2 */\n      dup2\n      tag_34\n      swap2\n      swap1\n      tag_33\n      jump\t// in\n    tag_34:\n      swap1\n      pop\n        /* \"contracts/16-loops-in-solidity.sol\":709:711  10 */\n      0x0a\n        /* \"contracts/16-loops-in-solidity.sol\":705:706  k */\n      dup2\n        /* \"contracts/16-loops-in-solidity.sol\":705:711  k < 10 */\n      lt\n        /* \"contracts/16-loops-in-solidity.sol\":640:713  do{... */\n      tag_29\n      jumpi\n        /* \"contracts/16-loops-in-solidity.sol\":731:736  count */\n      dup2\n        /* \"contracts/16-loops-in-solidity.sol\":724:736  return count */\n      swap3\n      pop\n      pop\n      pop\n        /* \"contracts/16-loops-in-solidity.sol\":529:743  function dowhileLoop() public pure returns (uint256) {... */\n      swap1\n      jump\t// out\n        /* \"contracts/16-loops-in-solidity.sol\":908:966  function change() public {... */\n    tag_18:\n        /* \"contracts/16-loops-in-solidity.sol\":953:959  isTrue */\n      0x00\n      0x00\n      swap1\n      sload\n      swap1\n      0x0100\n      exp\n      swap1\n      div\n      0xff\n      and\n        /* \"contracts/16-loops-in-solidity.sol\":952:959  !isTrue */\n      iszero\n        /* \"contracts/16-loops-in-solidity.sol\":943:949  isTrue */\n      0x00\n      0x00\n        /* \"contracts/16-loops-in-solidity.sol\":943:959  isTrue = !isTrue */\n      0x0100\n      exp\n      dup2\n      sload\n      dup2\n      0xff\n      mul\n      not\n      and\n      swap1\n      dup4\n      iszero\n      iszero\n      mul\n      or\n      swap1\n      sstore\n      pop\n        /* \"contracts/16-loops-in-solidity.sol\":908:966  function change() public {... */\n      jump\t// out\n        /* \"contracts/16-loops-in-solidity.sol\":749:902  function dynamicwhile() public view returns(bool)... */\n    tag_20:\n        /* \"contracts/16-loops-in-solidity.sol\":793:797  bool */\n      0x00\n        /* \"contracts/16-loops-in-solidity.sol\":819:825  isTrue */\n      0x00\n      0x00\n      swap1\n      sload\n      swap1\n      0x0100\n      exp\n      swap1\n      div\n      0xff\n      and\n        /* \"contracts/16-loops-in-solidity.sol\":813:873  while(isTrue)... */\n      iszero\n      tag_38\n      jumpi\n        /* \"contracts/16-loops-in-solidity.sol\":856:862  isTrue */\n      0x00\n      0x00\n      swap1\n      sload\n      swap1\n      0x0100\n      exp\n      swap1\n      div\n      0xff\n      and\n        /* \"contracts/16-loops-in-solidity.sol\":849:862  return isTrue */\n      swap1\n      pop\n      jump(tag_36)\n        /* \"contracts/16-loops-in-solidity.sol\":813:873  while(isTrue)... */\n    tag_38:\n        /* \"contracts/16-loops-in-solidity.sol\":890:895  false */\n      0x00\n        /* \"contracts/16-loops-in-solidity.sol\":883:895  return false */\n      swap1\n      pop\n        /* \"contracts/16-loops-in-solidity.sol\":749:902  function dynamicwhile() public view returns(bool)... */\n    tag_36:\n      swap1\n      jump\t// out\n        /* \"contracts/16-loops-in-solidity.sol\":309:521  function whileLoop() public pure returns (uint256) {... */\n    tag_23:\n        /* \"contracts/16-loops-in-solidity.sol\":351:358  uint256 */\n      0x00\n        /* \"contracts/16-loops-in-solidity.sol\":370:383  uint256 count */\n      0x00\n        /* \"contracts/16-loops-in-solidity.sol\":386:387  0 */\n      0x00\n        /* \"contracts/16-loops-in-solidity.sol\":370:387  uint256 count = 0 */\n      swap1\n      pop\n        /* \"contracts/16-loops-in-solidity.sol\":398:407  uint256 j */\n      0x00\n        /* \"contracts/16-loops-in-solidity.sol\":410:411  0 */\n      0x00\n        /* \"contracts/16-loops-in-solidity.sol\":398:411  uint256 j = 0 */\n      swap1\n      pop\n        /* \"contracts/16-loops-in-solidity.sol\":422:492  while (j < 10) {... */\n    tag_40:\n        /* \"contracts/16-loops-in-solidity.sol\":433:435  10 */\n      0x0a\n        /* \"contracts/16-loops-in-solidity.sol\":429:430  j */\n      dup2\n        /* \"contracts/16-loops-in-solidity.sol\":429:435  j < 10 */\n      lt\n        /* \"contracts/16-loops-in-solidity.sol\":422:492  while (j < 10) {... */\n      iszero\n      tag_41\n      jumpi\n        /* \"contracts/16-loops-in-solidity.sol\":460:461  5 */\n      0x05\n        /* \"contracts/16-loops-in-solidity.sol\":451:461  count += 5 */\n      dup3\n      tag_42\n      swap2\n      swap1\n      tag_33\n      jump\t// in\n    tag_42:\n      swap2\n      pop\n        /* \"contracts/16-loops-in-solidity.sol\":480:481  2 */\n      0x02\n        /* \"contracts/16-loops-in-solidity.sol\":475:481  j += 2 */\n      dup2\n      tag_43\n      swap2\n      swap1\n      tag_33\n      jump\t// in\n    tag_43:\n      swap1\n      pop\n        /* \"contracts/16-loops-in-solidity.sol\":422:492  while (j < 10) {... */\n      jump(tag_40)\n    tag_41:\n        /* \"contracts/16-loops-in-solidity.sol\":509:514  count */\n      dup2\n        /* \"contracts/16-loops-in-solidity.sol\":502:514  return count */\n      swap3\n      pop\n      pop\n      pop\n        /* \"contracts/16-loops-in-solidity.sol\":309:521  function whileLoop() public pure returns (uint256) {... */\n      swap1\n      jump\t// out\n        /* \"contracts/16-loops-in-solidity.sol\":117:303  function forLoop() public pure returns (uint256) {... */\n    tag_26:\n        /* \"contracts/16-loops-in-solidity.sol\":157:164  uint256 */\n      0x00\n        /* \"contracts/16-loops-in-solidity.sol\":176:189  uint256 count */\n      0x00\n        /* \"contracts/16-loops-in-solidity.sol\":192:193  0 */\n      0x00\n        /* \"contracts/16-loops-in-solidity.sol\":176:193  uint256 count = 0 */\n      swap1\n      pop\n        /* \"contracts/16-loops-in-solidity.sol\":208:217  uint256 i */\n      0x00\n        /* \"contracts/16-loops-in-solidity.sol\":220:221  0 */\n      0x00\n        /* \"contracts/16-loops-in-solidity.sol\":208:221  uint256 i = 0 */\n      swap1\n      pop\n        /* \"contracts/16-loops-in-solidity.sol\":203:274  for (uint256 i = 0; i < 10; i += 2) {... */\n    tag_45:\n        /* \"contracts/16-loops-in-solidity.sol\":227:229  10 */\n      0x0a\n        /* \"contracts/16-loops-in-solidity.sol\":223:224  i */\n      dup2\n        /* \"contracts/16-loops-in-solidity.sol\":223:229  i < 10 */\n      lt\n        /* \"contracts/16-loops-in-solidity.sol\":203:274  for (uint256 i = 0; i < 10; i += 2) {... */\n      iszero\n      tag_46\n      jumpi\n        /* \"contracts/16-loops-in-solidity.sol\":262:263  5 */\n      0x05\n        /* \"contracts/16-loops-in-solidity.sol\":253:263  count += 5 */\n      dup3\n      tag_48\n      swap2\n      swap1\n      tag_33\n      jump\t// in\n    tag_48:\n      swap2\n      pop\n        /* \"contracts/16-loops-in-solidity.sol\":236:237  2 */\n      0x02\n        /* \"contracts/16-loops-in-solidity.sol\":231:237  i += 2 */\n      dup2\n      tag_49\n      swap2\n      swap1\n      tag_33\n      jump\t// in\n    tag_49:\n      swap1\n      pop\n        /* \"contracts/16-loops-in-solidity.sol\":203:274  for (uint256 i = 0; i < 10; i += 2) {... */\n      jump(tag_45)\n    tag_46:\n      pop\n        /* \"contracts/16-loops-in-solidity.sol\":291:296  count */\n      dup1\n        /* \"contracts/16-loops-in-solidity.sol\":284:296  return count */\n      swap2\n      pop\n      pop\n        /* \"contracts/16-loops-in-solidity.sol\":117:303  function forLoop() public pure returns (uint256) {... */\n      swap1\n      jump\t// out\n        /* \"#utility.yul\":7:97   */\n    tag_50:\n        /* \"#utility.yul\":41:48   */\n      0x00\n        /* \"#utility.yul\":84:89   */\n      dup2\n        /* \"#utility.yul\":77:90   */\n      iszero\n        /* \"#utility.yul\":70:91   */\n      iszero\n        /* \"#utility.yul\":59:91   */\n      swap1\n      pop\n        /* \"#utility.yul\":7:97   */\n      swap2\n      swap1\n      pop\n      jump\t// out\n        /* \"#utility.yul\":103:212   */\n    tag_51:\n        /* \"#utility.yul\":184:205   */\n      tag_58\n        /* \"#utility.yul\":199:204   */\n      dup2\n        /* \"#utility.yul\":184:205   */\n      tag_50\n      jump\t// in\n    tag_58:\n        /* \"#utility.yul\":179:182   */\n      dup3\n        /* \"#utility.yul\":172:206   */\n      mstore\n        /* \"#utility.yul\":103:212   */\n      pop\n      pop\n      jump\t// out\n        /* \"#utility.yul\":218:428   */\n    tag_12:\n        /* \"#utility.yul\":305:309   */\n      0x00\n        /* \"#utility.yul\":343:345   */\n      0x20\n        /* \"#utility.yul\":332:341   */\n      dup3\n        /* \"#utility.yul\":328:346   */\n      add\n        /* \"#utility.yul\":320:346   */\n      swap1\n      pop\n        /* \"#utility.yul\":356:421   */\n      tag_60\n        /* \"#utility.yul\":418:419   */\n      0x00\n        /* \"#utility.yul\":407:416   */\n      dup4\n        /* \"#utility.yul\":403:420   */\n      add\n        /* \"#utility.yul\":394:400   */\n      dup5\n        /* \"#utility.yul\":356:421   */\n      tag_51\n      jump\t// in\n    tag_60:\n        /* \"#utility.yul\":218:428   */\n      swap3\n      swap2\n      pop\n      pop\n      jump\t// out\n        /* \"#utility.yul\":434:511   */\n    tag_52:\n        /* \"#utility.yul\":471:478   */\n      0x00\n        /* \"#utility.yul\":500:505   */\n      dup2\n        /* \"#utility.yul\":489:505   */\n      swap1\n      pop\n        /* \"#utility.yul\":434:511   */\n      swap2\n      swap1\n      pop\n      jump\t// out\n        /* \"#utility.yul\":517:635   */\n    tag_53:\n        /* \"#utility.yul\":604:628   */\n      tag_63\n        /* \"#utility.yul\":622:627   */\n      dup2\n        /* \"#utility.yul\":604:628   */\n      tag_52\n      jump\t// in\n    tag_63:\n        /* \"#utility.yul\":599:602   */\n      dup3\n        /* \"#utility.yul\":592:629   */\n      mstore\n        /* \"#utility.yul\":517:635   */\n      pop\n      pop\n      jump\t// out\n        /* \"#utility.yul\":641:863   */\n    tag_16:\n        /* \"#utility.yul\":734:738   */\n      0x00\n        /* \"#utility.yul\":772:774   */\n      0x20\n        /* \"#utility.yul\":761:770   */\n      dup3\n        /* \"#utility.yul\":757:775   */\n      add\n        /* \"#utility.yul\":749:775   */\n      swap1\n      pop\n        /* \"#utility.yul\":785:856   */\n      tag_65\n        /* \"#utility.yul\":853:854   */\n      0x00\n        /* \"#utility.yul\":842:851   */\n      dup4\n        /* \"#utility.yul\":838:855   */\n      add\n        /* \"#utility.yul\":829:835   */\n      dup5\n        /* \"#utility.yul\":785:856   */\n      tag_53\n      jump\t// in\n    tag_65:\n        /* \"#utility.yul\":641:863   */\n      swap3\n      swap2\n      pop\n      pop\n      jump\t// out\n        /* \"#utility.yul\":869:1049   */\n    tag_54:\n        /* \"#utility.yul\":917:994   */\n      0x4e487b7100000000000000000000000000000000000000000000000000000000\n        /* \"#utility.yul\":914:915   */\n      0x00\n        /* \"#utility.yul\":907:995   */\n      mstore\n        /* \"#utility.yul\":1014:1018   */\n      0x11\n        /* \"#utility.yul\":1011:1012   */\n      0x04\n        /* \"#utility.yul\":1004:1019   */\n      mstore\n        /* \"#utility.yul\":1038:1042   */\n      0x24\n        /* \"#utility.yul\":1035:1036   */\n      0x00\n        /* \"#utility.yul\":1028:1043   */\n      revert\n        /* \"#utility.yul\":1055:1246   */\n    tag_33:\n        /* \"#utility.yul\":1095:1098   */\n      0x00\n        /* \"#utility.yul\":1114:1134   */\n      tag_68\n        /* \"#utility.yul\":1132:1133   */\n      dup3\n        /* \"#utility.yul\":1114:1134   */\n      tag_52\n      jump\t// in\n    tag_68:\n        /* \"#utility.yul\":1109:1134   */\n      swap2\n      pop\n        /* \"#utility.yul\":1148:1168   */\n      tag_69\n        /* \"#utility.yul\":1166:1167   */\n      dup4\n        /* \"#utility.yul\":1148:1168   */\n      tag_52\n      jump\t// in\n    tag_69:\n        /* \"#utility.yul\":1143:1168   */\n      swap3\n      pop\n        /* \"#utility.yul\":1191:1192   */\n      dup3\n        /* \"#utility.yul\":1188:1189   */\n      dup3\n        /* \"#utility.yul\":1184:1193   */\n      add\n        /* \"#utility.yul\":1177:1193   */\n      swap1\n      pop\n        /* \"#utility.yul\":1212:1215   */\n      dup1\n        /* \"#utility.yul\":1209:1210   */\n      dup3\n        /* \"#utility.yul\":1206:1216   */\n      gt\n        /* \"#utility.yul\":1203:1239   */\n      iszero\n      tag_70\n      jumpi\n        /* \"#utility.yul\":1219:1237   */\n      tag_71\n      tag_54\n      jump\t// in\n    tag_71:\n        /* \"#utility.yul\":1203:1239   */\n    tag_70:\n        /* \"#utility.yul\":1055:1246   */\n      swap3\n      swap2\n      pop\n      pop\n      jump\t// out\n\n    auxdata: 0xa2646970667358221220f58127311b187c8f868c2d53d50533f3d44bdd4ee2ece6ab3b5efb51cd701fa864736f6c634300081e0033\n}\n",
				"bytecode": {
					"linkReferences": {},
					"object": "608060405260015f5f6101000a81548160ff0219169083151502179055503480156027575f5ffd5b5061031a806100355f395ff3fe608060405234801561000f575f5ffd5b506004361061005f575f3560e01c806274530a1461006357806328eb7ef3146100815780632ee79ded1461009f57806379365f54146100a9578063e7c898ef146100c7578063fc0e6008146100e5575b5f5ffd5b61006b610103565b604051610078919061023a565b60405180910390f35b610089610114565b604051610096919061026b565b60405180910390f35b6100a761014c565b005b6100b1610174565b6040516100be919061023a565b60405180910390f35b6100cf6101a4565b6040516100dc919061026b565b60405180910390f35b6100ed6101e2565b6040516100fa919061026b565b60405180910390f35b5f5f9054906101000a900460ff1681565b5f5f5f90505f5f90505b60058261012b91906102b1565b915060028161013a91906102b1565b9050600a811061011e57819250505090565b5f5f9054906101000a900460ff16155f5f6101000a81548160ff021916908315150217905550565b5f5f5f9054906101000a900460ff161561019d575f5f9054906101000a900460ff1690506101a1565b5f90505b90565b5f5f5f90505f5f90505b600a8110156101da576005826101c491906102b1565b91506002816101d391906102b1565b90506101ae565b819250505090565b5f5f5f90505f5f90505b600a8110156102185760058261020291906102b1565b915060028161021191906102b1565b90506101ec565b508091505090565b5f8115159050919050565b61023481610220565b82525050565b5f60208201905061024d5f83018461022b565b92915050565b5f819050919050565b61026581610253565b82525050565b5f60208201905061027e5f83018461025c565b92915050565b7f4e487b71000000000000000000000000000000000000000000000000000000005f52601160045260245ffd5b5f6102bb82610253565b91506102c683610253565b92508282019050808211156102de576102dd610284565b5b9291505056fea2646970667358221220f58127311b187c8f868c2d53d50533f3d44bdd4ee2ece6ab3b5efb51cd701fa864736f6c634300081e0033",
					"opcodes": "PUSH1 0x80 PUSH1 0x40 MSTORE PUSH1 0x1 PUSH0 PUSH0 PUSH2 0x100 EXP DUP2 SLOAD DUP2 PUSH1 0xFF MUL NOT AND SWAP1 DUP4 ISZERO ISZERO MUL OR SWAP1 SSTORE POP CALLVALUE DUP1 ISZERO PUSH1 0x27 JUMPI PUSH0 PUSH0 REVERT JUMPDEST POP PUSH2 0x31A DUP1 PUSH2 0x35 PUSH0 CODECOPY PUSH0 RETURN INVALID PUSH1 0x80 PUSH1 0x40 MSTORE CALLVALUE DUP1 ISZERO PUSH2 0xF JUMPI PUSH0 PUSH0 REVERT JUMPDEST POP PUSH1 0x4 CALLDATASIZE LT PUSH2 0x5F JUMPI PUSH0 CALLDATALOAD PUSH1 0xE0 SHR DUP1 PUSH3 0x74530A EQ PUSH2 0x63 JUMPI DUP1 PUSH4 0x28EB7EF3 EQ PUSH2 0x81 JUMPI DUP1 PUSH4 0x2EE79DED EQ PUSH2 0x9F JUMPI DUP1 PUSH4 0x79365F54 EQ PUSH2 0xA9 JUMPI DUP1 PUSH4 0xE7C898EF EQ PUSH2 0xC7 JUMPI DUP1 PUSH4 0xFC0E6008 EQ PUSH2 0xE5 JUMPI JUMPDEST PUSH0 PUSH0 REVERT JUMPDEST PUSH2 0x6B PUSH2 0x103 JUMP JUMPDEST PUSH1 0x40 MLOAD PUSH2 0x78 SWAP2 SWAP1 PUSH2 0x23A JUMP JUMPDEST PUSH1 0x40 MLOAD DUP1 SWAP2 SUB SWAP1 RETURN JUMPDEST PUSH2 0x89 PUSH2 0x114 JUMP JUMPDEST PUSH1 0x40 MLOAD PUSH2 0x96 SWAP2 SWAP1 PUSH2 0x26B JUMP JUMPDEST PUSH1 0x40 MLOAD DUP1 SWAP2 SUB SWAP1 RETURN JUMPDEST PUSH2 0xA7 PUSH2 0x14C JUMP JUMPDEST STOP JUMPDEST PUSH2 0xB1 PUSH2 0x174 JUMP JUMPDEST PUSH1 0x40 MLOAD PUSH2 0xBE SWAP2 SWAP1 PUSH2 0x23A JUMP JUMPDEST PUSH1 0x40 MLOAD DUP1 SWAP2 SUB SWAP1 RETURN JUMPDEST PUSH2 0xCF PUSH2 0x1A4 JUMP JUMPDEST PUSH1 0x40 MLOAD PUSH2 0xDC SWAP2 SWAP1 PUSH2 0x26B JUMP JUMPDEST PUSH1 0x40 MLOAD DUP1 SWAP2 SUB SWAP1 RETURN JUMPDEST PUSH2 0xED PUSH2 0x1E2 JUMP JUMPDEST PUSH1 0x40 MLOAD PUSH2 0xFA SWAP2 SWAP1 PUSH2 0x26B JUMP JUMPDEST PUSH1 0x40 MLOAD DUP1 SWAP2 SUB SWAP1 RETURN JUMPDEST PUSH0 PUSH0 SWAP1 SLOAD SWAP1 PUSH2 0x100 EXP SWAP1 DIV PUSH1 0xFF AND DUP2 JUMP JUMPDEST PUSH0 PUSH0 PUSH0 SWAP1 POP PUSH0 PUSH0 SWAP1 POP JUMPDEST PUSH1 0x5 DUP3 PUSH2 0x12B SWAP2 SWAP1 PUSH2 0x2B1 JUMP JUMPDEST SWAP2 POP PUSH1 0x2 DUP2 PUSH2 0x13A SWAP2 SWAP1 PUSH2 0x2B1 JUMP JUMPDEST SWAP1 POP PUSH1 0xA DUP2 LT PUSH2 0x11E JUMPI DUP2 SWAP3 POP POP POP SWAP1 JUMP JUMPDEST PUSH0 PUSH0 SWAP1 SLOAD SWAP1 PUSH2 0x100 EXP SWAP1 DIV PUSH1 0xFF AND ISZERO PUSH0 PUSH0 PUSH2 0x100 EXP DUP2 SLOAD DUP2 PUSH1 0xFF MUL NOT AND SWAP1 DUP4 ISZERO ISZERO MUL OR SWAP1 SSTORE POP JUMP JUMPDEST PUSH0 PUSH0 PUSH0 SWAP1 SLOAD SWAP1 PUSH2 0x100 EXP SWAP1 DIV PUSH1 0xFF AND ISZERO PUSH2 0x19D JUMPI PUSH0 PUSH0 SWAP1 SLOAD SWAP1 PUSH2 0x100 EXP SWAP1 DIV PUSH1 0xFF AND SWAP1 POP PUSH2 0x1A1 JUMP JUMPDEST PUSH0 SWAP1 POP JUMPDEST SWAP1 JUMP JUMPDEST PUSH0 PUSH0 PUSH0 SWAP1 POP PUSH0 PUSH0 SWAP1 POP JUMPDEST PUSH1 0xA DUP2 LT ISZERO PUSH2 0x1DA JUMPI PUSH1 0x5 DUP3 PUSH2 0x1C4 SWAP2 SWAP1 PUSH2 0x2B1 JUMP JUMPDEST SWAP2 POP PUSH1 0x2 DUP2 PUSH2 0x1D3 SWAP2 SWAP1 PUSH2 0x2B1 JUMP JUMPDEST SWAP1 POP PUSH2 0x1AE JUMP JUMPDEST DUP2 SWAP3 POP POP POP SWAP1 JUMP JUMPDEST PUSH0 PUSH0 PUSH0 SWAP1 POP PUSH0 PUSH0 SWAP1 POP JUMPDEST PUSH1 0xA DUP2 LT ISZERO PUSH2 0x218 JUMPI PUSH1 0x5 DUP3 PUSH2 0x202 SWAP2 SWAP1 PUSH2 0x2B1 JUMP JUMPDEST SWAP2 POP PUSH1 0x2 DUP2 PUSH2 0x211 SWAP2 SWAP1 PUSH2 0x2B1 JUMP JUMPDEST SWAP1 POP PUSH2 0x1EC JUMP JUMPDEST POP DUP1 SWAP2 POP POP SWAP1 JUMP JUMPDEST PUSH0 DUP2 ISZERO ISZERO SWAP1 POP SWAP2 SWAP1 POP JUMP JUMPDEST PUSH2 0x234 DUP2 PUSH2 0x220 JUMP JUMPDEST DUP3 MSTORE POP POP JUMP JUMPDEST PUSH0 PUSH1 0x20 DUP3 ADD SWAP1 POP PUSH2 0x24D PUSH0 DUP4 ADD DUP5 PUSH2 0x22B JUMP JUMPDEST SWAP3 SWAP2 POP POP JUMP JUMPDEST PUSH0 DUP2 SWAP1 POP SWAP2 SWAP1 POP JUMP JUMPDEST PUSH2 0x265 DUP2 PUSH2 0x253 JUMP JUMPDEST DUP3 MSTORE POP POP JUMP JUMPDEST PUSH0 PUSH1 0x20 DUP3 ADD SWAP1 POP PUSH2 0x27E PUSH0 DUP4 ADD DUP5 PUSH2 0x25C JUMP JUMPDEST SWAP3 SWAP2 POP POP JUMP JUMPDEST PUSH32 0x4E487B7100000000000000000000000000000000000000000000000000000000 PUSH0 MSTORE PUSH1 0x11 PUSH1 0x4 MSTORE PUSH1 0x24 PUSH0 REVERT JUMPDEST PUSH0 PUSH2 0x2BB DUP3 PUSH2 0x253 JUMP JUMPDEST SWAP2 POP PUSH2 0x2C6 DUP4 PUSH2 0x253 JUMP JUMPDEST SWAP3 POP DUP3 DUP3 ADD SWAP1 POP DUP1 DUP3 GT ISZERO PUSH2 0x2DE JUMPI PUSH2 0x2DD PUSH2 0x284 JUMP JUMPDEST JUMPDEST SWAP3 SWAP2 POP POP JUMP INVALID LOG2 PUSH5 0x6970667358 0x22 SLT KECCAK256 CREATE2 DUP2 0x27 BALANCE SHL XOR PUSH29 0x8F868C2D53D50533F3D44BDD4EE2ECE6AB3B5EFB51CD701FA864736F6C PUSH4 0x4300081E STOP CALLER "
				},
				"gasEstimates": {
					"creation": {
						"codeDepositCost": "158800",
						"executionCost": "24465",
						"totalCost": "183265"
					},
					"external": {
						"change()": "26567",
						"dowhileLoop()": "infinite",
						"dynamicwhile()": "4681",
						"forLoop()": "infinite",
						"isTrue()": "2443",
						"whileLoop()": "infinite"
					}
				},
				"methodIdentifiers": {
					"change()": "2ee79ded",
					"dowhileLoop()": "28eb7ef3",
					"dynamicwhile()": "79365f54",
					"forLoop()": "fc0e6008",
					"isTrue()": "0074530a",
					"whileLoop()": "e7c898ef"
				}
			},
			"storageLayout": {
				"storage": [
					{
						"astId": 4,
						"contract": "contracts/16-loops-in-solidity.sol:ifElse",
						"label": "isTrue",
						"offset": 0,
						"slot": "0",
						"type": "t_bool"
					}
				],
				"types": {
					"t_bool": {
						"encoding": "inplace",
						"label": "bool",
						"numberOfBytes": "1"
					}
				}
			},
			"userdoc": {
				"kind": "user",
				"methods": {},
				"version": 1
			}
		}
	}
}