{
	"contracts/17-continue-and-break.sol": {
		"Loops": {
			"abi": [
				{
					"inputs": [],
					"name": "dowhileLoop",
					"outputs": [
						{
							"internalType": "uint256",
							"name": "",
							"type": "uint256"
						}
					],
					"stateMutability": "pure",
					"type": "function"
				},
				{
					"inputs": [],
					"name": "forLoop",
					"outputs": [
						{
							"internalType": "uint256",
							"name": "",
							"type": "uint256"
						}
					],
					"stateMutability": "pure",
					"type": "function"
				},
				{
					"inputs": [],
					"name": "whileLoop",
					"outputs": [
						{
							"internalType": "uint256",
							"name": "",
							"type": "uint256"
						}
					],
					"stateMutability": "pure",
					"type": "function"
				}
			],
			"devdoc": {
				"kind": "dev",
				"methods": {},
				"version": 1
			},
			"evm": {
				"assembly": "    /* \"contracts/17-continue-and-break.sol\":63:1027  contract Loops {... */\n  mstore(0x40, 0x80)\n  callvalue\n  dup1\n  iszero\n  tag_1\n  jumpi\n  revert(0x00, 0x00)\ntag_1:\n  pop\n  dataSize(sub_0)\n  dup1\n  dataOffset(sub_0)\n  0x00\n  codecopy\n  0x00\n  return\nstop\n\nsub_0: assembly {\n        /* \"contracts/17-continue-and-break.sol\":63:1027  contract Loops {... */\n      mstore(0x40, 0x80)\n      callvalue\n      dup1\n      iszero\n      tag_1\n      jumpi\n      revert(0x00, 0x00)\n    tag_1:\n      pop\n      jumpi(tag_2, lt(calldatasize, 0x04))\n      shr(0xe0, calldataload(0x00))\n      dup1\n      0x28eb7ef3\n      eq\n      tag_3\n      jumpi\n      dup1\n      0xe7c898ef\n      eq\n      tag_4\n      jumpi\n      dup1\n      0xfc0e6008\n      eq\n      tag_5\n      jumpi\n    tag_2:\n      revert(0x00, 0x00)\n        /* \"contracts/17-continue-and-break.sol\":747:1025  function dowhileLoop() public pure returns (uint256) {... */\n    tag_3:\n      tag_6\n      tag_7\n      jump\t// in\n    tag_6:\n      mload(0x40)\n      tag_8\n      swap2\n      swap1\n      tag_9\n      jump\t// in\n    tag_8:\n      mload(0x40)\n      dup1\n      swap2\n      sub\n      swap1\n      return\n        /* \"contracts/17-continue-and-break.sol\":421:741  function whileLoop() public pure returns (uint256) {... */\n    tag_4:\n      tag_10\n      tag_11\n      jump\t// in\n    tag_10:\n      mload(0x40)\n      tag_12\n      swap2\n      swap1\n      tag_9\n      jump\t// in\n    tag_12:\n      mload(0x40)\n      dup1\n      swap2\n      sub\n      swap1\n      return\n        /* \"contracts/17-continue-and-break.sol\":84:415  function forLoop() public pure returns (uint256) {... */\n    tag_5:\n      tag_13\n      tag_14\n      jump\t// in\n    tag_13:\n      mload(0x40)\n      tag_15\n      swap2\n      swap1\n      tag_9\n      jump\t// in\n    tag_15:\n      mload(0x40)\n      dup1\n      swap2\n      sub\n      swap1\n      return\n        /* \"contracts/17-continue-and-break.sol\":747:1025  function dowhileLoop() public pure returns (uint256) {... */\n    tag_7:\n        /* \"contracts/17-continue-and-break.sol\":791:798  uint256 */\n      0x00\n        /* \"contracts/17-continue-and-break.sol\":810:823  uint256 count */\n      0x00\n        /* \"contracts/17-continue-and-break.sol\":826:827  0 */\n      0x00\n        /* \"contracts/17-continue-and-break.sol\":810:827  uint256 count = 0 */\n      swap1\n      pop\n        /* \"contracts/17-continue-and-break.sol\":837:846  uint256 k */\n      0x00\n        /* \"contracts/17-continue-and-break.sol\":849:850  0 */\n      0x00\n        /* \"contracts/17-continue-and-break.sol\":837:850  uint256 k = 0 */\n      swap1\n      pop\n        /* \"contracts/17-continue-and-break.sol\":887:888  5 */\n      0x05\n        /* \"contracts/17-continue-and-break.sol\":878:888  count += 5 */\n      dup3\n      tag_20\n      swap2\n      swap1\n      tag_21\n      jump\t// in\n    tag_20:\n      swap2\n      pop\n        /* \"contracts/17-continue-and-break.sol\":907:908  2 */\n      0x02\n        /* \"contracts/17-continue-and-break.sol\":902:908  k += 2 */\n      dup2\n      tag_22\n      swap2\n      swap1\n      tag_21\n      jump\t// in\n    tag_22:\n      swap1\n      pop\n        /* \"contracts/17-continue-and-break.sol\":1013:1018  count */\n      dup2\n        /* \"contracts/17-continue-and-break.sol\":1006:1018  return count */\n      swap3\n      pop\n      pop\n      pop\n        /* \"contracts/17-continue-and-break.sol\":747:1025  function dowhileLoop() public pure returns (uint256) {... */\n      swap1\n      jump\t// out\n        /* \"contracts/17-continue-and-break.sol\":421:741  function whileLoop() public pure returns (uint256) {... */\n    tag_11:\n        /* \"contracts/17-continue-and-break.sol\":463:470  uint256 */\n      0x00\n        /* \"contracts/17-continue-and-break.sol\":482:495  uint256 count */\n      0x00\n        /* \"contracts/17-continue-and-break.sol\":498:499  0 */\n      0x00\n        /* \"contracts/17-continue-and-break.sol\":482:499  uint256 count = 0 */\n      swap1\n      pop\n        /* \"contracts/17-continue-and-break.sol\":510:519  uint256 j */\n      0x00\n        /* \"contracts/17-continue-and-break.sol\":522:523  0 */\n      0x00\n        /* \"contracts/17-continue-and-break.sol\":510:523  uint256 j = 0 */\n      swap1\n      pop\n        /* \"contracts/17-continue-and-break.sol\":534:712  while (j < 10) {... */\n    tag_24:\n        /* \"contracts/17-continue-and-break.sol\":545:547  10 */\n      0x0a\n        /* \"contracts/17-continue-and-break.sol\":541:542  j */\n      dup2\n        /* \"contracts/17-continue-and-break.sol\":541:547  j < 10 */\n      lt\n        /* \"contracts/17-continue-and-break.sol\":534:712  while (j < 10) {... */\n      iszero\n      tag_25\n      jumpi\n        /* \"contracts/17-continue-and-break.sol\":572:573  6 */\n      0x06\n        /* \"contracts/17-continue-and-break.sol\":567:568  j */\n      dup2\n        /* \"contracts/17-continue-and-break.sol\":567:573  j == 6 */\n      sub\n        /* \"contracts/17-continue-and-break.sol\":563:658  if (j == 6) {... */\n      iszero\n        /* \"contracts/17-continue-and-break.sol\":638:643  break */\n      tag_25\n        /* \"contracts/17-continue-and-break.sol\":563:658  if (j == 6) {... */\n      jumpi\n        /* \"contracts/17-continue-and-break.sol\":680:681  5 */\n      0x05\n        /* \"contracts/17-continue-and-break.sol\":671:681  count += 5 */\n      dup3\n      tag_27\n      swap2\n      swap1\n      tag_21\n      jump\t// in\n    tag_27:\n      swap2\n      pop\n        /* \"contracts/17-continue-and-break.sol\":700:701  2 */\n      0x02\n        /* \"contracts/17-continue-and-break.sol\":695:701  j += 2 */\n      dup2\n      tag_28\n      swap2\n      swap1\n      tag_21\n      jump\t// in\n    tag_28:\n      swap1\n      pop\n        /* \"contracts/17-continue-and-break.sol\":534:712  while (j < 10) {... */\n      jump(tag_24)\n    tag_25:\n        /* \"contracts/17-continue-and-break.sol\":729:734  count */\n      dup2\n        /* \"contracts/17-continue-and-break.sol\":722:734  return count */\n      swap3\n      pop\n      pop\n      pop\n        /* \"contracts/17-continue-and-break.sol\":421:741  function whileLoop() public pure returns (uint256) {... */\n      swap1\n      jump\t// out\n        /* \"contracts/17-continue-and-break.sol\":84:415  function forLoop() public pure returns (uint256) {... */\n    tag_14:\n        /* \"contracts/17-continue-and-break.sol\":124:131  uint256 */\n      0x00\n        /* \"contracts/17-continue-and-break.sol\":143:156  uint256 count */\n      0x00\n        /* \"contracts/17-continue-and-break.sol\":159:160  0 */\n      0x00\n        /* \"contracts/17-continue-and-break.sol\":143:160  uint256 count = 0 */\n      swap1\n      pop\n        /* \"contracts/17-continue-and-break.sol\":175:184  uint256 i */\n      0x00\n        /* \"contracts/17-continue-and-break.sol\":187:188  0 */\n      0x00\n        /* \"contracts/17-continue-and-break.sol\":175:188  uint256 i = 0 */\n      swap1\n      pop\n        /* \"contracts/17-continue-and-break.sol\":170:386  for (uint256 i = 0; i < 10; i += 2) {... */\n    tag_30:\n        /* \"contracts/17-continue-and-break.sol\":194:196  10 */\n      0x0a\n        /* \"contracts/17-continue-and-break.sol\":190:191  i */\n      dup2\n        /* \"contracts/17-continue-and-break.sol\":190:196  i < 10 */\n      lt\n        /* \"contracts/17-continue-and-break.sol\":170:386  for (uint256 i = 0; i < 10; i += 2) {... */\n      iszero\n      tag_31\n      jumpi\n        /* \"contracts/17-continue-and-break.sol\":308:309  8 */\n      0x08\n        /* \"contracts/17-continue-and-break.sol\":303:304  i */\n      dup2\n        /* \"contracts/17-continue-and-break.sol\":303:309  i == 8 */\n      sub\n        /* \"contracts/17-continue-and-break.sol\":299:352  if (i == 8) {... */\n      iszero\n        /* \"contracts/17-continue-and-break.sol\":329:337  continue */\n      tag_32\n        /* \"contracts/17-continue-and-break.sol\":299:352  if (i == 8) {... */\n      jumpi\n        /* \"contracts/17-continue-and-break.sol\":374:375  5 */\n      0x05\n        /* \"contracts/17-continue-and-break.sol\":365:375  count += 5 */\n      dup3\n      tag_34\n      swap2\n      swap1\n      tag_21\n      jump\t// in\n    tag_34:\n      swap2\n      pop\n        /* \"contracts/17-continue-and-break.sol\":170:386  for (uint256 i = 0; i < 10; i += 2) {... */\n    tag_32:\n        /* \"contracts/17-continue-and-break.sol\":203:204  2 */\n      0x02\n        /* \"contracts/17-continue-and-break.sol\":198:204  i += 2 */\n      dup2\n      tag_35\n      swap2\n      swap1\n      tag_21\n      jump\t// in\n    tag_35:\n      swap1\n      pop\n        /* \"contracts/17-continue-and-break.sol\":170:386  for (uint256 i = 0; i < 10; i += 2) {... */\n      jump(tag_30)\n    tag_31:\n      pop\n        /* \"contracts/17-continue-and-break.sol\":403:408  count */\n      dup1\n        /* \"contracts/17-continue-and-break.sol\":396:408  return count */\n      swap2\n      pop\n      pop\n        /* \"contracts/17-continue-and-break.sol\":84:415  function forLoop() public pure returns (uint256) {... */\n      swap1\n      jump\t// out\n        /* \"#utility.yul\":7:84   */\n    tag_36:\n        /* \"#utility.yul\":44:51   */\n      0x00\n        /* \"#utility.yul\":73:78   */\n      dup2\n        /* \"#utility.yul\":62:78   */\n      swap1\n      pop\n        /* \"#utility.yul\":7:84   */\n      swap2\n      swap1\n      pop\n      jump\t// out\n        /* \"#utility.yul\":90:208   */\n    tag_37:\n        /* \"#utility.yul\":177:201   */\n      tag_42\n        /* \"#utility.yul\":195:200   */\n      dup2\n        /* \"#utility.yul\":177:201   */\n      tag_36\n      jump\t// in\n    tag_42:\n        /* \"#utility.yul\":172:175   */\n      dup3\n        /* \"#utility.yul\":165:202   */\n      mstore\n        /* \"#utility.yul\":90:208   */\n      pop\n      pop\n      jump\t// out\n        /* \"#utility.yul\":214:436   */\n    tag_9:\n        /* \"#utility.yul\":307:311   */\n      0x00\n        /* \"#utility.yul\":345:347   */\n      0x20\n        /* \"#utility.yul\":334:343   */\n      dup3\n        /* \"#utility.yul\":330:348   */\n      add\n        /* \"#utility.yul\":322:348   */\n      swap1\n      pop\n        /* \"#utility.yul\":358:429   */\n      tag_44\n        /* \"#utility.yul\":426:427   */\n      0x00\n        /* \"#utility.yul\":415:424   */\n      dup4\n        /* \"#utility.yul\":411:428   */\n      add\n        /* \"#utility.yul\":402:408   */\n      dup5\n        /* \"#utility.yul\":358:429   */\n      tag_37\n      jump\t// in\n    tag_44:\n        /* \"#utility.yul\":214:436   */\n      swap3\n      swap2\n      pop\n      pop\n      jump\t// out\n        /* \"#utility.yul\":442:622   */\n    tag_38:\n        /* \"#utility.yul\":490:567   */\n      0x4e487b7100000000000000000000000000000000000000000000000000000000\n        /* \"#utility.yul\":487:488   */\n      0x00\n        /* \"#utility.yul\":480:568   */\n      mstore\n        /* \"#utility.yul\":587:591   */\n      0x11\n        /* \"#utility.yul\":584:585   */\n      0x04\n        /* \"#utility.yul\":577:592   */\n      mstore\n        /* \"#utility.yul\":611:615   */\n      0x24\n        /* \"#utility.yul\":608:609   */\n      0x00\n        /* \"#utility.yul\":601:616   */\n      revert\n        /* \"#utility.yul\":628:819   */\n    tag_21:\n        /* \"#utility.yul\":668:671   */\n      0x00\n        /* \"#utility.yul\":687:707   */\n      tag_47\n        /* \"#utility.yul\":705:706   */\n      dup3\n        /* \"#utility.yul\":687:707   */\n      tag_36\n      jump\t// in\n    tag_47:\n        /* \"#utility.yul\":682:707   */\n      swap2\n      pop\n        /* \"#utility.yul\":721:741   */\n      tag_48\n        /* \"#utility.yul\":739:740   */\n      dup4\n        /* \"#utility.yul\":721:741   */\n      tag_36\n      jump\t// in\n    tag_48:\n        /* \"#utility.yul\":716:741   */\n      swap3\n      pop\n        /* \"#utility.yul\":764:765   */\n      dup3\n        /* \"#utility.yul\":761:762   */\n      dup3\n        /* \"#utility.yul\":757:766   */\n      add\n        /* \"#utility.yul\":750:766   */\n      swap1\n      pop\n        /* \"#utility.yul\":785:788   */\n      dup1\n        /* \"#utility.yul\":782:783   */\n      dup3\n        /* \"#utility.yul\":779:789   */\n      gt\n        /* \"#utility.yul\":776:812   */\n      iszero\n      tag_49\n      jumpi\n        /* \"#utility.yul\":792:810   */\n      tag_50\n      tag_38\n      jump\t// in\n    tag_50:\n        /* \"#utility.yul\":776:812   */\n    tag_49:\n        /* \"#utility.yul\":628:819   */\n      swap3\n      swap2\n      pop\n      pop\n      jump\t// out\n\n    auxdata: 0xa2646970667358221220633bf34ff0619d54a62ec09eec9f2d99da4bc13cc1de5f6087ace4c0485dc47964736f6c634300081e0033\n}\n",
				"bytecode": {
					"linkReferences": {},
					"object": "6080604052348015600e575f5ffd5b506102228061001c5f395ff3fe608060405234801561000f575f5ffd5b506004361061003f575f3560e01c806328eb7ef314610043578063e7c898ef14610061578063fc0e60081461007f575b5f5ffd5b61004b61009d565b6040516100589190610173565b60405180910390f35b6100696100cc565b6040516100769190610173565b60405180910390f35b610087610113565b6040516100949190610173565b60405180910390f35b5f5f5f90505f5f90506005826100b391906101b9565b91506002816100c291906101b9565b9050819250505090565b5f5f5f90505f5f90505b600a81101561010b57600681031561010b576005826100f591906101b9565b915060028161010491906101b9565b90506100d6565b819250505090565b5f5f5f90505f5f90505b600a81101561015357600881031561013f5760058261013c91906101b9565b91505b60028161014c91906101b9565b905061011d565b508091505090565b5f819050919050565b61016d8161015b565b82525050565b5f6020820190506101865f830184610164565b92915050565b7f4e487b71000000000000000000000000000000000000000000000000000000005f52601160045260245ffd5b5f6101c38261015b565b91506101ce8361015b565b92508282019050808211156101e6576101e561018c565b5b9291505056fea2646970667358221220633bf34ff0619d54a62ec09eec9f2d99da4bc13cc1de5f6087ace4c0485dc47964736f6c634300081e0033",
					"opcodes": "PUSH1 0x80 PUSH1 0x40 MSTORE CALLVALUE DUP1 ISZERO PUSH1 0xE JUMPI PUSH0 PUSH0 REVERT JUMPDEST POP PUSH2 0x222 DUP1 PUSH2 0x1C PUSH0 CODECOPY PUSH0 RETURN INVALID PUSH1 0x80 PUSH1 0x40 MSTORE CALLVALUE DUP1 ISZERO PUSH2 0xF JUMPI PUSH0 PUSH0 REVERT JUMPDEST POP PUSH1 0x4 CALLDATASIZE LT PUSH2 0x3F JUMPI PUSH0 CALLDATALOAD PUSH1 0xE0 SHR DUP1 PUSH4 0x28EB7EF3 EQ PUSH2 0x43 JUMPI DUP1 PUSH4 0xE7C898EF EQ PUSH2 0x61 JUMPI DUP1 PUSH4 0xFC0E6008 EQ PUSH2 0x7F JUMPI JUMPDEST PUSH0 PUSH0 REVERT JUMPDEST PUSH2 0x4B PUSH2 0x9D JUMP JUMPDEST PUSH1 0x40 MLOAD PUSH2 0x58 SWAP2 SWAP1 PUSH2 0x173 JUMP JUMPDEST PUSH1 0x40 MLOAD DUP1 SWAP2 SUB SWAP1 RETURN JUMPDEST PUSH2 0x69 PUSH2 0xCC JUMP JUMPDEST PUSH1 0x40 MLOAD PUSH2 0x76 SWAP2 SWAP1 PUSH2 0x173 JUMP JUMPDEST PUSH1 0x40 MLOAD DUP1 SWAP2 SUB SWAP1 RETURN JUMPDEST PUSH2 0x87 PUSH2 0x113 JUMP JUMPDEST PUSH1 0x40 MLOAD PUSH2 0x94 SWAP2 SWAP1 PUSH2 0x173 JUMP JUMPDEST PUSH1 0x40 MLOAD DUP1 SWAP2 SUB SWAP1 RETURN JUMPDEST PUSH0 PUSH0 PUSH0 SWAP1 POP PUSH0 PUSH0 SWAP1 POP PUSH1 0x5 DUP3 PUSH2 0xB3 SWAP2 SWAP1 PUSH2 0x1B9 JUMP JUMPDEST SWAP2 POP PUSH1 0x2 DUP2 PUSH2 0xC2 SWAP2 SWAP1 PUSH2 0x1B9 JUMP JUMPDEST SWAP1 POP DUP2 SWAP3 POP POP POP SWAP1 JUMP JUMPDEST PUSH0 PUSH0 PUSH0 SWAP1 POP PUSH0 PUSH0 SWAP1 POP JUMPDEST PUSH1 0xA DUP2 LT ISZERO PUSH2 0x10B JUMPI PUSH1 0x6 DUP2 SUB ISZERO PUSH2 0x10B JUMPI PUSH1 0x5 DUP3 PUSH2 0xF5 SWAP2 SWAP1 PUSH2 0x1B9 JUMP JUMPDEST SWAP2 POP PUSH1 0x2 DUP2 PUSH2 0x104 SWAP2 SWAP1 PUSH2 0x1B9 JUMP JUMPDEST SWAP1 POP PUSH2 0xD6 JUMP JUMPDEST DUP2 SWAP3 POP POP POP SWAP1 JUMP JUMPDEST PUSH0 PUSH0 PUSH0 SWAP1 POP PUSH0 PUSH0 SWAP1 POP JUMPDEST PUSH1 0xA DUP2 LT ISZERO PUSH2 0x153 JUMPI PUSH1 0x8 DUP2 SUB ISZERO PUSH2 0x13F JUMPI PUSH1 0x5 DUP3 PUSH2 0x13C SWAP2 SWAP1 PUSH2 0x1B9 JUMP JUMPDEST SWAP2 POP JUMPDEST PUSH1 0x2 DUP2 PUSH2 0x14C SWAP2 SWAP1 PUSH2 0x1B9 JUMP JUMPDEST SWAP1 POP PUSH2 0x11D JUMP JUMPDEST POP DUP1 SWAP2 POP POP SWAP1 JUMP JUMPDEST PUSH0 DUP2 SWAP1 POP SWAP2 SWAP1 POP JUMP JUMPDEST PUSH2 0x16D DUP2 PUSH2 0x15B JUMP JUMPDEST DUP3 MSTORE POP POP JUMP JUMPDEST PUSH0 PUSH1 0x20 DUP3 ADD SWAP1 POP PUSH2 0x186 PUSH0 DUP4 ADD DUP5 PUSH2 0x164 JUMP JUMPDEST SWAP3 SWAP2 POP POP JUMP JUMPDEST PUSH32 0x4E487B7100000000000000000000000000000000000000000000000000000000 PUSH0 MSTORE PUSH1 0x11 PUSH1 0x4 MSTORE PUSH1 0x24 PUSH0 REVERT JUMPDEST PUSH0 PUSH2 0x1C3 DUP3 PUSH2 0x15B JUMP JUMPDEST SWAP2 POP PUSH2 0x1CE DUP4 PUSH2 0x15B JUMP JUMPDEST SWAP3 POP DUP3 DUP3 ADD SWAP1 POP DUP1 DUP3 GT ISZERO PUSH2 0x1E6 JUMPI PUSH2 0x1E5 PUSH2 0x18C JUMP JUMPDEST JUMPDEST SWAP3 SWAP2 POP POP JUMP INVALID LOG2 PUSH5 0x6970667358 0x22 SLT KECCAK256 PUSH4 0x3BF34FF0 PUSH2 0x9D54 0xA6 0x2E 0xC0 SWAP15 EOFCREATE 0x9F 0x2D SWAP10 0xDA 0x4B 0xC1 EXTCODECOPY 0xC1 0xDE PUSH0 PUSH1 0x87 0xAC RETF 0xC0 BASEFEE TSTORE 0xC4 PUSH26 0x64736F6C634300081E0033000000000000000000000000000000 "
				},
				"gasEstimates": {
					"creation": {
						"codeDepositCost": "109200",
						"executionCost": "157",
						"totalCost": "109357"
					},
					"external": {
						"dowhileLoop()": "infinite",
						"forLoop()": "infinite",
						"whileLoop()": "infinite"
					}
				},
				"methodIdentifiers": {
					"dowhileLoop()": "28eb7ef3",
					"forLoop()": "fc0e6008",
					"whileLoop()": "e7c898ef"
				}
			},
			"storageLayout": {
				"storage": [],
				"types": null
			},
			"userdoc": {
				"kind": "user",
				"methods": {},
				"version": 1
			}
		}
	}
}