{
	"data": {
		"bytecode": {
			"linkReferences": {},
			"object": "608060405260aa60f81b5f5f6101000a81548160ff021916908360f81c0217905550631234567860e01b5f60016101000a81548163ffffffff021916908360e01c02179055506040518060400160405280600581526020017f48656c6c6f0000000000000000000000000000000000000000000000000000008152506002908161008991906102d8565b50348015610095575f5ffd5b506103a7565b5f81519050919050565b7f4e487b71000000000000000000000000000000000000000000000000000000005f52604160045260245ffd5b7f4e487b71000000000000000000000000000000000000000000000000000000005f52602260045260245ffd5b5f600282049050600182168061011657607f821691505b602082108103610129576101286100d2565b5b50919050565b5f819050815f5260205f209050919050565b5f6020601f8301049050919050565b5f82821b905092915050565b5f6008830261018b7fffffffffffffffffffffffffffffffffffffffffffffffffffffffffffffffff82610150565b6101958683610150565b95508019841693508086168417925050509392505050565b5f819050919050565b5f819050919050565b5f6101d96101d46101cf846101ad565b6101b6565b6101ad565b9050919050565b5f819050919050565b6101f2836101bf565b6102066101fe826101e0565b84845461015c565b825550505050565b5f5f905090565b61021d61020e565b6102288184846101e9565b505050565b5b8181101561024b576102405f82610215565b60018101905061022e565b5050565b601f821115610290576102618161012f565b61026a84610141565b81016020851015610279578190505b61028d61028585610141565b83018261022d565b50505b505050565b5f82821c905092915050565b5f6102b05f1984600802610295565b1980831691505092915050565b5f6102c883836102a1565b9150826002028217905092915050565b6102e18261009b565b67ffffffffffffffff8111156102fa576102f96100a5565b5b61030482546100ff565b61030f82828561024f565b5f60209050601f831160018114610340575f841561032e578287015190505b61033885826102bd565b86555061039f565b601f19841661034e8661012f565b5f5b8281101561037557848901518255600182019150602085019450602081019050610350565b86831015610392578489015161038e601f8916826102a1565b8355505b6001600288020188555050505b505050505050565b6106fd806103b45f395ff3fe608060405234801561000f575f5ffd5b5060043610610086575f3560e01c8063c29f089411610059578063c29f089414610101578063d8ede4811461011f578063eafca0e01461013d578063f70f45d61461015c57610086565b80630d54a30f1461008a57806317fed2f4146100a857806370fa023d146100b25780639eddee4f146100d0575b5f5ffd5b61009261017a565b60405161009f91906104b6565b60405180910390f35b6100b0610206565b005b6100ba610225565b6040516100c791906104b6565b60405180910390f35b6100ea60048036038101906100e5919061050d565b6102b1565b6040516100f8929190610572565b60405180910390f35b610109610319565b60405161011691906105b8565b60405180910390f35b61012761031f565b604051610134919061060b565b60405180910390f35b610145610331565b604051610153929190610572565b60405180910390f35b6101646103dd565b6040516101719190610624565b60405180910390f35b600280546101879061066a565b80601f01602080910402602001604051908101604052809291908181526020018280546101b39061066a565b80156101fe5780601f106101d5576101008083540402835291602001916101fe565b820191905f5260205f20905b8154815290600101906020018083116101e157829003601f168201915b505050505081565b5f5f6101000a81549060ff021916905560025f61022391906103ee565b565b600380546102329061066a565b80601f016020809104026020016040519081016040528092919081815260200182805461025e9061066a565b80156102a95780601f10610280576101008083540402835291602001916102a9565b820191905f5260205f20905b81548152906001019060200180831161028c57829003601f168201915b505050505081565b60605f5f60ff60f81b90505f8467ffffffffffffffff8111156102d7576102d661069a565b5b6040519080825280601f01601f1916602001820160405280156103095781602001600182028036833780820191505090505b5090508082935093505050915091565b60015481565b5f60019054906101000a900460e01b81565b60605f5f600280546103429061066a565b80601f016020809104026020016040519081016040528092919081815260200182805461036e9061066a565b80156103b95780601f10610390576101008083540402835291602001916103b9565b820191905f5260205f20905b81548152906001019060200180831161039c57829003601f168201915b505050505090505f5f5f9054906101000a900460f81b905081819350935050509091565b5f5f9054906101000a900460f81b81565b5080546103fa9061066a565b5f825580601f1061040b5750610428565b601f0160209004905f5260205f2090810190610427919061042b565b5b50565b5b80821115610442575f815f90555060010161042c565b5090565b5f81519050919050565b5f82825260208201905092915050565b8281835e5f83830152505050565b5f601f19601f8301169050919050565b5f61048882610446565b6104928185610450565b93506104a2818560208601610460565b6104ab8161046e565b840191505092915050565b5f6020820190508181035f8301526104ce818461047e565b905092915050565b5f5ffd5b5f819050919050565b6104ec816104da565b81146104f6575f5ffd5b50565b5f81359050610507816104e3565b92915050565b5f60208284031215610522576105216104d6565b5b5f61052f848285016104f9565b91505092915050565b5f7fff0000000000000000000000000000000000000000000000000000000000000082169050919050565b61056c81610538565b82525050565b5f6040820190508181035f83015261058a818561047e565b90506105996020830184610563565b9392505050565b5f819050919050565b6105b2816105a0565b82525050565b5f6020820190506105cb5f8301846105a9565b92915050565b5f7fffffffff0000000000000000000000000000000000000000000000000000000082169050919050565b610605816105d1565b82525050565b5f60208201905061061e5f8301846105fc565b92915050565b5f6020820190506106375f830184610563565b92915050565b7f4e487b71000000000000000000000000000000000000000000000000000000005f52602260045260245ffd5b5f600282049050600182168061068157607f821691505b6020821081036106945761069361063d565b5b50919050565b7f4e487b71000000000000000000000000000000000000000000000000000000005f52604160045260245ffdfea26469706673582212205668a28cb34491e80c69c9e8e219d7eed934c6de2f41615f379e79107090de1164736f6c634300081e0033",
			"opcodes": "PUSH1 0x80 PUSH1 0x40 MSTORE PUSH1 0xAA PUSH1 0xF8 SHL PUSH0 PUSH0 PUSH2 0x100 EXP DUP2 SLOAD DUP2 PUSH1 0xFF MUL NOT AND SWAP1 DUP4 PUSH1 0xF8 SHR MUL OR SWAP1 SSTORE POP PUSH4 0x12345678 PUSH1 0xE0 SHL PUSH0 PUSH1 0x1 PUSH2 0x100 EXP DUP2 SLOAD DUP2 PUSH4 0xFFFFFFFF MUL NOT AND SWAP1 DUP4 PUSH1 0xE0 SHR MUL OR SWAP1 SSTORE POP PUSH1 0x40 MLOAD DUP1 PUSH1 0x40 ADD PUSH1 0x40 MSTORE DUP1 PUSH1 0x5 DUP2 MSTORE PUSH1 0x20 ADD PUSH32 0x48656C6C6F000000000000000000000000000000000000000000000000000000 DUP2 MSTORE POP PUSH1 0x2 SWAP1 DUP2 PUSH2 0x89 SWAP2 SWAP1 PUSH2 0x2D8 JUMP JUMPDEST POP CALLVALUE DUP1 ISZERO PUSH2 0x95 JUMPI PUSH0 PUSH0 REVERT JUMPDEST POP PUSH2 0x3A7 JUMP JUMPDEST PUSH0 DUP2 MLOAD SWAP1 POP SWAP2 SWAP1 POP JUMP JUMPDEST PUSH32 0x4E487B7100000000000000000000000000000000000000000000000000000000 PUSH0 MSTORE PUSH1 0x41 PUSH1 0x4 MSTORE PUSH1 0x24 PUSH0 REVERT JUMPDEST PUSH32 0x4E487B7100000000000000000000000000000000000000000000000000000000 PUSH0 MSTORE PUSH1 0x22 PUSH1 0x4 MSTORE PUSH1 0x24 PUSH0 REVERT JUMPDEST PUSH0 PUSH1 0x2 DUP3 DIV SWAP1 POP PUSH1 0x1 DUP3 AND DUP1 PUSH2 0x116 JUMPI PUSH1 0x7F DUP3 AND SWAP2 POP JUMPDEST PUSH1 0x20 DUP3 LT DUP2 SUB PUSH2 0x129 JUMPI PUSH2 0x128 PUSH2 0xD2 JUMP JUMPDEST JUMPDEST POP SWAP2 SWAP1 POP JUMP JUMPDEST PUSH0 DUP2 SWAP1 POP DUP2 PUSH0 MSTORE PUSH1 0x20 PUSH0 KECCAK256 SWAP1 POP SWAP2 SWAP1 POP JUMP JUMPDEST PUSH0 PUSH1 0x20 PUSH1 0x1F DUP4 ADD DIV SWAP1 POP SWAP2 SWAP1 POP JUMP JUMPDEST PUSH0 DUP3 DUP3 SHL SWAP1 POP SWAP3 SWAP2 POP POP JUMP JUMPDEST PUSH0 PUSH1 0x8 DUP4 MUL PUSH2 0x18B PUSH32 0xFFFFFFFFFFFFFFFFFFFFFFFFFFFFFFFFFFFFFFFFFFFFFFFFFFFFFFFFFFFFFFFF DUP3 PUSH2 0x150 JUMP JUMPDEST PUSH2 0x195 DUP7 DUP4 PUSH2 0x150 JUMP JUMPDEST SWAP6 POP DUP1 NOT DUP5 AND SWAP4 POP DUP1 DUP7 AND DUP5 OR SWAP3 POP POP POP SWAP4 SWAP3 POP POP POP JUMP JUMPDEST PUSH0 DUP2 SWAP1 POP SWAP2 SWAP1 POP JUMP JUMPDEST PUSH0 DUP2 SWAP1 POP SWAP2 SWAP1 POP JUMP JUMPDEST PUSH0 PUSH2 0x1D9 PUSH2 0x1D4 PUSH2 0x1CF DUP5 PUSH2 0x1AD JUMP JUMPDEST PUSH2 0x1B6 JUMP JUMPDEST PUSH2 0x1AD JUMP JUMPDEST SWAP1 POP SWAP2 SWAP1 POP JUMP JUMPDEST PUSH0 DUP2 SWAP1 POP SWAP2 SWAP1 POP JUMP JUMPDEST PUSH2 0x1F2 DUP4 PUSH2 0x1BF JUMP JUMPDEST PUSH2 0x206 PUSH2 0x1FE DUP3 PUSH2 0x1E0 JUMP JUMPDEST DUP5 DUP5 SLOAD PUSH2 0x15C JUMP JUMPDEST DUP3 SSTORE POP POP POP POP JUMP JUMPDEST PUSH0 PUSH0 SWAP1 POP SWAP1 JUMP JUMPDEST PUSH2 0x21D PUSH2 0x20E JUMP JUMPDEST PUSH2 0x228 DUP2 DUP5 DUP5 PUSH2 0x1E9 JUMP JUMPDEST POP POP POP JUMP JUMPDEST JUMPDEST DUP2 DUP2 LT ISZERO PUSH2 0x24B JUMPI PUSH2 0x240 PUSH0 DUP3 PUSH2 0x215 JUMP JUMPDEST PUSH1 0x1 DUP2 ADD SWAP1 POP PUSH2 0x22E JUMP JUMPDEST POP POP JUMP JUMPDEST PUSH1 0x1F DUP3 GT ISZERO PUSH2 0x290 JUMPI PUSH2 0x261 DUP2 PUSH2 0x12F JUMP JUMPDEST PUSH2 0x26A DUP5 PUSH2 0x141 JUMP JUMPDEST DUP2 ADD PUSH1 0x20 DUP6 LT ISZERO PUSH2 0x279 JUMPI DUP2 SWAP1 POP JUMPDEST PUSH2 0x28D PUSH2 0x285 DUP6 PUSH2 0x141 JUMP JUMPDEST DUP4 ADD DUP3 PUSH2 0x22D JUMP JUMPDEST POP POP JUMPDEST POP POP POP JUMP JUMPDEST PUSH0 DUP3 DUP3 SHR SWAP1 POP SWAP3 SWAP2 POP POP JUMP JUMPDEST PUSH0 PUSH2 0x2B0 PUSH0 NOT DUP5 PUSH1 0x8 MUL PUSH2 0x295 JUMP JUMPDEST NOT DUP1 DUP4 AND SWAP2 POP POP SWAP3 SWAP2 POP POP JUMP JUMPDEST PUSH0 PUSH2 0x2C8 DUP4 DUP4 PUSH2 0x2A1 JUMP JUMPDEST SWAP2 POP DUP3 PUSH1 0x2 MUL DUP3 OR SWAP1 POP SWAP3 SWAP2 POP POP JUMP JUMPDEST PUSH2 0x2E1 DUP3 PUSH2 0x9B JUMP JUMPDEST PUSH8 0xFFFFFFFFFFFFFFFF DUP2 GT ISZERO PUSH2 0x2FA JUMPI PUSH2 0x2F9 PUSH2 0xA5 JUMP JUMPDEST JUMPDEST PUSH2 0x304 DUP3 SLOAD PUSH2 0xFF JUMP JUMPDEST PUSH2 0x30F DUP3 DUP3 DUP6 PUSH2 0x24F JUMP JUMPDEST PUSH0 PUSH1 0x20 SWAP1 POP PUSH1 0x1F DUP4 GT PUSH1 0x1 DUP2 EQ PUSH2 0x340 JUMPI PUSH0 DUP5 ISZERO PUSH2 0x32E JUMPI DUP3 DUP8 ADD MLOAD SWAP1 POP JUMPDEST PUSH2 0x338 DUP6 DUP3 PUSH2 0x2BD JUMP JUMPDEST DUP7 SSTORE POP PUSH2 0x39F JUMP JUMPDEST PUSH1 0x1F NOT DUP5 AND PUSH2 0x34E DUP7 PUSH2 0x12F JUMP JUMPDEST PUSH0 JUMPDEST DUP3 DUP2 LT ISZERO PUSH2 0x375 JUMPI DUP5 DUP10 ADD MLOAD DUP3 SSTORE PUSH1 0x1 DUP3 ADD SWAP2 POP PUSH1 0x20 DUP6 ADD SWAP5 POP PUSH1 0x20 DUP2 ADD SWAP1 POP PUSH2 0x350 JUMP JUMPDEST DUP7 DUP4 LT ISZERO PUSH2 0x392 JUMPI DUP5 DUP10 ADD MLOAD PUSH2 0x38E PUSH1 0x1F DUP10 AND DUP3 PUSH2 0x2A1 JUMP JUMPDEST DUP4 SSTORE POP JUMPDEST PUSH1 0x1 PUSH1 0x2 DUP9 MUL ADD DUP9 SSTORE POP POP POP JUMPDEST POP POP POP POP POP POP JUMP JUMPDEST PUSH2 0x6FD DUP1 PUSH2 0x3B4 PUSH0 CODECOPY PUSH0 RETURN INVALID PUSH1 0x80 PUSH1 0x40 MSTORE CALLVALUE DUP1 ISZERO PUSH2 0xF JUMPI PUSH0 PUSH0 REVERT JUMPDEST POP PUSH1 0x4 CALLDATASIZE LT PUSH2 0x86 JUMPI PUSH0 CALLDATALOAD PUSH1 0xE0 SHR DUP1 PUSH4 0xC29F0894 GT PUSH2 0x59 JUMPI DUP1 PUSH4 0xC29F0894 EQ PUSH2 0x101 JUMPI DUP1 PUSH4 0xD8EDE481 EQ PUSH2 0x11F JUMPI DUP1 PUSH4 0xEAFCA0E0 EQ PUSH2 0x13D JUMPI DUP1 PUSH4 0xF70F45D6 EQ PUSH2 0x15C JUMPI PUSH2 0x86 JUMP JUMPDEST DUP1 PUSH4 0xD54A30F EQ PUSH2 0x8A JUMPI DUP1 PUSH4 0x17FED2F4 EQ PUSH2 0xA8 JUMPI DUP1 PUSH4 0x70FA023D EQ PUSH2 0xB2 JUMPI DUP1 PUSH4 0x9EDDEE4F EQ PUSH2 0xD0 JUMPI JUMPDEST PUSH0 PUSH0 REVERT JUMPDEST PUSH2 0x92 PUSH2 0x17A JUMP JUMPDEST PUSH1 0x40 MLOAD PUSH2 0x9F SWAP2 SWAP1 PUSH2 0x4B6 JUMP JUMPDEST PUSH1 0x40 MLOAD DUP1 SWAP2 SUB SWAP1 RETURN JUMPDEST PUSH2 0xB0 PUSH2 0x206 JUMP JUMPDEST STOP JUMPDEST PUSH2 0xBA PUSH2 0x225 JUMP JUMPDEST PUSH1 0x40 MLOAD PUSH2 0xC7 SWAP2 SWAP1 PUSH2 0x4B6 JUMP JUMPDEST PUSH1 0x40 MLOAD DUP1 SWAP2 SUB SWAP1 RETURN JUMPDEST PUSH2 0xEA PUSH1 0x4 DUP1 CALLDATASIZE SUB DUP2 ADD SWAP1 PUSH2 0xE5 SWAP2 SWAP1 PUSH2 0x50D JUMP JUMPDEST PUSH2 0x2B1 JUMP JUMPDEST PUSH1 0x40 MLOAD PUSH2 0xF8 SWAP3 SWAP2 SWAP1 PUSH2 0x572 JUMP JUMPDEST PUSH1 0x40 MLOAD DUP1 SWAP2 SUB SWAP1 RETURN JUMPDEST PUSH2 0x109 PUSH2 0x319 JUMP JUMPDEST PUSH1 0x40 MLOAD PUSH2 0x116 SWAP2 SWAP1 PUSH2 0x5B8 JUMP JUMPDEST PUSH1 0x40 MLOAD DUP1 SWAP2 SUB SWAP1 RETURN JUMPDEST PUSH2 0x127 PUSH2 0x31F JUMP JUMPDEST PUSH1 0x40 MLOAD PUSH2 0x134 SWAP2 SWAP1 PUSH2 0x60B JUMP JUMPDEST PUSH1 0x40 MLOAD DUP1 SWAP2 SUB SWAP1 RETURN JUMPDEST PUSH2 0x145 PUSH2 0x331 JUMP JUMPDEST PUSH1 0x40 MLOAD PUSH2 0x153 SWAP3 SWAP2 SWAP1 PUSH2 0x572 JUMP JUMPDEST PUSH1 0x40 MLOAD DUP1 SWAP2 SUB SWAP1 RETURN JUMPDEST PUSH2 0x164 PUSH2 0x3DD JUMP JUMPDEST PUSH1 0x40 MLOAD PUSH2 0x171 SWAP2 SWAP1 PUSH2 0x624 JUMP JUMPDEST PUSH1 0x40 MLOAD DUP1 SWAP2 SUB SWAP1 RETURN JUMPDEST PUSH1 0x2 DUP1 SLOAD PUSH2 0x187 SWAP1 PUSH2 0x66A JUMP JUMPDEST DUP1 PUSH1 0x1F ADD PUSH1 0x20 DUP1 SWAP2 DIV MUL PUSH1 0x20 ADD PUSH1 0x40 MLOAD SWAP1 DUP2 ADD PUSH1 0x40 MSTORE DUP1 SWAP3 SWAP2 SWAP1 DUP2 DUP2 MSTORE PUSH1 0x20 ADD DUP3 DUP1 SLOAD PUSH2 0x1B3 SWAP1 PUSH2 0x66A JUMP JUMPDEST DUP1 ISZERO PUSH2 0x1FE JUMPI DUP1 PUSH1 0x1F LT PUSH2 0x1D5 JUMPI PUSH2 0x100 DUP1 DUP4 SLOAD DIV MUL DUP4 MSTORE SWAP2 PUSH1 0x20 ADD SWAP2 PUSH2 0x1FE JUMP JUMPDEST DUP3 ADD SWAP2 SWAP1 PUSH0 MSTORE PUSH1 0x20 PUSH0 KECCAK256 SWAP1 JUMPDEST DUP2 SLOAD DUP2 MSTORE SWAP1 PUSH1 0x1 ADD SWAP1 PUSH1 0x20 ADD DUP1 DUP4 GT PUSH2 0x1E1 JUMPI DUP3 SWAP1 SUB PUSH1 0x1F AND DUP3 ADD SWAP2 JUMPDEST POP POP POP POP POP DUP2 JUMP JUMPDEST PUSH0 PUSH0 PUSH2 0x100 EXP DUP2 SLOAD SWAP1 PUSH1 0xFF MUL NOT AND SWAP1 SSTORE PUSH1 0x2 PUSH0 PUSH2 0x223 SWAP2 SWAP1 PUSH2 0x3EE JUMP JUMPDEST JUMP JUMPDEST PUSH1 0x3 DUP1 SLOAD PUSH2 0x232 SWAP1 PUSH2 0x66A JUMP JUMPDEST DUP1 PUSH1 0x1F ADD PUSH1 0x20 DUP1 SWAP2 DIV MUL PUSH1 0x20 ADD PUSH1 0x40 MLOAD SWAP1 DUP2 ADD PUSH1 0x40 MSTORE DUP1 SWAP3 SWAP2 SWAP1 DUP2 DUP2 MSTORE PUSH1 0x20 ADD DUP3 DUP1 SLOAD PUSH2 0x25E SWAP1 PUSH2 0x66A JUMP JUMPDEST DUP1 ISZERO PUSH2 0x2A9 JUMPI DUP1 PUSH1 0x1F LT PUSH2 0x280 JUMPI PUSH2 0x100 DUP1 DUP4 SLOAD DIV MUL DUP4 MSTORE SWAP2 PUSH1 0x20 ADD SWAP2 PUSH2 0x2A9 JUMP JUMPDEST DUP3 ADD SWAP2 SWAP1 PUSH0 MSTORE PUSH1 0x20 PUSH0 KECCAK256 SWAP1 JUMPDEST DUP2 SLOAD DUP2 MSTORE SWAP1 PUSH1 0x1 ADD SWAP1 PUSH1 0x20 ADD DUP1 DUP4 GT PUSH2 0x28C JUMPI DUP3 SWAP1 SUB PUSH1 0x1F AND DUP3 ADD SWAP2 JUMPDEST POP POP POP POP POP DUP2 JUMP JUMPDEST PUSH1 0x60 PUSH0 PUSH0 PUSH1 0xFF PUSH1 0xF8 SHL SWAP1 POP PUSH0 DUP5 PUSH8 0xFFFFFFFFFFFFFFFF DUP2 GT ISZERO PUSH2 0x2D7 JUMPI PUSH2 0x2D6 PUSH2 0x69A JUMP JUMPDEST JUMPDEST PUSH1 0x40 MLOAD SWAP1 DUP1 DUP3 MSTORE DUP1 PUSH1 0x1F ADD PUSH1 0x1F NOT AND PUSH1 0x20 ADD DUP3 ADD PUSH1 0x40 MSTORE DUP1 ISZERO PUSH2 0x309 JUMPI DUP2 PUSH1 0x20 ADD PUSH1 0x1 DUP3 MUL DUP1 CALLDATASIZE DUP4 CALLDATACOPY DUP1 DUP3 ADD SWAP2 POP POP SWAP1 POP JUMPDEST POP SWAP1 POP DUP1 DUP3 SWAP4 POP SWAP4 POP POP POP SWAP2 POP SWAP2 JUMP JUMPDEST PUSH1 0x1 SLOAD DUP2 JUMP JUMPDEST PUSH0 PUSH1 0x1 SWAP1 SLOAD SWAP1 PUSH2 0x100 EXP SWAP1 DIV PUSH1 0xE0 SHL DUP2 JUMP JUMPDEST PUSH1 0x60 PUSH0 PUSH0 PUSH1 0x2 DUP1 SLOAD PUSH2 0x342 SWAP1 PUSH2 0x66A JUMP JUMPDEST DUP1 PUSH1 0x1F ADD PUSH1 0x20 DUP1 SWAP2 DIV MUL PUSH1 0x20 ADD PUSH1 0x40 MLOAD SWAP1 DUP2 ADD PUSH1 0x40 MSTORE DUP1 SWAP3 SWAP2 SWAP1 DUP2 DUP2 MSTORE PUSH1 0x20 ADD DUP3 DUP1 SLOAD PUSH2 0x36E SWAP1 PUSH2 0x66A JUMP JUMPDEST DUP1 ISZERO PUSH2 0x3B9 JUMPI DUP1 PUSH1 0x1F LT PUSH2 0x390 JUMPI PUSH2 0x100 DUP1 DUP4 SLOAD DIV MUL DUP4 MSTORE SWAP2 PUSH1 0x20 ADD SWAP2 PUSH2 0x3B9 JUMP JUMPDEST DUP3 ADD SWAP2 SWAP1 PUSH0 MSTORE PUSH1 0x20 PUSH0 KECCAK256 SWAP1 JUMPDEST DUP2 SLOAD DUP2 MSTORE SWAP1 PUSH1 0x1 ADD SWAP1 PUSH1 0x20 ADD DUP1 DUP4 GT PUSH2 0x39C JUMPI DUP3 SWAP1 SUB PUSH1 0x1F AND DUP3 ADD SWAP2 JUMPDEST POP POP POP POP POP SWAP1 POP PUSH0 PUSH0 PUSH0 SWAP1 SLOAD SWAP1 PUSH2 0x100 EXP SWAP1 DIV PUSH1 0xF8 SHL SWAP1 POP DUP2 DUP2 SWAP4 POP SWAP4 POP POP POP SWAP1 SWAP2 JUMP JUMPDEST PUSH0 PUSH0 SWAP1 SLOAD SWAP1 PUSH2 0x100 EXP SWAP1 DIV PUSH1 0xF8 SHL DUP2 JUMP JUMPDEST POP DUP1 SLOAD PUSH2 0x3FA SWAP1 PUSH2 0x66A JUMP JUMPDEST PUSH0 DUP3 SSTORE DUP1 PUSH1 0x1F LT PUSH2 0x40B JUMPI POP PUSH2 0x428 JUMP JUMPDEST PUSH1 0x1F ADD PUSH1 0x20 SWAP1 DIV SWAP1 PUSH0 MSTORE PUSH1 0x20 PUSH0 KECCAK256 SWAP1 DUP2 ADD SWAP1 PUSH2 0x427 SWAP2 SWAP1 PUSH2 0x42B JUMP JUMPDEST JUMPDEST POP JUMP JUMPDEST JUMPDEST DUP1 DUP3 GT ISZERO PUSH2 0x442 JUMPI PUSH0 DUP2 PUSH0 SWAP1 SSTORE POP PUSH1 0x1 ADD PUSH2 0x42C JUMP JUMPDEST POP SWAP1 JUMP JUMPDEST PUSH0 DUP2 MLOAD SWAP1 POP SWAP2 SWAP1 POP JUMP JUMPDEST PUSH0 DUP3 DUP3 MSTORE PUSH1 0x20 DUP3 ADD SWAP1 POP SWAP3 SWAP2 POP POP JUMP JUMPDEST DUP3 DUP2 DUP4 MCOPY PUSH0 DUP4 DUP4 ADD MSTORE POP POP POP JUMP JUMPDEST PUSH0 PUSH1 0x1F NOT PUSH1 0x1F DUP4 ADD AND SWAP1 POP SWAP2 SWAP1 POP JUMP JUMPDEST PUSH0 PUSH2 0x488 DUP3 PUSH2 0x446 JUMP JUMPDEST PUSH2 0x492 DUP2 DUP6 PUSH2 0x450 JUMP JUMPDEST SWAP4 POP PUSH2 0x4A2 DUP2 DUP6 PUSH1 0x20 DUP7 ADD PUSH2 0x460 JUMP JUMPDEST PUSH2 0x4AB DUP2 PUSH2 0x46E JUMP JUMPDEST DUP5 ADD SWAP2 POP POP SWAP3 SWAP2 POP POP JUMP JUMPDEST PUSH0 PUSH1 0x20 DUP3 ADD SWAP1 POP DUP2 DUP2 SUB PUSH0 DUP4 ADD MSTORE PUSH2 0x4CE DUP2 DUP5 PUSH2 0x47E JUMP JUMPDEST SWAP1 POP SWAP3 SWAP2 POP POP JUMP JUMPDEST PUSH0 PUSH0 REVERT JUMPDEST PUSH0 DUP2 SWAP1 POP SWAP2 SWAP1 POP JUMP JUMPDEST PUSH2 0x4EC DUP2 PUSH2 0x4DA JUMP JUMPDEST DUP2 EQ PUSH2 0x4F6 JUMPI PUSH0 PUSH0 REVERT JUMPDEST POP JUMP JUMPDEST PUSH0 DUP2 CALLDATALOAD SWAP1 POP PUSH2 0x507 DUP2 PUSH2 0x4E3 JUMP JUMPDEST SWAP3 SWAP2 POP POP JUMP JUMPDEST PUSH0 PUSH1 0x20 DUP3 DUP5 SUB SLT ISZERO PUSH2 0x522 JUMPI PUSH2 0x521 PUSH2 0x4D6 JUMP JUMPDEST JUMPDEST PUSH0 PUSH2 0x52F DUP5 DUP3 DUP6 ADD PUSH2 0x4F9 JUMP JUMPDEST SWAP2 POP POP SWAP3 SWAP2 POP POP JUMP JUMPDEST PUSH0 PUSH32 0xFF00000000000000000000000000000000000000000000000000000000000000 DUP3 AND SWAP1 POP SWAP2 SWAP1 POP JUMP JUMPDEST PUSH2 0x56C DUP2 PUSH2 0x538 JUMP JUMPDEST DUP3 MSTORE POP POP JUMP JUMPDEST PUSH0 PUSH1 0x40 DUP3 ADD SWAP1 POP DUP2 DUP2 SUB PUSH0 DUP4 ADD MSTORE PUSH2 0x58A DUP2 DUP6 PUSH2 0x47E JUMP JUMPDEST SWAP1 POP PUSH2 0x599 PUSH1 0x20 DUP4 ADD DUP5 PUSH2 0x563 JUMP JUMPDEST SWAP4 SWAP3 POP POP POP JUMP JUMPDEST PUSH0 DUP2 SWAP1 POP SWAP2 SWAP1 POP JUMP JUMPDEST PUSH2 0x5B2 DUP2 PUSH2 0x5A0 JUMP JUMPDEST DUP3 MSTORE POP POP JUMP JUMPDEST PUSH0 PUSH1 0x20 DUP3 ADD SWAP1 POP PUSH2 0x5CB PUSH0 DUP4 ADD DUP5 PUSH2 0x5A9 JUMP JUMPDEST SWAP3 SWAP2 POP POP JUMP JUMPDEST PUSH0 PUSH32 0xFFFFFFFF00000000000000000000000000000000000000000000000000000000 DUP3 AND SWAP1 POP SWAP2 SWAP1 POP JUMP JUMPDEST PUSH2 0x605 DUP2 PUSH2 0x5D1 JUMP JUMPDEST DUP3 MSTORE POP POP JUMP JUMPDEST PUSH0 PUSH1 0x20 DUP3 ADD SWAP1 POP PUSH2 0x61E PUSH0 DUP4 ADD DUP5 PUSH2 0x5FC JUMP JUMPDEST SWAP3 SWAP2 POP POP JUMP JUMPDEST PUSH0 PUSH1 0x20 DUP3 ADD SWAP1 POP PUSH2 0x637 PUSH0 DUP4 ADD DUP5 PUSH2 0x563 JUMP JUMPDEST SWAP3 SWAP2 POP POP JUMP JUMPDEST PUSH32 0x4E487B7100000000000000000000000000000000000000000000000000000000 PUSH0 MSTORE PUSH1 0x22 PUSH1 0x4 MSTORE PUSH1 0x24 PUSH0 REVERT JUMPDEST PUSH0 PUSH1 0x2 DUP3 DIV SWAP1 POP PUSH1 0x1 DUP3 AND DUP1 PUSH2 0x681 JUMPI PUSH1 0x7F DUP3 AND SWAP2 POP JUMPDEST PUSH1 0x20 DUP3 LT DUP2 SUB PUSH2 0x694 JUMPI PUSH2 0x693 PUSH2 0x63D JUMP JUMPDEST JUMPDEST POP SWAP2 SWAP1 POP JUMP JUMPDEST PUSH32 0x4E487B7100000000000000000000000000000000000000000000000000000000 PUSH0 MSTORE PUSH1 0x41 PUSH1 0x4 MSTORE PUSH1 0x24 PUSH0 REVERT INVALID LOG2 PUSH5 0x6970667358 0x22 SLT KECCAK256 JUMP PUSH9 0xA28CB34491E80C69C9 0xE8 0xE2 NOT 0xD7 RETURNCONTRACT 0xD9 CALLVALUE 0xC6 0xDE 0x2F COINBASE PUSH2 0x5F37 SWAP15 PUSH26 0x107090DE1164736F6C634300081E003300000000000000000000 "
		},
		"gasEstimates": {
			"creation": {
				"codeDepositCost": "357800",
				"executionCost": "infinite",
				"totalCost": "infinite"
			},
			"external": {
				"bytesInFunction(uint256)": "infinite",
				"bytesStorageReference()": "infinite",
				"deleteBytesExamples()": "infinite",
				"dynamicBytes1()": "infinite",
				"dynamicBytes2()": "infinite",
				"fixedByte1()": "2531",
				"fixedByte32()": "2425",
				"fixedByte4()": "2538"
			}
		},
		"methodIdentifiers": {
			"bytesInFunction(uint256)": "9eddee4f",
			"bytesStorageReference()": "eafca0e0",
			"deleteBytesExamples()": "17fed2f4",
			"dynamicBytes1()": "0d54a30f",
			"dynamicBytes2()": "70fa023d",
			"fixedByte1()": "f70f45d6",
			"fixedByte32()": "c29f0894",
			"fixedByte4()": "d8ede481"
		}
	},
	"abi": [
		{
			"inputs": [
				{
					"internalType": "uint256",
					"name": "len",
					"type": "uint256"
				}
			],
			"name": "bytesInFunction",
			"outputs": [
				{
					"internalType": "bytes",
					"name": "",
					"type": "bytes"
				},
				{
					"internalType": "bytes1",
					"name": "",
					"type": "bytes1"
				}
			],
			"stateMutability": "pure",
			"type": "function"
		},
		{
			"inputs": [],
			"name": "bytesStorageReference",
			"outputs": [
				{
					"internalType": "bytes",
					"name": "",
					"type": "bytes"
				},
				{
					"internalType": "bytes1",
					"name": "",
					"type": "bytes1"
				}
			],
			"stateMutability": "view",
			"type": "function"
		},
		{
			"inputs": [],
			"name": "deleteBytesExamples",
			"outputs": [],
			"stateMutability": "nonpayable",
			"type": "function"
		},
		{
			"inputs": [],
			"name": "dynamicBytes1",
			"outputs": [
				{
					"internalType": "bytes",
					"name": "",
					"type": "bytes"
				}
			],
			"stateMutability": "view",
			"type": "function"
		},
		{
			"inputs": [],
			"name": "dynamicBytes2",
			"outputs": [
				{
					"internalType": "bytes",
					"name": "",
					"type": "bytes"
				}
			],
			"stateMutability": "view",
			"type": "function"
		},
		{
			"inputs": [],
			"name": "fixedByte1",
			"outputs": [
				{
					"internalType": "bytes1",
					"name": "",
					"type": "bytes1"
				}
			],
			"stateMutability": "view",
			"type": "function"
		},
		{
			"inputs": [],
			"name": "fixedByte32",
			"outputs": [
				{
					"internalType": "bytes32",
					"name": "",
					"type": "bytes32"
				}
			],
			"stateMutability": "view",
			"type": "function"
		},
		{
			"inputs": [],
			"name": "fixedByte4",
			"outputs": [
				{
					"internalType": "bytes4",
					"name": "",
					"type": "bytes4"
				}
			],
			"stateMutability": "view",
			"type": "function"
		}
	]
}