{
	"data": {
		"bytecode": {
			"linkReferences": {},
			"object": "6080604052348015600e575f5ffd5b506107f98061001c5f395ff3fe608060405234801561000f575f5ffd5b506004361061009c575f3560e01c80639507d39a116100645780639507d39a146101305780639a9bdca714610160578063d092e18614610190578063e103aef51461019a578063e80b7ab6146101a45761009c565b80631003e2d2146100a05780631ab06ee5146100bc5780631f7b6d32146100d8578063310bd74b146100f657806353ed514314610112575b5f5ffd5b6100ba60048036038101906100b591906104b9565b6101ae565b005b6100d660048036038101906100d191906104e4565b6101d6565b005b6100e0610240565b6040516100ed9190610531565b60405180910390f35b610110600480360381019061010b91906104b9565b61024b565b005b61011a6102b2565b6040516101279190610601565b60405180910390f35b61014a600480360381019061014591906104b9565b610307565b6040516101579190610531565b60405180910390f35b61017a600480360381019061017591906104b9565b610371565b6040516101879190610531565b60405180910390f35b610198610390565b005b6101a26103fc565b005b6101ac61043b565b005b5f81908060018154018082558091505060019003905f5260205f20015f909190919091505550565b5f80549050821061021c576040517f08c379a00000000000000000000000000000000000000000000000000000000081526004016102139061067b565b60405180910390fd5b805f83815481106102305761022f610699565b5b905f5260205f2001819055505050565b5f5f80549050905090565b5f805490508110610291576040517f08c379a000000000000000000000000000000000000000000000000000000000815260040161028890610710565b60405180910390fd5b5f81815481106102a4576102a3610699565b5b905f5260205f20015f905550565b60605f8054806020026020016040519081016040528092919081815260200182805480156102fd57602002820191905f5260205f20905b8154815260200190600101908083116102e9575b5050505050905090565b5f5f80549050821061034e576040517f08c379a00000000000000000000000000000000000000000000000000000000081526004016103459061067b565b60405180910390fd5b5f828154811061036157610360610699565b5b905f5260205f2001549050919050565b5f818154811061037f575f80fd5b905f5260205f20015f915090505481565b5f5f80549050116103d6576040517f08c379a00000000000000000000000000000000000000000000000000000000081526004016103cd90610778565b60405180910390fd5b5f8054806103e7576103e6610796565b5b600190038181905f5260205f20015f90559055565b5f5f90505b5f80549050811015610438575f81815481106104205761041f610699565b5b905f5260205f20015f90558080600101915050610401565b50565b5f5f6104479190610449565b565b5080545f8255905f5260205f20908101906104649190610467565b50565b5b8082111561047e575f815f905550600101610468565b5090565b5f5ffd5b5f819050919050565b61049881610486565b81146104a2575f5ffd5b50565b5f813590506104b38161048f565b92915050565b5f602082840312156104ce576104cd610482565b5b5f6104db848285016104a5565b91505092915050565b5f5f604083850312156104fa576104f9610482565b5b5f610507858286016104a5565b9250506020610518858286016104a5565b9150509250929050565b61052b81610486565b82525050565b5f6020820190506105445f830184610522565b92915050565b5f81519050919050565b5f82825260208201905092915050565b5f819050602082019050919050565b61057c81610486565b82525050565b5f61058d8383610573565b60208301905092915050565b5f602082019050919050565b5f6105af8261054a565b6105b98185610554565b93506105c483610564565b805f5b838110156105f45781516105db8882610582565b97506105e683610599565b9250506001810190506105c7565b5085935050505092915050565b5f6020820190508181035f83015261061981846105a5565b905092915050565b5f82825260208201905092915050565b7f496e646578206f7574206f6620626f756e6400000000000000000000000000005f82015250565b5f610665601283610621565b915061067082610631565b602082019050919050565b5f6020820190508181035f83015261069281610659565b9050919050565b7f4e487b71000000000000000000000000000000000000000000000000000000005f52603260045260245ffd5b7f696e646578206f7574206f6620626f756e6473000000000000000000000000005f82015250565b5f6106fa601383610621565b9150610705826106c6565b602082019050919050565b5f6020820190508181035f830152610727816106ee565b9050919050565b7f417272617920697320656d7074790000000000000000000000000000000000005f82015250565b5f610762600e83610621565b915061076d8261072e565b602082019050919050565b5f6020820190508181035f83015261078f81610756565b9050919050565b7f4e487b71000000000000000000000000000000000000000000000000000000005f52603160045260245ffdfea26469706673582212209eefb83e0679a7e3f75d4836af9a53c2064986a4676d856572a85437b4a8e7ec64736f6c634300081e0033",
			"opcodes": "PUSH1 0x80 PUSH1 0x40 MSTORE CALLVALUE DUP1 ISZERO PUSH1 0xE JUMPI PUSH0 PUSH0 REVERT JUMPDEST POP PUSH2 0x7F9 DUP1 PUSH2 0x1C PUSH0 CODECOPY PUSH0 RETURN INVALID PUSH1 0x80 PUSH1 0x40 MSTORE CALLVALUE DUP1 ISZERO PUSH2 0xF JUMPI PUSH0 PUSH0 REVERT JUMPDEST POP PUSH1 0x4 CALLDATASIZE LT PUSH2 0x9C JUMPI PUSH0 CALLDATALOAD PUSH1 0xE0 SHR DUP1 PUSH4 0x9507D39A GT PUSH2 0x64 JUMPI DUP1 PUSH4 0x9507D39A EQ PUSH2 0x130 JUMPI DUP1 PUSH4 0x9A9BDCA7 EQ PUSH2 0x160 JUMPI DUP1 PUSH4 0xD092E186 EQ PUSH2 0x190 JUMPI DUP1 PUSH4 0xE103AEF5 EQ PUSH2 0x19A JUMPI DUP1 PUSH4 0xE80B7AB6 EQ PUSH2 0x1A4 JUMPI PUSH2 0x9C JUMP JUMPDEST DUP1 PUSH4 0x1003E2D2 EQ PUSH2 0xA0 JUMPI DUP1 PUSH4 0x1AB06EE5 EQ PUSH2 0xBC JUMPI DUP1 PUSH4 0x1F7B6D32 EQ PUSH2 0xD8 JUMPI DUP1 PUSH4 0x310BD74B EQ PUSH2 0xF6 JUMPI DUP1 PUSH4 0x53ED5143 EQ PUSH2 0x112 JUMPI JUMPDEST PUSH0 PUSH0 REVERT JUMPDEST PUSH2 0xBA PUSH1 0x4 DUP1 CALLDATASIZE SUB DUP2 ADD SWAP1 PUSH2 0xB5 SWAP2 SWAP1 PUSH2 0x4B9 JUMP JUMPDEST PUSH2 0x1AE JUMP JUMPDEST STOP JUMPDEST PUSH2 0xD6 PUSH1 0x4 DUP1 CALLDATASIZE SUB DUP2 ADD SWAP1 PUSH2 0xD1 SWAP2 SWAP1 PUSH2 0x4E4 JUMP JUMPDEST PUSH2 0x1D6 JUMP JUMPDEST STOP JUMPDEST PUSH2 0xE0 PUSH2 0x240 JUMP JUMPDEST PUSH1 0x40 MLOAD PUSH2 0xED SWAP2 SWAP1 PUSH2 0x531 JUMP JUMPDEST PUSH1 0x40 MLOAD DUP1 SWAP2 SUB SWAP1 RETURN JUMPDEST PUSH2 0x110 PUSH1 0x4 DUP1 CALLDATASIZE SUB DUP2 ADD SWAP1 PUSH2 0x10B SWAP2 SWAP1 PUSH2 0x4B9 JUMP JUMPDEST PUSH2 0x24B JUMP JUMPDEST STOP JUMPDEST PUSH2 0x11A PUSH2 0x2B2 JUMP JUMPDEST PUSH1 0x40 MLOAD PUSH2 0x127 SWAP2 SWAP1 PUSH2 0x601 JUMP JUMPDEST PUSH1 0x40 MLOAD DUP1 SWAP2 SUB SWAP1 RETURN JUMPDEST PUSH2 0x14A PUSH1 0x4 DUP1 CALLDATASIZE SUB DUP2 ADD SWAP1 PUSH2 0x145 SWAP2 SWAP1 PUSH2 0x4B9 JUMP JUMPDEST PUSH2 0x307 JUMP JUMPDEST PUSH1 0x40 MLOAD PUSH2 0x157 SWAP2 SWAP1 PUSH2 0x531 JUMP JUMPDEST PUSH1 0x40 MLOAD DUP1 SWAP2 SUB SWAP1 RETURN JUMPDEST PUSH2 0x17A PUSH1 0x4 DUP1 CALLDATASIZE SUB DUP2 ADD SWAP1 PUSH2 0x175 SWAP2 SWAP1 PUSH2 0x4B9 JUMP JUMPDEST PUSH2 0x371 JUMP JUMPDEST PUSH1 0x40 MLOAD PUSH2 0x187 SWAP2 SWAP1 PUSH2 0x531 JUMP JUMPDEST PUSH1 0x40 MLOAD DUP1 SWAP2 SUB SWAP1 RETURN JUMPDEST PUSH2 0x198 PUSH2 0x390 JUMP JUMPDEST STOP JUMPDEST PUSH2 0x1A2 PUSH2 0x3FC JUMP JUMPDEST STOP JUMPDEST PUSH2 0x1AC PUSH2 0x43B JUMP JUMPDEST STOP JUMPDEST PUSH0 DUP2 SWAP1 DUP1 PUSH1 0x1 DUP2 SLOAD ADD DUP1 DUP3 SSTORE DUP1 SWAP2 POP POP PUSH1 0x1 SWAP1 SUB SWAP1 PUSH0 MSTORE PUSH1 0x20 PUSH0 KECCAK256 ADD PUSH0 SWAP1 SWAP2 SWAP1 SWAP2 SWAP1 SWAP2 POP SSTORE POP JUMP JUMPDEST PUSH0 DUP1 SLOAD SWAP1 POP DUP3 LT PUSH2 0x21C JUMPI PUSH1 0x40 MLOAD PUSH32 0x8C379A000000000000000000000000000000000000000000000000000000000 DUP2 MSTORE PUSH1 0x4 ADD PUSH2 0x213 SWAP1 PUSH2 0x67B JUMP JUMPDEST PUSH1 0x40 MLOAD DUP1 SWAP2 SUB SWAP1 REVERT JUMPDEST DUP1 PUSH0 DUP4 DUP2 SLOAD DUP2 LT PUSH2 0x230 JUMPI PUSH2 0x22F PUSH2 0x699 JUMP JUMPDEST JUMPDEST SWAP1 PUSH0 MSTORE PUSH1 0x20 PUSH0 KECCAK256 ADD DUP2 SWAP1 SSTORE POP POP POP JUMP JUMPDEST PUSH0 PUSH0 DUP1 SLOAD SWAP1 POP SWAP1 POP SWAP1 JUMP JUMPDEST PUSH0 DUP1 SLOAD SWAP1 POP DUP2 LT PUSH2 0x291 JUMPI PUSH1 0x40 MLOAD PUSH32 0x8C379A000000000000000000000000000000000000000000000000000000000 DUP2 MSTORE PUSH1 0x4 ADD PUSH2 0x288 SWAP1 PUSH2 0x710 JUMP JUMPDEST PUSH1 0x40 MLOAD DUP1 SWAP2 SUB SWAP1 REVERT JUMPDEST PUSH0 DUP2 DUP2 SLOAD DUP2 LT PUSH2 0x2A4 JUMPI PUSH2 0x2A3 PUSH2 0x699 JUMP JUMPDEST JUMPDEST SWAP1 PUSH0 MSTORE PUSH1 0x20 PUSH0 KECCAK256 ADD PUSH0 SWAP1 SSTORE POP JUMP JUMPDEST PUSH1 0x60 PUSH0 DUP1 SLOAD DUP1 PUSH1 0x20 MUL PUSH1 0x20 ADD PUSH1 0x40 MLOAD SWAP1 DUP2 ADD PUSH1 0x40 MSTORE DUP1 SWAP3 SWAP2 SWAP1 DUP2 DUP2 MSTORE PUSH1 0x20 ADD DUP3 DUP1 SLOAD DUP1 ISZERO PUSH2 0x2FD JUMPI PUSH1 0x20 MUL DUP3 ADD SWAP2 SWAP1 PUSH0 MSTORE PUSH1 0x20 PUSH0 KECCAK256 SWAP1 JUMPDEST DUP2 SLOAD DUP2 MSTORE PUSH1 0x20 ADD SWAP1 PUSH1 0x1 ADD SWAP1 DUP1 DUP4 GT PUSH2 0x2E9 JUMPI JUMPDEST POP POP POP POP POP SWAP1 POP SWAP1 JUMP JUMPDEST PUSH0 PUSH0 DUP1 SLOAD SWAP1 POP DUP3 LT PUSH2 0x34E JUMPI PUSH1 0x40 MLOAD PUSH32 0x8C379A000000000000000000000000000000000000000000000000000000000 DUP2 MSTORE PUSH1 0x4 ADD PUSH2 0x345 SWAP1 PUSH2 0x67B JUMP JUMPDEST PUSH1 0x40 MLOAD DUP1 SWAP2 SUB SWAP1 REVERT JUMPDEST PUSH0 DUP3 DUP2 SLOAD DUP2 LT PUSH2 0x361 JUMPI PUSH2 0x360 PUSH2 0x699 JUMP JUMPDEST JUMPDEST SWAP1 PUSH0 MSTORE PUSH1 0x20 PUSH0 KECCAK256 ADD SLOAD SWAP1 POP SWAP2 SWAP1 POP JUMP JUMPDEST PUSH0 DUP2 DUP2 SLOAD DUP2 LT PUSH2 0x37F JUMPI PUSH0 DUP1 REVERT JUMPDEST SWAP1 PUSH0 MSTORE PUSH1 0x20 PUSH0 KECCAK256 ADD PUSH0 SWAP2 POP SWAP1 POP SLOAD DUP2 JUMP JUMPDEST PUSH0 PUSH0 DUP1 SLOAD SWAP1 POP GT PUSH2 0x3D6 JUMPI PUSH1 0x40 MLOAD PUSH32 0x8C379A000000000000000000000000000000000000000000000000000000000 DUP2 MSTORE PUSH1 0x4 ADD PUSH2 0x3CD SWAP1 PUSH2 0x778 JUMP JUMPDEST PUSH1 0x40 MLOAD DUP1 SWAP2 SUB SWAP1 REVERT JUMPDEST PUSH0 DUP1 SLOAD DUP1 PUSH2 0x3E7 JUMPI PUSH2 0x3E6 PUSH2 0x796 JUMP JUMPDEST JUMPDEST PUSH1 0x1 SWAP1 SUB DUP2 DUP2 SWAP1 PUSH0 MSTORE PUSH1 0x20 PUSH0 KECCAK256 ADD PUSH0 SWAP1 SSTORE SWAP1 SSTORE JUMP JUMPDEST PUSH0 PUSH0 SWAP1 POP JUMPDEST PUSH0 DUP1 SLOAD SWAP1 POP DUP2 LT ISZERO PUSH2 0x438 JUMPI PUSH0 DUP2 DUP2 SLOAD DUP2 LT PUSH2 0x420 JUMPI PUSH2 0x41F PUSH2 0x699 JUMP JUMPDEST JUMPDEST SWAP1 PUSH0 MSTORE PUSH1 0x20 PUSH0 KECCAK256 ADD PUSH0 SWAP1 SSTORE DUP1 DUP1 PUSH1 0x1 ADD SWAP2 POP POP PUSH2 0x401 JUMP JUMPDEST POP JUMP JUMPDEST PUSH0 PUSH0 PUSH2 0x447 SWAP2 SWAP1 PUSH2 0x449 JUMP JUMPDEST JUMP JUMPDEST POP DUP1 SLOAD PUSH0 DUP3 SSTORE SWAP1 PUSH0 MSTORE PUSH1 0x20 PUSH0 KECCAK256 SWAP1 DUP2 ADD SWAP1 PUSH2 0x464 SWAP2 SWAP1 PUSH2 0x467 JUMP JUMPDEST POP JUMP JUMPDEST JUMPDEST DUP1 DUP3 GT ISZERO PUSH2 0x47E JUMPI PUSH0 DUP2 PUSH0 SWAP1 SSTORE POP PUSH1 0x1 ADD PUSH2 0x468 JUMP JUMPDEST POP SWAP1 JUMP JUMPDEST PUSH0 PUSH0 REVERT JUMPDEST PUSH0 DUP2 SWAP1 POP SWAP2 SWAP1 POP JUMP JUMPDEST PUSH2 0x498 DUP2 PUSH2 0x486 JUMP JUMPDEST DUP2 EQ PUSH2 0x4A2 JUMPI PUSH0 PUSH0 REVERT JUMPDEST POP JUMP JUMPDEST PUSH0 DUP2 CALLDATALOAD SWAP1 POP PUSH2 0x4B3 DUP2 PUSH2 0x48F JUMP JUMPDEST SWAP3 SWAP2 POP POP JUMP JUMPDEST PUSH0 PUSH1 0x20 DUP3 DUP5 SUB SLT ISZERO PUSH2 0x4CE JUMPI PUSH2 0x4CD PUSH2 0x482 JUMP JUMPDEST JUMPDEST PUSH0 PUSH2 0x4DB DUP5 DUP3 DUP6 ADD PUSH2 0x4A5 JUMP JUMPDEST SWAP2 POP POP SWAP3 SWAP2 POP POP JUMP JUMPDEST PUSH0 PUSH0 PUSH1 0x40 DUP4 DUP6 SUB SLT ISZERO PUSH2 0x4FA JUMPI PUSH2 0x4F9 PUSH2 0x482 JUMP JUMPDEST JUMPDEST PUSH0 PUSH2 0x507 DUP6 DUP3 DUP7 ADD PUSH2 0x4A5 JUMP JUMPDEST SWAP3 POP POP PUSH1 0x20 PUSH2 0x518 DUP6 DUP3 DUP7 ADD PUSH2 0x4A5 JUMP JUMPDEST SWAP2 POP POP SWAP3 POP SWAP3 SWAP1 POP JUMP JUMPDEST PUSH2 0x52B DUP2 PUSH2 0x486 JUMP JUMPDEST DUP3 MSTORE POP POP JUMP JUMPDEST PUSH0 PUSH1 0x20 DUP3 ADD SWAP1 POP PUSH2 0x544 PUSH0 DUP4 ADD DUP5 PUSH2 0x522 JUMP JUMPDEST SWAP3 SWAP2 POP POP JUMP JUMPDEST PUSH0 DUP2 MLOAD SWAP1 POP SWAP2 SWAP1 POP JUMP JUMPDEST PUSH0 DUP3 DUP3 MSTORE PUSH1 0x20 DUP3 ADD SWAP1 POP SWAP3 SWAP2 POP POP JUMP JUMPDEST PUSH0 DUP2 SWAP1 POP PUSH1 0x20 DUP3 ADD SWAP1 POP SWAP2 SWAP1 POP JUMP JUMPDEST PUSH2 0x57C DUP2 PUSH2 0x486 JUMP JUMPDEST DUP3 MSTORE POP POP JUMP JUMPDEST PUSH0 PUSH2 0x58D DUP4 DUP4 PUSH2 0x573 JUMP JUMPDEST PUSH1 0x20 DUP4 ADD SWAP1 POP SWAP3 SWAP2 POP POP JUMP JUMPDEST PUSH0 PUSH1 0x20 DUP3 ADD SWAP1 POP SWAP2 SWAP1 POP JUMP JUMPDEST PUSH0 PUSH2 0x5AF DUP3 PUSH2 0x54A JUMP JUMPDEST PUSH2 0x5B9 DUP2 DUP6 PUSH2 0x554 JUMP JUMPDEST SWAP4 POP PUSH2 0x5C4 DUP4 PUSH2 0x564 JUMP JUMPDEST DUP1 PUSH0 JUMPDEST DUP4 DUP2 LT ISZERO PUSH2 0x5F4 JUMPI DUP2 MLOAD PUSH2 0x5DB DUP9 DUP3 PUSH2 0x582 JUMP JUMPDEST SWAP8 POP PUSH2 0x5E6 DUP4 PUSH2 0x599 JUMP JUMPDEST SWAP3 POP POP PUSH1 0x1 DUP2 ADD SWAP1 POP PUSH2 0x5C7 JUMP JUMPDEST POP DUP6 SWAP4 POP POP POP POP SWAP3 SWAP2 POP POP JUMP JUMPDEST PUSH0 PUSH1 0x20 DUP3 ADD SWAP1 POP DUP2 DUP2 SUB PUSH0 DUP4 ADD MSTORE PUSH2 0x619 DUP2 DUP5 PUSH2 0x5A5 JUMP JUMPDEST SWAP1 POP SWAP3 SWAP2 POP POP JUMP JUMPDEST PUSH0 DUP3 DUP3 MSTORE PUSH1 0x20 DUP3 ADD SWAP1 POP SWAP3 SWAP2 POP POP JUMP JUMPDEST PUSH32 0x496E646578206F7574206F6620626F756E640000000000000000000000000000 PUSH0 DUP3 ADD MSTORE POP JUMP JUMPDEST PUSH0 PUSH2 0x665 PUSH1 0x12 DUP4 PUSH2 0x621 JUMP JUMPDEST SWAP2 POP PUSH2 0x670 DUP3 PUSH2 0x631 JUMP JUMPDEST PUSH1 0x20 DUP3 ADD SWAP1 POP SWAP2 SWAP1 POP JUMP JUMPDEST PUSH0 PUSH1 0x20 DUP3 ADD SWAP1 POP DUP2 DUP2 SUB PUSH0 DUP4 ADD MSTORE PUSH2 0x692 DUP2 PUSH2 0x659 JUMP JUMPDEST SWAP1 POP SWAP2 SWAP1 POP JUMP JUMPDEST PUSH32 0x4E487B7100000000000000000000000000000000000000000000000000000000 PUSH0 MSTORE PUSH1 0x32 PUSH1 0x4 MSTORE PUSH1 0x24 PUSH0 REVERT JUMPDEST PUSH32 0x696E646578206F7574206F6620626F756E647300000000000000000000000000 PUSH0 DUP3 ADD MSTORE POP JUMP JUMPDEST PUSH0 PUSH2 0x6FA PUSH1 0x13 DUP4 PUSH2 0x621 JUMP JUMPDEST SWAP2 POP PUSH2 0x705 DUP3 PUSH2 0x6C6 JUMP JUMPDEST PUSH1 0x20 DUP3 ADD SWAP1 POP SWAP2 SWAP1 POP JUMP JUMPDEST PUSH0 PUSH1 0x20 DUP3 ADD SWAP1 POP DUP2 DUP2 SUB PUSH0 DUP4 ADD MSTORE PUSH2 0x727 DUP2 PUSH2 0x6EE JUMP JUMPDEST SWAP1 POP SWAP2 SWAP1 POP JUMP JUMPDEST PUSH32 0x417272617920697320656D707479000000000000000000000000000000000000 PUSH0 DUP3 ADD MSTORE POP JUMP JUMPDEST PUSH0 PUSH2 0x762 PUSH1 0xE DUP4 PUSH2 0x621 JUMP JUMPDEST SWAP2 POP PUSH2 0x76D DUP3 PUSH2 0x72E JUMP JUMPDEST PUSH1 0x20 DUP3 ADD SWAP1 POP SWAP2 SWAP1 POP JUMP JUMPDEST PUSH0 PUSH1 0x20 DUP3 ADD SWAP1 POP DUP2 DUP2 SUB PUSH0 DUP4 ADD MSTORE PUSH2 0x78F DUP2 PUSH2 0x756 JUMP JUMPDEST SWAP1 POP SWAP2 SWAP1 POP JUMP JUMPDEST PUSH32 0x4E487B7100000000000000000000000000000000000000000000000000000000 PUSH0 MSTORE PUSH1 0x31 PUSH1 0x4 MSTORE PUSH1 0x24 PUSH0 REVERT INVALID LOG2 PUSH5 0x6970667358 0x22 SLT KECCAK256 SWAP15 0xEF 0xB8 RETURNDATACOPY MOD PUSH26 0xA7E3F75D4836AF9A53C2064986A4676D856572A85437B4A8E7EC PUSH5 0x736F6C6343 STOP ADDMOD 0x1E STOP CALLER "
		},
		"gasEstimates": {
			"creation": {
				"codeDepositCost": "408200",
				"executionCost": "441",
				"totalCost": "408641"
			},
			"external": {
				"add(uint256)": "46821",
				"clearArray()": "infinite",
				"dynamicArray(uint256)": "infinite",
				"get(uint256)": "infinite",
				"getAll()": "infinite",
				"length()": "2484",
				"removeLast()": "31613",
				"reset(uint256)": "9783",
				"resetAll()": "infinite",
				"set(uint256,uint256)": "infinite"
			}
		},
		"methodIdentifiers": {
			"add(uint256)": "1003e2d2",
			"clearArray()": "e80b7ab6",
			"dynamicArray(uint256)": "9a9bdca7",
			"get(uint256)": "9507d39a",
			"getAll()": "53ed5143",
			"length()": "1f7b6d32",
			"removeLast()": "d092e186",
			"reset(uint256)": "310bd74b",
			"resetAll()": "e103aef5",
			"set(uint256,uint256)": "1ab06ee5"
		}
	},
	"abi": [
		{
			"inputs": [
				{
					"internalType": "uint256",
					"name": "value",
					"type": "uint256"
				}
			],
			"name": "add",
			"outputs": [],
			"stateMutability": "nonpayable",
			"type": "function"
		},
		{
			"inputs": [],
			"name": "clearArray",
			"outputs": [],
			"stateMutability": "nonpayable",
			"type": "function"
		},
		{
			"inputs": [
				{
					"internalType": "uint256",
					"name": "",
					"type": "uint256"
				}
			],
			"name": "dynamicArray",
			"outputs": [
				{
					"internalType": "uint256",
					"name": "",
					"type": "uint256"
				}
			],
			"stateMutability": "view",
			"type": "function"
		},
		{
			"inputs": [
				{
					"internalType": "uint256",
					"name": "index",
					"type": "uint256"
				}
			],
			"name": "get",
			"outputs": [
				{
					"internalType": "uint256",
					"name": "",
					"type": "uint256"
				}
			],
			"stateMutability": "view",
			"type": "function"
		},
		{
			"inputs": [],
			"name": "getAll",
			"outputs": [
				{
					"internalType": "uint256[]",
					"name": "",
					"type": "uint256[]"
				}
			],
			"stateMutability": "view",
			"type": "function"
		},
		{
			"inputs": [],
			"name": "length",
			"outputs": [
				{
					"internalType": "uint256",
					"name": "",
					"type": "uint256"
				}
			],
			"stateMutability": "view",
			"type": "function"
		},
		{
			"inputs": [],
			"name": "removeLast",
			"outputs": [],
			"stateMutability": "nonpayable",
			"type": "function"
		},
		{
			"inputs": [
				{
					"internalType": "uint256",
					"name": "index",
					"type": "uint256"
				}
			],
			"name": "reset",
			"outputs": [],
			"stateMutability": "nonpayable",
			"type": "function"
		},
		{
			"inputs": [],
			"name": "resetAll",
			"outputs": [],
			"stateMutability": "nonpayable",
			"type": "function"
		},
		{
			"inputs": [
				{
					"internalType": "uint256",
					"name": "index",
					"type": "uint256"
				},
				{
					"internalType": "uint256",
					"name": "value",
					"type": "uint256"
				}
			],
			"name": "set",
			"outputs": [],
			"stateMutability": "nonpayable",
			"type": "function"
		}
	]
}