{
	"data": {
		"bytecode": {
			"linkReferences": {},
			"object": "6080604052348015600e575f5ffd5b506107ff8061001c5f395ff3fe608060405234801561000f575f5ffd5b5060043610610091575f3560e01c806353ed51431161006457806353ed5143146101075780639507d39a146101255780639a5009ac14610155578063cc3e57d914610185578063e103aef5146101b557610091565b80631a593ba9146100955780631ab06ee5146100b15780631f7b6d32146100cd578063310bd74b146100eb575b5f5ffd5b6100af60048036038101906100aa91906105aa565b6101bf565b005b6100cb60048036038101906100c691906105d5565b6101d3565b005b6100d5610233565b6040516100e29190610622565b60405180910390f35b6101056004803603810190610100919061063b565b61023b565b005b61010f610298565b60405161011c919061070b565b60405180910390f35b61013f600480360381019061013a919061063b565b6102e2565b60405161014c9190610622565b60405180910390f35b61016f600480360381019061016a919061063b565b610342565b60405161017c9190610622565b60405180910390f35b61019f600480360381019061019a919061063b565b61035a565b6040516101ac9190610622565b60405180910390f35b6101bd61037a565b005b805f9060056101cf9291906103af565b5050565b60058210610216576040517f08c379a000000000000000000000000000000000000000000000000000000000815260040161020d9061077e565b60405180910390fd5b805f836005811061022a5761022961079c565b5b01819055505050565b5f6005905090565b6005811061027e576040517f08c379a00000000000000000000000000000000000000000000000000000000081526004016102759061077e565b60405180910390fd5b5f81600581106102915761029061079c565b5b015f905550565b6102a06103ef565b5f6005806020026040519081016040528092919082600580156102d8576020028201915b8154815260200190600101908083116102c4575b5050505050905090565b5f60058210610326576040517f08c379a000000000000000000000000000000000000000000000000000000000815260040161031d9061077e565b60405180910390fd5b5f82600581106103395761033861079c565b5b01549050919050565b5f8160058110610350575f80fd5b015f915090505481565b60058181548110610369575f80fd5b905f5260205f20015f915090505481565b5f5f90505b60058110156103ac575f816005811061039b5761039a61079c565b5b015f9055808060010191505061037f565b50565b82600581019282156103de579160200282015b828111156103dd5782518255916020019190600101906103c2565b5b5090506103eb9190610411565b5090565b6040518060a00160405280600590602082028036833780820191505090505090565b5b80821115610428575f815f905550600101610412565b5090565b5f604051905090565b5f5ffd5b5f5ffd5b5f601f19601f8301169050919050565b7f4e487b71000000000000000000000000000000000000000000000000000000005f52604160045260245ffd5b6104838261043d565b810181811067ffffffffffffffff821117156104a2576104a161044d565b5b80604052505050565b5f6104b461042c565b90506104c0828261047a565b919050565b5f67ffffffffffffffff8211156104df576104de61044d565b5b602082029050919050565b5f5ffd5b5f819050919050565b610500816104ee565b811461050a575f5ffd5b50565b5f8135905061051b816104f7565b92915050565b5f61053361052e846104c5565b6104ab565b9050806020840283018581111561054d5761054c6104ea565b5b835b818110156105765780610562888261050d565b84526020840193505060208101905061054f565b5050509392505050565b5f82601f83011261059457610593610439565b5b60056105a1848285610521565b91505092915050565b5f60a082840312156105bf576105be610435565b5b5f6105cc84828501610580565b91505092915050565b5f5f604083850312156105eb576105ea610435565b5b5f6105f88582860161050d565b92505060206106098582860161050d565b9150509250929050565b61061c816104ee565b82525050565b5f6020820190506106355f830184610613565b92915050565b5f602082840312156106505761064f610435565b5b5f61065d8482850161050d565b91505092915050565b5f60059050919050565b5f81905092915050565b5f819050919050565b61068c816104ee565b82525050565b5f61069d8383610683565b60208301905092915050565b5f602082019050919050565b6106be81610666565b6106c88184610670565b92506106d38261067a565b805f5b838110156107035781516106ea8782610692565b96506106f5836106a9565b9250506001810190506106d6565b505050505050565b5f60a08201905061071e5f8301846106b5565b92915050565b5f82825260208201905092915050565b7f496e646578206f7574206f6620626f756e6473000000000000000000000000005f82015250565b5f610768601383610724565b915061077382610734565b602082019050919050565b5f6020820190508181035f8301526107958161075c565b9050919050565b7f4e487b71000000000000000000000000000000000000000000000000000000005f52603260045260245ffdfea26469706673582212201a0adcb87fc1657827dde4888be23bd4ffa47b9719c3bf62fe1e90471b79288f64736f6c634300081e0033",
			"opcodes": "PUSH1 0x80 PUSH1 0x40 MSTORE CALLVALUE DUP1 ISZERO PUSH1 0xE JUMPI PUSH0 PUSH0 REVERT JUMPDEST POP PUSH2 0x7FF DUP1 PUSH2 0x1C PUSH0 CODECOPY PUSH0 RETURN INVALID PUSH1 0x80 PUSH1 0x40 MSTORE CALLVALUE DUP1 ISZERO PUSH2 0xF JUMPI PUSH0 PUSH0 REVERT JUMPDEST POP PUSH1 0x4 CALLDATASIZE LT PUSH2 0x91 JUMPI PUSH0 CALLDATALOAD PUSH1 0xE0 SHR DUP1 PUSH4 0x53ED5143 GT PUSH2 0x64 JUMPI DUP1 PUSH4 0x53ED5143 EQ PUSH2 0x107 JUMPI DUP1 PUSH4 0x9507D39A EQ PUSH2 0x125 JUMPI DUP1 PUSH4 0x9A5009AC EQ PUSH2 0x155 JUMPI DUP1 PUSH4 0xCC3E57D9 EQ PUSH2 0x185 JUMPI DUP1 PUSH4 0xE103AEF5 EQ PUSH2 0x1B5 JUMPI PUSH2 0x91 JUMP JUMPDEST DUP1 PUSH4 0x1A593BA9 EQ PUSH2 0x95 JUMPI DUP1 PUSH4 0x1AB06EE5 EQ PUSH2 0xB1 JUMPI DUP1 PUSH4 0x1F7B6D32 EQ PUSH2 0xCD JUMPI DUP1 PUSH4 0x310BD74B EQ PUSH2 0xEB JUMPI JUMPDEST PUSH0 PUSH0 REVERT JUMPDEST PUSH2 0xAF PUSH1 0x4 DUP1 CALLDATASIZE SUB DUP2 ADD SWAP1 PUSH2 0xAA SWAP2 SWAP1 PUSH2 0x5AA JUMP JUMPDEST PUSH2 0x1BF JUMP JUMPDEST STOP JUMPDEST PUSH2 0xCB PUSH1 0x4 DUP1 CALLDATASIZE SUB DUP2 ADD SWAP1 PUSH2 0xC6 SWAP2 SWAP1 PUSH2 0x5D5 JUMP JUMPDEST PUSH2 0x1D3 JUMP JUMPDEST STOP JUMPDEST PUSH2 0xD5 PUSH2 0x233 JUMP JUMPDEST PUSH1 0x40 MLOAD PUSH2 0xE2 SWAP2 SWAP1 PUSH2 0x622 JUMP JUMPDEST PUSH1 0x40 MLOAD DUP1 SWAP2 SUB SWAP1 RETURN JUMPDEST PUSH2 0x105 PUSH1 0x4 DUP1 CALLDATASIZE SUB DUP2 ADD SWAP1 PUSH2 0x100 SWAP2 SWAP1 PUSH2 0x63B JUMP JUMPDEST PUSH2 0x23B JUMP JUMPDEST STOP JUMPDEST PUSH2 0x10F PUSH2 0x298 JUMP JUMPDEST PUSH1 0x40 MLOAD PUSH2 0x11C SWAP2 SWAP1 PUSH2 0x70B JUMP JUMPDEST PUSH1 0x40 MLOAD DUP1 SWAP2 SUB SWAP1 RETURN JUMPDEST PUSH2 0x13F PUSH1 0x4 DUP1 CALLDATASIZE SUB DUP2 ADD SWAP1 PUSH2 0x13A SWAP2 SWAP1 PUSH2 0x63B JUMP JUMPDEST PUSH2 0x2E2 JUMP JUMPDEST PUSH1 0x40 MLOAD PUSH2 0x14C SWAP2 SWAP1 PUSH2 0x622 JUMP JUMPDEST PUSH1 0x40 MLOAD DUP1 SWAP2 SUB SWAP1 RETURN JUMPDEST PUSH2 0x16F PUSH1 0x4 DUP1 CALLDATASIZE SUB DUP2 ADD SWAP1 PUSH2 0x16A SWAP2 SWAP1 PUSH2 0x63B JUMP JUMPDEST PUSH2 0x342 JUMP JUMPDEST PUSH1 0x40 MLOAD PUSH2 0x17C SWAP2 SWAP1 PUSH2 0x622 JUMP JUMPDEST PUSH1 0x40 MLOAD DUP1 SWAP2 SUB SWAP1 RETURN JUMPDEST PUSH2 0x19F PUSH1 0x4 DUP1 CALLDATASIZE SUB DUP2 ADD SWAP1 PUSH2 0x19A SWAP2 SWAP1 PUSH2 0x63B JUMP JUMPDEST PUSH2 0x35A JUMP JUMPDEST PUSH1 0x40 MLOAD PUSH2 0x1AC SWAP2 SWAP1 PUSH2 0x622 JUMP JUMPDEST PUSH1 0x40 MLOAD DUP1 SWAP2 SUB SWAP1 RETURN JUMPDEST PUSH2 0x1BD PUSH2 0x37A JUMP JUMPDEST STOP JUMPDEST DUP1 PUSH0 SWAP1 PUSH1 0x5 PUSH2 0x1CF SWAP3 SWAP2 SWAP1 PUSH2 0x3AF JUMP JUMPDEST POP POP JUMP JUMPDEST PUSH1 0x5 DUP3 LT PUSH2 0x216 JUMPI PUSH1 0x40 MLOAD PUSH32 0x8C379A000000000000000000000000000000000000000000000000000000000 DUP2 MSTORE PUSH1 0x4 ADD PUSH2 0x20D SWAP1 PUSH2 0x77E JUMP JUMPDEST PUSH1 0x40 MLOAD DUP1 SWAP2 SUB SWAP1 REVERT JUMPDEST DUP1 PUSH0 DUP4 PUSH1 0x5 DUP2 LT PUSH2 0x22A JUMPI PUSH2 0x229 PUSH2 0x79C JUMP JUMPDEST JUMPDEST ADD DUP2 SWAP1 SSTORE POP POP POP JUMP JUMPDEST PUSH0 PUSH1 0x5 SWAP1 POP SWAP1 JUMP JUMPDEST PUSH1 0x5 DUP2 LT PUSH2 0x27E JUMPI PUSH1 0x40 MLOAD PUSH32 0x8C379A000000000000000000000000000000000000000000000000000000000 DUP2 MSTORE PUSH1 0x4 ADD PUSH2 0x275 SWAP1 PUSH2 0x77E JUMP JUMPDEST PUSH1 0x40 MLOAD DUP1 SWAP2 SUB SWAP1 REVERT JUMPDEST PUSH0 DUP2 PUSH1 0x5 DUP2 LT PUSH2 0x291 JUMPI PUSH2 0x290 PUSH2 0x79C JUMP JUMPDEST JUMPDEST ADD PUSH0 SWAP1 SSTORE POP JUMP JUMPDEST PUSH2 0x2A0 PUSH2 0x3EF JUMP JUMPDEST PUSH0 PUSH1 0x5 DUP1 PUSH1 0x20 MUL PUSH1 0x40 MLOAD SWAP1 DUP2 ADD PUSH1 0x40 MSTORE DUP1 SWAP3 SWAP2 SWAP1 DUP3 PUSH1 0x5 DUP1 ISZERO PUSH2 0x2D8 JUMPI PUSH1 0x20 MUL DUP3 ADD SWAP2 JUMPDEST DUP2 SLOAD DUP2 MSTORE PUSH1 0x20 ADD SWAP1 PUSH1 0x1 ADD SWAP1 DUP1 DUP4 GT PUSH2 0x2C4 JUMPI JUMPDEST POP POP POP POP POP SWAP1 POP SWAP1 JUMP JUMPDEST PUSH0 PUSH1 0x5 DUP3 LT PUSH2 0x326 JUMPI PUSH1 0x40 MLOAD PUSH32 0x8C379A000000000000000000000000000000000000000000000000000000000 DUP2 MSTORE PUSH1 0x4 ADD PUSH2 0x31D SWAP1 PUSH2 0x77E JUMP JUMPDEST PUSH1 0x40 MLOAD DUP1 SWAP2 SUB SWAP1 REVERT JUMPDEST PUSH0 DUP3 PUSH1 0x5 DUP2 LT PUSH2 0x339 JUMPI PUSH2 0x338 PUSH2 0x79C JUMP JUMPDEST JUMPDEST ADD SLOAD SWAP1 POP SWAP2 SWAP1 POP JUMP JUMPDEST PUSH0 DUP2 PUSH1 0x5 DUP2 LT PUSH2 0x350 JUMPI PUSH0 DUP1 REVERT JUMPDEST ADD PUSH0 SWAP2 POP SWAP1 POP SLOAD DUP2 JUMP JUMPDEST PUSH1 0x5 DUP2 DUP2 SLOAD DUP2 LT PUSH2 0x369 JUMPI PUSH0 DUP1 REVERT JUMPDEST SWAP1 PUSH0 MSTORE PUSH1 0x20 PUSH0 KECCAK256 ADD PUSH0 SWAP2 POP SWAP1 POP SLOAD DUP2 JUMP JUMPDEST PUSH0 PUSH0 SWAP1 POP JUMPDEST PUSH1 0x5 DUP2 LT ISZERO PUSH2 0x3AC JUMPI PUSH0 DUP2 PUSH1 0x5 DUP2 LT PUSH2 0x39B JUMPI PUSH2 0x39A PUSH2 0x79C JUMP JUMPDEST JUMPDEST ADD PUSH0 SWAP1 SSTORE DUP1 DUP1 PUSH1 0x1 ADD SWAP2 POP POP PUSH2 0x37F JUMP JUMPDEST POP JUMP JUMPDEST DUP3 PUSH1 0x5 DUP2 ADD SWAP3 DUP3 ISZERO PUSH2 0x3DE JUMPI SWAP2 PUSH1 0x20 MUL DUP3 ADD JUMPDEST DUP3 DUP2 GT ISZERO PUSH2 0x3DD JUMPI DUP3 MLOAD DUP3 SSTORE SWAP2 PUSH1 0x20 ADD SWAP2 SWAP1 PUSH1 0x1 ADD SWAP1 PUSH2 0x3C2 JUMP JUMPDEST JUMPDEST POP SWAP1 POP PUSH2 0x3EB SWAP2 SWAP1 PUSH2 0x411 JUMP JUMPDEST POP SWAP1 JUMP JUMPDEST PUSH1 0x40 MLOAD DUP1 PUSH1 0xA0 ADD PUSH1 0x40 MSTORE DUP1 PUSH1 0x5 SWAP1 PUSH1 0x20 DUP3 MUL DUP1 CALLDATASIZE DUP4 CALLDATACOPY DUP1 DUP3 ADD SWAP2 POP POP SWAP1 POP POP SWAP1 JUMP JUMPDEST JUMPDEST DUP1 DUP3 GT ISZERO PUSH2 0x428 JUMPI PUSH0 DUP2 PUSH0 SWAP1 SSTORE POP PUSH1 0x1 ADD PUSH2 0x412 JUMP JUMPDEST POP SWAP1 JUMP JUMPDEST PUSH0 PUSH1 0x40 MLOAD SWAP1 POP SWAP1 JUMP JUMPDEST PUSH0 PUSH0 REVERT JUMPDEST PUSH0 PUSH0 REVERT JUMPDEST PUSH0 PUSH1 0x1F NOT PUSH1 0x1F DUP4 ADD AND SWAP1 POP SWAP2 SWAP1 POP JUMP JUMPDEST PUSH32 0x4E487B7100000000000000000000000000000000000000000000000000000000 PUSH0 MSTORE PUSH1 0x41 PUSH1 0x4 MSTORE PUSH1 0x24 PUSH0 REVERT JUMPDEST PUSH2 0x483 DUP3 PUSH2 0x43D JUMP JUMPDEST DUP2 ADD DUP2 DUP2 LT PUSH8 0xFFFFFFFFFFFFFFFF DUP3 GT OR ISZERO PUSH2 0x4A2 JUMPI PUSH2 0x4A1 PUSH2 0x44D JUMP JUMPDEST JUMPDEST DUP1 PUSH1 0x40 MSTORE POP POP POP JUMP JUMPDEST PUSH0 PUSH2 0x4B4 PUSH2 0x42C JUMP JUMPDEST SWAP1 POP PUSH2 0x4C0 DUP3 DUP3 PUSH2 0x47A JUMP JUMPDEST SWAP2 SWAP1 POP JUMP JUMPDEST PUSH0 PUSH8 0xFFFFFFFFFFFFFFFF DUP3 GT ISZERO PUSH2 0x4DF JUMPI PUSH2 0x4DE PUSH2 0x44D JUMP JUMPDEST JUMPDEST PUSH1 0x20 DUP3 MUL SWAP1 POP SWAP2 SWAP1 POP JUMP JUMPDEST PUSH0 PUSH0 REVERT JUMPDEST PUSH0 DUP2 SWAP1 POP SWAP2 SWAP1 POP JUMP JUMPDEST PUSH2 0x500 DUP2 PUSH2 0x4EE JUMP JUMPDEST DUP2 EQ PUSH2 0x50A JUMPI PUSH0 PUSH0 REVERT JUMPDEST POP JUMP JUMPDEST PUSH0 DUP2 CALLDATALOAD SWAP1 POP PUSH2 0x51B DUP2 PUSH2 0x4F7 JUMP JUMPDEST SWAP3 SWAP2 POP POP JUMP JUMPDEST PUSH0 PUSH2 0x533 PUSH2 0x52E DUP5 PUSH2 0x4C5 JUMP JUMPDEST PUSH2 0x4AB JUMP JUMPDEST SWAP1 POP DUP1 PUSH1 0x20 DUP5 MUL DUP4 ADD DUP6 DUP2 GT ISZERO PUSH2 0x54D JUMPI PUSH2 0x54C PUSH2 0x4EA JUMP JUMPDEST JUMPDEST DUP4 JUMPDEST DUP2 DUP2 LT ISZERO PUSH2 0x576 JUMPI DUP1 PUSH2 0x562 DUP9 DUP3 PUSH2 0x50D JUMP JUMPDEST DUP5 MSTORE PUSH1 0x20 DUP5 ADD SWAP4 POP POP PUSH1 0x20 DUP2 ADD SWAP1 POP PUSH2 0x54F JUMP JUMPDEST POP POP POP SWAP4 SWAP3 POP POP POP JUMP JUMPDEST PUSH0 DUP3 PUSH1 0x1F DUP4 ADD SLT PUSH2 0x594 JUMPI PUSH2 0x593 PUSH2 0x439 JUMP JUMPDEST JUMPDEST PUSH1 0x5 PUSH2 0x5A1 DUP5 DUP3 DUP6 PUSH2 0x521 JUMP JUMPDEST SWAP2 POP POP SWAP3 SWAP2 POP POP JUMP JUMPDEST PUSH0 PUSH1 0xA0 DUP3 DUP5 SUB SLT ISZERO PUSH2 0x5BF JUMPI PUSH2 0x5BE PUSH2 0x435 JUMP JUMPDEST JUMPDEST PUSH0 PUSH2 0x5CC DUP5 DUP3 DUP6 ADD PUSH2 0x580 JUMP JUMPDEST SWAP2 POP POP SWAP3 SWAP2 POP POP JUMP JUMPDEST PUSH0 PUSH0 PUSH1 0x40 DUP4 DUP6 SUB SLT ISZERO PUSH2 0x5EB JUMPI PUSH2 0x5EA PUSH2 0x435 JUMP JUMPDEST JUMPDEST PUSH0 PUSH2 0x5F8 DUP6 DUP3 DUP7 ADD PUSH2 0x50D JUMP JUMPDEST SWAP3 POP POP PUSH1 0x20 PUSH2 0x609 DUP6 DUP3 DUP7 ADD PUSH2 0x50D JUMP JUMPDEST SWAP2 POP POP SWAP3 POP SWAP3 SWAP1 POP JUMP JUMPDEST PUSH2 0x61C DUP2 PUSH2 0x4EE JUMP JUMPDEST DUP3 MSTORE POP POP JUMP JUMPDEST PUSH0 PUSH1 0x20 DUP3 ADD SWAP1 POP PUSH2 0x635 PUSH0 DUP4 ADD DUP5 PUSH2 0x613 JUMP JUMPDEST SWAP3 SWAP2 POP POP JUMP JUMPDEST PUSH0 PUSH1 0x20 DUP3 DUP5 SUB SLT ISZERO PUSH2 0x650 JUMPI PUSH2 0x64F PUSH2 0x435 JUMP JUMPDEST JUMPDEST PUSH0 PUSH2 0x65D DUP5 DUP3 DUP6 ADD PUSH2 0x50D JUMP JUMPDEST SWAP2 POP POP SWAP3 SWAP2 POP POP JUMP JUMPDEST PUSH0 PUSH1 0x5 SWAP1 POP SWAP2 SWAP1 POP JUMP JUMPDEST PUSH0 DUP2 SWAP1 POP SWAP3 SWAP2 POP POP JUMP JUMPDEST PUSH0 DUP2 SWAP1 POP SWAP2 SWAP1 POP JUMP JUMPDEST PUSH2 0x68C DUP2 PUSH2 0x4EE JUMP JUMPDEST DUP3 MSTORE POP POP JUMP JUMPDEST PUSH0 PUSH2 0x69D DUP4 DUP4 PUSH2 0x683 JUMP JUMPDEST PUSH1 0x20 DUP4 ADD SWAP1 POP SWAP3 SWAP2 POP POP JUMP JUMPDEST PUSH0 PUSH1 0x20 DUP3 ADD SWAP1 POP SWAP2 SWAP1 POP JUMP JUMPDEST PUSH2 0x6BE DUP2 PUSH2 0x666 JUMP JUMPDEST PUSH2 0x6C8 DUP2 DUP5 PUSH2 0x670 JUMP JUMPDEST SWAP3 POP PUSH2 0x6D3 DUP3 PUSH2 0x67A JUMP JUMPDEST DUP1 PUSH0 JUMPDEST DUP4 DUP2 LT ISZERO PUSH2 0x703 JUMPI DUP2 MLOAD PUSH2 0x6EA DUP8 DUP3 PUSH2 0x692 JUMP JUMPDEST SWAP7 POP PUSH2 0x6F5 DUP4 PUSH2 0x6A9 JUMP JUMPDEST SWAP3 POP POP PUSH1 0x1 DUP2 ADD SWAP1 POP PUSH2 0x6D6 JUMP JUMPDEST POP POP POP POP POP POP JUMP JUMPDEST PUSH0 PUSH1 0xA0 DUP3 ADD SWAP1 POP PUSH2 0x71E PUSH0 DUP4 ADD DUP5 PUSH2 0x6B5 JUMP JUMPDEST SWAP3 SWAP2 POP POP JUMP JUMPDEST PUSH0 DUP3 DUP3 MSTORE PUSH1 0x20 DUP3 ADD SWAP1 POP SWAP3 SWAP2 POP POP JUMP JUMPDEST PUSH32 0x496E646578206F7574206F6620626F756E647300000000000000000000000000 PUSH0 DUP3 ADD MSTORE POP JUMP JUMPDEST PUSH0 PUSH2 0x768 PUSH1 0x13 DUP4 PUSH2 0x724 JUMP JUMPDEST SWAP2 POP PUSH2 0x773 DUP3 PUSH2 0x734 JUMP JUMPDEST PUSH1 0x20 DUP3 ADD SWAP1 POP SWAP2 SWAP1 POP JUMP JUMPDEST PUSH0 PUSH1 0x20 DUP3 ADD SWAP1 POP DUP2 DUP2 SUB PUSH0 DUP4 ADD MSTORE PUSH2 0x795 DUP2 PUSH2 0x75C JUMP JUMPDEST SWAP1 POP SWAP2 SWAP1 POP JUMP JUMPDEST PUSH32 0x4E487B7100000000000000000000000000000000000000000000000000000000 PUSH0 MSTORE PUSH1 0x32 PUSH1 0x4 MSTORE PUSH1 0x24 PUSH0 REVERT INVALID LOG2 PUSH5 0x6970667358 0x22 SLT KECCAK256 BYTE EXP 0xDC 0xB8 PUSH32 0xC1657827DDE4888BE23BD4FFA47B9719C3BF62FE1E90471B79288F64736F6C63 NUMBER STOP ADDMOD 0x1E STOP CALLER "
		},
		"gasEstimates": {
			"creation": {
				"codeDepositCost": "409400",
				"executionCost": "441",
				"totalCost": "409841"
			},
			"external": {
				"fixedArray(uint256)": "infinite",
				"get(uint256)": "infinite",
				"getAll()": "infinite",
				"length()": "377",
				"myArray(uint256)": "infinite",
				"reset(uint256)": "5527",
				"resetAll()": "infinite",
				"set(uint256,uint256)": "infinite",
				"setAll(uint256[5])": "infinite"
			}
		},
		"methodIdentifiers": {
			"fixedArray(uint256)": "9a5009ac",
			"get(uint256)": "9507d39a",
			"getAll()": "53ed5143",
			"length()": "1f7b6d32",
			"myArray(uint256)": "cc3e57d9",
			"reset(uint256)": "310bd74b",
			"resetAll()": "e103aef5",
			"set(uint256,uint256)": "1ab06ee5",
			"setAll(uint256[5])": "1a593ba9"
		}
	},
	"abi": [
		{
			"inputs": [
				{
					"internalType": "uint256",
					"name": "",
					"type": "uint256"
				}
			],
			"name": "fixedArray",
			"outputs": [
				{
					"internalType": "uint256",
					"name": "",
					"type": "uint256"
				}
			],
			"stateMutability": "view",
			"type": "function"
		},
		{
			"inputs": [
				{
					"internalType": "uint256",
					"name": "index",
					"type": "uint256"
				}
			],
			"name": "get",
			"outputs": [
				{
					"internalType": "uint256",
					"name": "",
					"type": "uint256"
				}
			],
			"stateMutability": "view",
			"type": "function"
		},
		{
			"inputs": [],
			"name": "getAll",
			"outputs": [
				{
					"internalType": "uint256[5]",
					"name": "",
					"type": "uint256[5]"
				}
			],
			"stateMutability": "view",
			"type": "function"
		},
		{
			"inputs": [],
			"name": "length",
			"outputs": [
				{
					"internalType": "uint256",
					"name": "",
					"type": "uint256"
				}
			],
			"stateMutability": "view",
			"type": "function"
		},
		{
			"inputs": [
				{
					"internalType": "uint256",
					"name": "",
					"type": "uint256"
				}
			],
			"name": "myArray",
			"outputs": [
				{
					"internalType": "uint256",
					"name": "",
					"type": "uint256"
				}
			],
			"stateMutability": "view",
			"type": "function"
		},
		{
			"inputs": [
				{
					"internalType": "uint256",
					"name": "index",
					"type": "uint256"
				}
			],
			"name": "reset",
			"outputs": [],
			"stateMutability": "nonpayable",
			"type": "function"
		},
		{
			"inputs": [],
			"name": "resetAll",
			"outputs": [],
			"stateMutability": "nonpayable",
			"type": "function"
		},
		{
			"inputs": [
				{
					"internalType": "uint256",
					"name": "index",
					"type": "uint256"
				},
				{
					"internalType": "uint256",
					"name": "value",
					"type": "uint256"
				}
			],
			"name": "set",
			"outputs": [],
			"stateMutability": "nonpayable",
			"type": "function"
		},
		{
			"inputs": [
				{
					"internalType": "uint256[5]",
					"name": "values",
					"type": "uint256[5]"
				}
			],
			"name": "setAll",
			"outputs": [],
			"stateMutability": "nonpayable",
			"type": "function"
		}
	]
}