{
	"data": {
		"bytecode": {
			"linkReferences": {},
			"object": "608060405260015f5f6101000a81548160ff0219169083151502179055503480156027575f5ffd5b5061031a806100355f395ff3fe608060405234801561000f575f5ffd5b506004361061005f575f3560e01c806274530a1461006357806328eb7ef3146100815780632ee79ded1461009f57806379365f54146100a9578063e7c898ef146100c7578063fc0e6008146100e5575b5f5ffd5b61006b610103565b604051610078919061023a565b60405180910390f35b610089610114565b604051610096919061026b565b60405180910390f35b6100a761014c565b005b6100b1610174565b6040516100be919061023a565b60405180910390f35b6100cf6101a4565b6040516100dc919061026b565b60405180910390f35b6100ed6101e2565b6040516100fa919061026b565b60405180910390f35b5f5f9054906101000a900460ff1681565b5f5f5f90505f5f90505b60058261012b91906102b1565b915060028161013a91906102b1565b9050600a811061011e57819250505090565b5f5f9054906101000a900460ff16155f5f6101000a81548160ff021916908315150217905550565b5f5f5f9054906101000a900460ff161561019d575f5f9054906101000a900460ff1690506101a1565b5f90505b90565b5f5f5f90505f5f90505b600a8110156101da576005826101c491906102b1565b91506002816101d391906102b1565b90506101ae565b819250505090565b5f5f5f90505f5f90505b600a8110156102185760058261020291906102b1565b915060028161021191906102b1565b90506101ec565b508091505090565b5f8115159050919050565b61023481610220565b82525050565b5f60208201905061024d5f83018461022b565b92915050565b5f819050919050565b61026581610253565b82525050565b5f60208201905061027e5f83018461025c565b92915050565b7f4e487b71000000000000000000000000000000000000000000000000000000005f52601160045260245ffd5b5f6102bb82610253565b91506102c683610253565b92508282019050808211156102de576102dd610284565b5b9291505056fea2646970667358221220f4f2d101a407c866f28f07abd2fb2a8e9a645d214ce56534ee9831c52ba908ac64736f6c634300081e0033",
			"opcodes": "PUSH1 0x80 PUSH1 0x40 MSTORE PUSH1 0x1 PUSH0 PUSH0 PUSH2 0x100 EXP DUP2 SLOAD DUP2 PUSH1 0xFF MUL NOT AND SWAP1 DUP4 ISZERO ISZERO MUL OR SWAP1 SSTORE POP CALLVALUE DUP1 ISZERO PUSH1 0x27 JUMPI PUSH0 PUSH0 REVERT JUMPDEST POP PUSH2 0x31A DUP1 PUSH2 0x35 PUSH0 CODECOPY PUSH0 RETURN INVALID PUSH1 0x80 PUSH1 0x40 MSTORE CALLVALUE DUP1 ISZERO PUSH2 0xF JUMPI PUSH0 PUSH0 REVERT JUMPDEST POP PUSH1 0x4 CALLDATASIZE LT PUSH2 0x5F JUMPI PUSH0 CALLDATALOAD PUSH1 0xE0 SHR DUP1 PUSH3 0x74530A EQ PUSH2 0x63 JUMPI DUP1 PUSH4 0x28EB7EF3 EQ PUSH2 0x81 JUMPI DUP1 PUSH4 0x2EE79DED EQ PUSH2 0x9F JUMPI DUP1 PUSH4 0x79365F54 EQ PUSH2 0xA9 JUMPI DUP1 PUSH4 0xE7C898EF EQ PUSH2 0xC7 JUMPI DUP1 PUSH4 0xFC0E6008 EQ PUSH2 0xE5 JUMPI JUMPDEST PUSH0 PUSH0 REVERT JUMPDEST PUSH2 0x6B PUSH2 0x103 JUMP JUMPDEST PUSH1 0x40 MLOAD PUSH2 0x78 SWAP2 SWAP1 PUSH2 0x23A JUMP JUMPDEST PUSH1 0x40 MLOAD DUP1 SWAP2 SUB SWAP1 RETURN JUMPDEST PUSH2 0x89 PUSH2 0x114 JUMP JUMPDEST PUSH1 0x40 MLOAD PUSH2 0x96 SWAP2 SWAP1 PUSH2 0x26B JUMP JUMPDEST PUSH1 0x40 MLOAD DUP1 SWAP2 SUB SWAP1 RETURN JUMPDEST PUSH2 0xA7 PUSH2 0x14C JUMP JUMPDEST STOP JUMPDEST PUSH2 0xB1 PUSH2 0x174 JUMP JUMPDEST PUSH1 0x40 MLOAD PUSH2 0xBE SWAP2 SWAP1 PUSH2 0x23A JUMP JUMPDEST PUSH1 0x40 MLOAD DUP1 SWAP2 SUB SWAP1 RETURN JUMPDEST PUSH2 0xCF PUSH2 0x1A4 JUMP JUMPDEST PUSH1 0x40 MLOAD PUSH2 0xDC SWAP2 SWAP1 PUSH2 0x26B JUMP JUMPDEST PUSH1 0x40 MLOAD DUP1 SWAP2 SUB SWAP1 RETURN JUMPDEST PUSH2 0xED PUSH2 0x1E2 JUMP JUMPDEST PUSH1 0x40 MLOAD PUSH2 0xFA SWAP2 SWAP1 PUSH2 0x26B JUMP JUMPDEST PUSH1 0x40 MLOAD DUP1 SWAP2 SUB SWAP1 RETURN JUMPDEST PUSH0 PUSH0 SWAP1 SLOAD SWAP1 PUSH2 0x100 EXP SWAP1 DIV PUSH1 0xFF AND DUP2 JUMP JUMPDEST PUSH0 PUSH0 PUSH0 SWAP1 POP PUSH0 PUSH0 SWAP1 POP JUMPDEST PUSH1 0x5 DUP3 PUSH2 0x12B SWAP2 SWAP1 PUSH2 0x2B1 JUMP JUMPDEST SWAP2 POP PUSH1 0x2 DUP2 PUSH2 0x13A SWAP2 SWAP1 PUSH2 0x2B1 JUMP JUMPDEST SWAP1 POP PUSH1 0xA DUP2 LT PUSH2 0x11E JUMPI DUP2 SWAP3 POP POP POP SWAP1 JUMP JUMPDEST PUSH0 PUSH0 SWAP1 SLOAD SWAP1 PUSH2 0x100 EXP SWAP1 DIV PUSH1 0xFF AND ISZERO PUSH0 PUSH0 PUSH2 0x100 EXP DUP2 SLOAD DUP2 PUSH1 0xFF MUL NOT AND SWAP1 DUP4 ISZERO ISZERO MUL OR SWAP1 SSTORE POP JUMP JUMPDEST PUSH0 PUSH0 PUSH0 SWAP1 SLOAD SWAP1 PUSH2 0x100 EXP SWAP1 DIV PUSH1 0xFF AND ISZERO PUSH2 0x19D JUMPI PUSH0 PUSH0 SWAP1 SLOAD SWAP1 PUSH2 0x100 EXP SWAP1 DIV PUSH1 0xFF AND SWAP1 POP PUSH2 0x1A1 JUMP JUMPDEST PUSH0 SWAP1 POP JUMPDEST SWAP1 JUMP JUMPDEST PUSH0 PUSH0 PUSH0 SWAP1 POP PUSH0 PUSH0 SWAP1 POP JUMPDEST PUSH1 0xA DUP2 LT ISZERO PUSH2 0x1DA JUMPI PUSH1 0x5 DUP3 PUSH2 0x1C4 SWAP2 SWAP1 PUSH2 0x2B1 JUMP JUMPDEST SWAP2 POP PUSH1 0x2 DUP2 PUSH2 0x1D3 SWAP2 SWAP1 PUSH2 0x2B1 JUMP JUMPDEST SWAP1 POP PUSH2 0x1AE JUMP JUMPDEST DUP2 SWAP3 POP POP POP SWAP1 JUMP JUMPDEST PUSH0 PUSH0 PUSH0 SWAP1 POP PUSH0 PUSH0 SWAP1 POP JUMPDEST PUSH1 0xA DUP2 LT ISZERO PUSH2 0x218 JUMPI PUSH1 0x5 DUP3 PUSH2 0x202 SWAP2 SWAP1 PUSH2 0x2B1 JUMP JUMPDEST SWAP2 POP PUSH1 0x2 DUP2 PUSH2 0x211 SWAP2 SWAP1 PUSH2 0x2B1 JUMP JUMPDEST SWAP1 POP PUSH2 0x1EC JUMP JUMPDEST POP DUP1 SWAP2 POP POP SWAP1 JUMP JUMPDEST PUSH0 DUP2 ISZERO ISZERO SWAP1 POP SWAP2 SWAP1 POP JUMP JUMPDEST PUSH2 0x234 DUP2 PUSH2 0x220 JUMP JUMPDEST DUP3 MSTORE POP POP JUMP JUMPDEST PUSH0 PUSH1 0x20 DUP3 ADD SWAP1 POP PUSH2 0x24D PUSH0 DUP4 ADD DUP5 PUSH2 0x22B JUMP JUMPDEST SWAP3 SWAP2 POP POP JUMP JUMPDEST PUSH0 DUP2 SWAP1 POP SWAP2 SWAP1 POP JUMP JUMPDEST PUSH2 0x265 DUP2 PUSH2 0x253 JUMP JUMPDEST DUP3 MSTORE POP POP JUMP JUMPDEST PUSH0 PUSH1 0x20 DUP3 ADD SWAP1 POP PUSH2 0x27E PUSH0 DUP4 ADD DUP5 PUSH2 0x25C JUMP JUMPDEST SWAP3 SWAP2 POP POP JUMP JUMPDEST PUSH32 0x4E487B7100000000000000000000000000000000000000000000000000000000 PUSH0 MSTORE PUSH1 0x11 PUSH1 0x4 MSTORE PUSH1 0x24 PUSH0 REVERT JUMPDEST PUSH0 PUSH2 0x2BB DUP3 PUSH2 0x253 JUMP JUMPDEST SWAP2 POP PUSH2 0x2C6 DUP4 PUSH2 0x253 JUMP JUMPDEST SWAP3 POP DUP3 DUP3 ADD SWAP1 POP DUP1 DUP3 GT ISZERO PUSH2 0x2DE JUMPI PUSH2 0x2DD PUSH2 0x284 JUMP JUMPDEST JUMPDEST SWAP3 SWAP2 POP POP JUMP INVALID LOG2 PUSH5 0x6970667358 0x22 SLT KECCAK256 DELEGATECALL CALLCODE DATALOADN 0x1A4 SMOD 0xC8 PUSH7 0xF28F07ABD2FB2A DUP15 SWAP11 PUSH5 0x5D214CE565 CALLVALUE RETURNCONTRACT 0x98 BALANCE 0xC5 0x2B 0xA9 ADDMOD 0xAC PUSH5 0x736F6C6343 STOP ADDMOD 0x1E STOP CALLER "
		},
		"gasEstimates": {
			"creation": {
				"codeDepositCost": "158800",
				"executionCost": "24465",
				"totalCost": "183265"
			},
			"external": {
				"change()": "26567",
				"dowhileLoop()": "infinite",
				"dynamicwhile()": "4681",
				"forLoop()": "infinite",
				"isTrue()": "2443",
				"whileLoop()": "infinite"
			}
		},
		"methodIdentifiers": {
			"change()": "2ee79ded",
			"dowhileLoop()": "28eb7ef3",
			"dynamicwhile()": "79365f54",
			"forLoop()": "fc0e6008",
			"isTrue()": "0074530a",
			"whileLoop()": "e7c898ef"
		}
	},
	"abi": [
		{
			"inputs": [],
			"name": "change",
			"outputs": [],
			"stateMutability": "nonpayable",
			"type": "function"
		},
		{
			"inputs": [],
			"name": "dowhileLoop",
			"outputs": [
				{
					"internalType": "uint256",
					"name": "",
					"type": "uint256"
				}
			],
			"stateMutability": "pure",
			"type": "function"
		},
		{
			"inputs": [],
			"name": "dynamicwhile",
			"outputs": [
				{
					"internalType": "bool",
					"name": "",
					"type": "bool"
				}
			],
			"stateMutability": "view",
			"type": "function"
		},
		{
			"inputs": [],
			"name": "forLoop",
			"outputs": [
				{
					"internalType": "uint256",
					"name": "",
					"type": "uint256"
				}
			],
			"stateMutability": "pure",
			"type": "function"
		},
		{
			"inputs": [],
			"name": "isTrue",
			"outputs": [
				{
					"internalType": "bool",
					"name": "",
					"type": "bool"
				}
			],
			"stateMutability": "view",
			"type": "function"
		},
		{
			"inputs": [],
			"name": "whileLoop",
			"outputs": [
				{
					"internalType": "uint256",
					"name": "",
					"type": "uint256"
				}
			],
			"stateMutability": "pure",
			"type": "function"
		}
	]
}